{
  "contractName": "BTCETHPriceFeed",
  "abi": [
    {
      "constant": false,
      "inputs": [],
      "name": "renounceOwnership",
      "outputs": [],
      "payable": false,
      "stateMutability": "nonpayable",
      "type": "function"
    },
    {
      "constant": true,
      "inputs": [],
      "name": "owner",
      "outputs": [
        {
          "name": "",
          "type": "address"
        }
      ],
      "payable": false,
      "stateMutability": "view",
      "type": "function"
    },
    {
      "constant": true,
      "inputs": [],
      "name": "isOwner",
      "outputs": [
        {
          "name": "",
          "type": "bool"
        }
      ],
      "payable": false,
      "stateMutability": "view",
      "type": "function"
    },
    {
      "constant": false,
      "inputs": [
        {
          "name": "newOwner",
          "type": "address"
        }
      ],
      "name": "transferOwnership",
      "outputs": [],
      "payable": false,
      "stateMutability": "nonpayable",
      "type": "function"
    },
    {
      "inputs": [],
      "payable": false,
      "stateMutability": "nonpayable",
      "type": "constructor"
    },
    {
      "anonymous": false,
      "inputs": [
        {
          "indexed": true,
          "name": "previousOwner",
          "type": "address"
        },
        {
          "indexed": true,
          "name": "newOwner",
          "type": "address"
        }
      ],
      "name": "OwnershipTransferred",
      "type": "event"
    },
    {
      "constant": false,
      "inputs": [
        {
          "name": "_BTCUSDPriceFeed",
          "type": "address"
        },
        {
          "name": "_ETHUSDPriceFeed",
          "type": "address"
        }
      ],
      "name": "initialize",
      "outputs": [],
      "payable": false,
      "stateMutability": "nonpayable",
      "type": "function"
    },
    {
      "constant": true,
      "inputs": [],
      "name": "getPrice",
      "outputs": [
        {
          "name": "",
          "type": "uint256"
        }
      ],
      "payable": false,
      "stateMutability": "view",
      "type": "function"
    }
  ],
  "bytecode": "0x60806040526000805460ff60a01b1916905534801561001d57600080fd5b50600080546001600160a01b03191633178082556040516001600160a01b039190911691907f8be0079c531659141344cd1fd0a4f28419497f9722a3daafe3b4186f6b6457e0908290a36105f0806100766000396000f3fe608060405234801561001057600080fd5b50600436106100625760003560e01c8063485cc95514610067578063715018a6146100975780638da5cb5b1461009f5780638f32d59b146100c357806398d5fdca146100df578063f2fde38b146100f9575b600080fd5b6100956004803603604081101561007d57600080fd5b506001600160a01b038135811691602001351661011f565b005b61009561020f565b6100a76102b2565b604080516001600160a01b039092168252519081900360200190f35b6100cb6102c1565b604080519115158252519081900360200190f35b6100e76102d2565b60408051918252519081900360200190f35b6100956004803603602081101561010f57600080fd5b50356001600160a01b0316610407565b6101276102c1565b610178576040805162461bcd60e51b815260206004820181905260248201527f4f776e61626c653a2063616c6c6572206973206e6f7420746865206f776e6572604482015290519081900360640190fd5b600054600160a01b900460ff16156101ce576040805162461bcd60e51b815260206004820152601460248201527320b63932b0b23c9034b734ba34b0b634bd32b21760611b604482015290519081900360640190fd5b600180546001600160a01b039384166001600160a01b031991821617909155600280549290931691161790556000805460ff60a01b1916600160a01b179055565b6102176102c1565b610268576040805162461bcd60e51b815260206004820181905260248201527f4f776e61626c653a2063616c6c6572206973206e6f7420746865206f776e6572604482015290519081900360640190fd5b600080546040516001600160a01b03909116907f8be0079c531659141344cd1fd0a4f28419497f9722a3daafe3b4186f6b6457e0908390a3600080546001600160a01b0319169055565b6000546001600160a01b031690565b6000546001600160a01b0316331490565b600080600160009054906101000a90046001600160a01b03166001600160a01b03166357de26a46040518163ffffffff1660e01b815260040160206040518083038186803b15801561032357600080fd5b505afa158015610337573d6000803e3d6000fd5b505050506040513d602081101561034d57600080fd5b5051600254604080516315f789a960e21b815290516001600160801b0390931693506000926001600160a01b03909216916357de26a491600480820192602092909190829003018186803b1580156103a457600080fd5b505afa1580156103b8573d6000803e3d6000fd5b505050506040513d60208110156103ce57600080fd5b50516001600160801b03169050610400816103f4846402540be40063ffffffff61046c16565b9063ffffffff6104e216565b9250505090565b61040f6102c1565b610460576040805162461bcd60e51b815260206004820181905260248201527f4f776e61626c653a2063616c6c6572206973206e6f7420746865206f776e6572604482015290519081900360640190fd5b610469816104f5565b50565b60008261047b575060006104dc565b508181028183828161048957fe5b04146104dc576040805162461bcd60e51b815260206004820152601f60248201527f4f766572666c6f7720647572696e67206d756c7469706c69636174696f6e2e00604482015290519081900360640190fd5b92915050565b60008183816104ed57fe5b049392505050565b6001600160a01b03811661053a5760405162461bcd60e51b81526004018080602001828103825260268152602001806105966026913960400191505060405180910390fd5b600080546040516001600160a01b03808516939216917f8be0079c531659141344cd1fd0a4f28419497f9722a3daafe3b4186f6b6457e091a3600080546001600160a01b0319166001600160a01b039290921691909117905556fe4f776e61626c653a206e6577206f776e657220697320746865207a65726f2061646472657373a265627a7a72305820b1ae834b14bd7548304b1b7a3a1d534ac0c92e3542f256ffe8677a641272189264736f6c634300050a0032",
  "source": "pragma solidity ^0.5.10;\n\nimport {SafeMath} from \"@summa-tx/bitcoin-spv-sol/contracts/SafeMath.sol\";\nimport \"openzeppelin-solidity/contracts/ownership/Ownable.sol\";\nimport \"../external/IMedianizer.sol\";\nimport \"../interfaces/IBTCETHPriceFeed.sol\";\n\n/// @notice Bitcoin-Ether price feed.\n/// @dev Based on the ratio of two medianizer price feeds, BTC/USD and ETH/USD.\ncontract BTCETHPriceFeed is Ownable, IBTCETHPriceFeed {\n    using SafeMath for uint256;\n\n    bool private _initialized = false;\n\n    IMedianizer btcPriceFeed;\n    IMedianizer ethPriceFeed;\n\n    constructor() public {\n    }\n\n    /// @notice Initialises the addresses of the BTC/USD and ETH/USD price feeds.\n    /// @param _BTCUSDPriceFeed The BTC/USD price feed address.\n    /// @param _ETHUSDPriceFeed The ETH/USD price feed address.\n    function initialize(\n        address _BTCUSDPriceFeed,\n        address _ETHUSDPriceFeed\n    )\n        external onlyOwner\n    {\n        require(!_initialized, \"Already initialized.\");\n\n        btcPriceFeed = IMedianizer(_BTCUSDPriceFeed);\n        ethPriceFeed = IMedianizer(_ETHUSDPriceFeed);\n        _initialized = true;\n    }\n\n    /// @notice Get the current price of bitcoin in ether.\n    /// @dev This does not account for any 'Flippening' event.\n    /// @return The price of one satoshi in wei.\n    function getPrice()\n        external view returns (uint256)\n    {\n        // We typecast down to uint128, because the first 128 bits of\n        // the medianizer oracle value is unrelated to the price.\n        uint256 btcUsd = uint256(uint128(btcPriceFeed.read()));\n        uint256 ethUsd = uint256(uint128(ethPriceFeed.read()));\n        // The price is a ratio of bitcoin to ether is expressed as:\n        //  x btc : y eth\n        // Bitcoin has 10 decimal places, ether has 18. Normalising the units, we have:\n        //  x * 10^8 : y * 10^18\n        // Simplfying down, we can express it as:\n        //  x : y * 10^10\n        // Due to order-of-ops, we can move the multiplication to get some more precision.\n        return btcUsd.mul(10**10).div(ethUsd);\n    }\n}",
  "sourcePath": "/tmp/4dc3a1f35eb2ac0746a4afda14417a7b0cb64f6d/implementation/contracts/price-feed/BTCETHPriceFeed.sol",
  "compiler": {
    "name": "solc",
    "version": "0.5.10+commit.5a6ea5b1.Emscripten.clang"
  },
  "schemaVersion": "3.0.19",
  "updatedAt": "2020-02-06T21:47:08.799Z",
  "networkType": "ethereum",
  "devdoc": {
    "details": "Based on the ratio of two medianizer price feeds, BTC/USD and ETH/USD.",
    "methods": {
      "getPrice()": {
        "details": "This does not account for any 'Flippening' event.",
        "return": "The price of one satoshi in wei."
      },
      "initialize(address,address)": {
        "params": {
          "_BTCUSDPriceFeed": "The BTC/USD price feed address.",
          "_ETHUSDPriceFeed": "The ETH/USD price feed address."
        }
      },
      "isOwner()": {
        "details": "Returns true if the caller is the current owner."
      },
      "owner()": {
        "details": "Returns the address of the current owner."
      },
      "renounceOwnership()": {
        "details": "Leaves the contract without owner. It will not be possible to call `onlyOwner` functions anymore. Can only be called by the current owner.     * > Note: Renouncing ownership will leave the contract without an owner, thereby removing any functionality that is only available to the owner."
      },
      "transferOwnership(address)": {
        "details": "Transfers ownership of the contract to a new account (`newOwner`). Can only be called by the current owner."
      }
    }
  },
  "userdoc": {
    "methods": {
      "getPrice()": {
        "notice": "Get the current price of bitcoin in ether."
      },
      "initialize(address,address)": {
        "notice": "Initialises the addresses of the BTC/USD and ETH/USD price feeds."
      }
    },
    "notice": "Bitcoin-Ether price feed."
  }
}