{
  "contractName": "DepositLog",
  "abi": [
    {
      "anonymous": false,
      "inputs": [
        {
          "indexed": true,
          "name": "_depositContractAddress",
          "type": "address"
        },
        {
          "indexed": true,
          "name": "_keepAddress",
          "type": "address"
        },
        {
          "indexed": false,
          "name": "_timestamp",
          "type": "uint256"
        }
      ],
      "name": "Created",
      "type": "event"
    },
    {
      "anonymous": false,
      "inputs": [
        {
          "indexed": true,
          "name": "_depositContractAddress",
          "type": "address"
        },
        {
          "indexed": true,
          "name": "_requester",
          "type": "address"
        },
        {
          "indexed": true,
          "name": "_digest",
          "type": "bytes32"
        },
        {
          "indexed": false,
          "name": "_utxoSize",
          "type": "uint256"
        },
        {
          "indexed": false,
          "name": "_requesterPKH",
          "type": "bytes20"
        },
        {
          "indexed": false,
          "name": "_requestedFee",
          "type": "uint256"
        },
        {
          "indexed": false,
          "name": "_outpoint",
          "type": "bytes"
        }
      ],
      "name": "RedemptionRequested",
      "type": "event"
    },
    {
      "anonymous": false,
      "inputs": [
        {
          "indexed": true,
          "name": "_depositContractAddress",
          "type": "address"
        },
        {
          "indexed": true,
          "name": "_digest",
          "type": "bytes32"
        },
        {
          "indexed": false,
          "name": "_r",
          "type": "bytes32"
        },
        {
          "indexed": false,
          "name": "_s",
          "type": "bytes32"
        },
        {
          "indexed": false,
          "name": "_timestamp",
          "type": "uint256"
        }
      ],
      "name": "GotRedemptionSignature",
      "type": "event"
    },
    {
      "anonymous": false,
      "inputs": [
        {
          "indexed": true,
          "name": "_depositContractAddress",
          "type": "address"
        },
        {
          "indexed": false,
          "name": "_signingGroupPubkeyX",
          "type": "bytes32"
        },
        {
          "indexed": false,
          "name": "_signingGroupPubkeyY",
          "type": "bytes32"
        },
        {
          "indexed": false,
          "name": "_timestamp",
          "type": "uint256"
        }
      ],
      "name": "RegisteredPubkey",
      "type": "event"
    },
    {
      "anonymous": false,
      "inputs": [
        {
          "indexed": true,
          "name": "_depositContractAddress",
          "type": "address"
        },
        {
          "indexed": false,
          "name": "_timestamp",
          "type": "uint256"
        }
      ],
      "name": "SetupFailed",
      "type": "event"
    },
    {
      "anonymous": false,
      "inputs": [
        {
          "indexed": true,
          "name": "_depositContractAddress",
          "type": "address"
        },
        {
          "indexed": false,
          "name": "_timestamp",
          "type": "uint256"
        }
      ],
      "name": "FraudDuringSetup",
      "type": "event"
    },
    {
      "anonymous": false,
      "inputs": [
        {
          "indexed": true,
          "name": "_depositContractAddress",
          "type": "address"
        },
        {
          "indexed": false,
          "name": "_timestamp",
          "type": "uint256"
        }
      ],
      "name": "Funded",
      "type": "event"
    },
    {
      "anonymous": false,
      "inputs": [
        {
          "indexed": true,
          "name": "_depositContractAddress",
          "type": "address"
        },
        {
          "indexed": false,
          "name": "_timestamp",
          "type": "uint256"
        }
      ],
      "name": "CourtesyCalled",
      "type": "event"
    },
    {
      "anonymous": false,
      "inputs": [
        {
          "indexed": true,
          "name": "_depositContractAddress",
          "type": "address"
        },
        {
          "indexed": false,
          "name": "_timestamp",
          "type": "uint256"
        }
      ],
      "name": "ExitedCourtesyCall",
      "type": "event"
    },
    {
      "anonymous": false,
      "inputs": [
        {
          "indexed": true,
          "name": "_depositContractAddress",
          "type": "address"
        },
        {
          "indexed": false,
          "name": "_wasFraud",
          "type": "bool"
        },
        {
          "indexed": false,
          "name": "_timestamp",
          "type": "uint256"
        }
      ],
      "name": "StartedLiquidation",
      "type": "event"
    },
    {
      "anonymous": false,
      "inputs": [
        {
          "indexed": true,
          "name": "_depositContractAddress",
          "type": "address"
        },
        {
          "indexed": true,
          "name": "_txid",
          "type": "bytes32"
        },
        {
          "indexed": false,
          "name": "_timestamp",
          "type": "uint256"
        }
      ],
      "name": "Redeemed",
      "type": "event"
    },
    {
      "anonymous": false,
      "inputs": [
        {
          "indexed": true,
          "name": "_depositContractAddress",
          "type": "address"
        },
        {
          "indexed": false,
          "name": "_timestamp",
          "type": "uint256"
        }
      ],
      "name": "Liquidated",
      "type": "event"
    },
    {
      "constant": true,
      "inputs": [
        {
          "name": "_caller",
          "type": "address"
        }
      ],
      "name": "approvedToLog",
      "outputs": [
        {
          "name": "",
          "type": "bool"
        }
      ],
      "payable": false,
      "stateMutability": "view",
      "type": "function"
    },
    {
      "constant": false,
      "inputs": [
        {
          "name": "_keepAddress",
          "type": "address"
        }
      ],
      "name": "logCreated",
      "outputs": [
        {
          "name": "",
          "type": "bool"
        }
      ],
      "payable": false,
      "stateMutability": "nonpayable",
      "type": "function"
    },
    {
      "constant": false,
      "inputs": [
        {
          "name": "_requester",
          "type": "address"
        },
        {
          "name": "_digest",
          "type": "bytes32"
        },
        {
          "name": "_utxoSize",
          "type": "uint256"
        },
        {
          "name": "_requesterPKH",
          "type": "bytes20"
        },
        {
          "name": "_requestedFee",
          "type": "uint256"
        },
        {
          "name": "_outpoint",
          "type": "bytes"
        }
      ],
      "name": "logRedemptionRequested",
      "outputs": [
        {
          "name": "",
          "type": "bool"
        }
      ],
      "payable": false,
      "stateMutability": "nonpayable",
      "type": "function"
    },
    {
      "constant": false,
      "inputs": [
        {
          "name": "_digest",
          "type": "bytes32"
        },
        {
          "name": "_r",
          "type": "bytes32"
        },
        {
          "name": "_s",
          "type": "bytes32"
        }
      ],
      "name": "logGotRedemptionSignature",
      "outputs": [
        {
          "name": "",
          "type": "bool"
        }
      ],
      "payable": false,
      "stateMutability": "nonpayable",
      "type": "function"
    },
    {
      "constant": false,
      "inputs": [
        {
          "name": "_signingGroupPubkeyX",
          "type": "bytes32"
        },
        {
          "name": "_signingGroupPubkeyY",
          "type": "bytes32"
        }
      ],
      "name": "logRegisteredPubkey",
      "outputs": [
        {
          "name": "",
          "type": "bool"
        }
      ],
      "payable": false,
      "stateMutability": "nonpayable",
      "type": "function"
    },
    {
      "constant": false,
      "inputs": [],
      "name": "logSetupFailed",
      "outputs": [
        {
          "name": "",
          "type": "bool"
        }
      ],
      "payable": false,
      "stateMutability": "nonpayable",
      "type": "function"
    },
    {
      "constant": false,
      "inputs": [],
      "name": "logFraudDuringSetup",
      "outputs": [
        {
          "name": "",
          "type": "bool"
        }
      ],
      "payable": false,
      "stateMutability": "nonpayable",
      "type": "function"
    },
    {
      "constant": false,
      "inputs": [],
      "name": "logFunded",
      "outputs": [
        {
          "name": "",
          "type": "bool"
        }
      ],
      "payable": false,
      "stateMutability": "nonpayable",
      "type": "function"
    },
    {
      "constant": false,
      "inputs": [],
      "name": "logCourtesyCalled",
      "outputs": [
        {
          "name": "",
          "type": "bool"
        }
      ],
      "payable": false,
      "stateMutability": "nonpayable",
      "type": "function"
    },
    {
      "constant": false,
      "inputs": [
        {
          "name": "_wasFraud",
          "type": "bool"
        }
      ],
      "name": "logStartedLiquidation",
      "outputs": [
        {
          "name": "",
          "type": "bool"
        }
      ],
      "payable": false,
      "stateMutability": "nonpayable",
      "type": "function"
    },
    {
      "constant": false,
      "inputs": [
        {
          "name": "_txid",
          "type": "bytes32"
        }
      ],
      "name": "logRedeemed",
      "outputs": [
        {
          "name": "",
          "type": "bool"
        }
      ],
      "payable": false,
      "stateMutability": "nonpayable",
      "type": "function"
    },
    {
      "constant": false,
      "inputs": [],
      "name": "logLiquidated",
      "outputs": [
        {
          "name": "",
          "type": "bool"
        }
      ],
      "payable": false,
      "stateMutability": "nonpayable",
      "type": "function"
    },
    {
      "constant": false,
      "inputs": [],
      "name": "logExitedCourtesyCall",
      "outputs": [
        {
          "name": "",
          "type": "bool"
        }
      ],
      "payable": false,
      "stateMutability": "nonpayable",
      "type": "function"
    }
  ],
  "bytecode": "0x608060405234801561001057600080fd5b506107d8806100206000396000f3fe608060405234801561001057600080fd5b50600436106100cf5760003560e01c8063869f94691161008c578063a831c81611610066578063a831c81614610288578063c8fba24314610290578063e2c50ad814610298578063f760621e146102a0576100cf565b8063869f9469146102375780638c7365031461025a5780639ffb386214610262576100cf565b806322a147e6146100d457806322e5724c146100f0578063282bfd38146100f85780632b8af6611461011e5780633aac3467146101fb5780636e1ba2831461021a575b600080fd5b6100dc6102c9565b604080519115158252519081900360200190f35b6100dc61031d565b6100dc6004803603602081101561010e57600080fd5b50356001600160a01b0316610370565b6100dc600480360360c081101561013457600080fd5b6001600160a01b03823516916020810135916040820135916bffffffffffffffffffffffff19606082013516916080820135919081019060c0810160a082013564010000000081111561018657600080fd5b82018360208201111561019857600080fd5b803590602001918460018302840111640100000000831117156101ba57600080fd5b91908080601f0160208091040260200160405190810160405280939291908181526020018383808284376000920191909152509295506103d0945050505050565b6100dc6004803603602081101561021157600080fd5b503515156104d9565b6100dc6004803603602081101561023057600080fd5b5035610533565b6100dc6004803603604081101561024d57600080fd5b5080359060200135610589565b6100dc6105ec565b6100dc6004803603602081101561027857600080fd5b50356001600160a01b031661063f565b6100dc610645565b6100dc610698565b6100dc6106eb565b6100dc600480360360608110156102b657600080fd5b508035906020810135906040013561073e565b60006102d43361063f565b6102e05750600061031a565b60408051428152905133917f6e7b45210b79c12cd1332babd8d86c0bbb9ca898a89ce0404f17064dbfba18c0919081900360200190a25060015b90565b60006103283361063f565b6103345750600061031a565b60408051428152905133917f07f0eaafadb9abb1d28da85d4b4c74f1939fd61b535c7f5ab501f618f07e76ee919081900360200190a250600190565b600061037b3361063f565b610387575060006103cb565b6040805142815290516001600160a01b0384169133917f822b3073be62c5c7f143c2dcd71ee266434ee935d90a1eec3be34710ac8ec1a29181900360200190a35060015b919050565b60006103db3361063f565b6103e7575060006104cf565b85876001600160a01b0316336001600160a01b03167fc878d7c38ac02179fd80904f0f6c8126ea8659612f4cbb389af37ddf671eb7618888888860405180858152602001846bffffffffffffffffffffffff19166bffffffffffffffffffffffff1916815260200183815260200180602001828103825283818151815260200191508051906020019080838360005b8381101561048e578181015183820152602001610476565b50505050905090810190601f1680156104bb5780820380516001836020036101000a031916815260200191505b509550505050505060405180910390a45060015b9695505050505050565b60006104e43361063f565b6104f0575060006103cb565b604080518315158152426020820152815133927fbef11c059eefba82a15aea8a3a89c86fd08d7711c88fa7daea2632a55488510c928290030190a2506001919050565b600061053e3361063f565b61054a575060006103cb565b604080514281529051839133917f44b7f176bcc739b54bd0800fe491cbdea19df7d4d6b19c281462e6b4fc5043449181900360200190a3506001919050565b60006105943361063f565b6105a0575060006105e6565b60408051848152602081018490524281830152905133917f8ee737ab16909c4e9d1b750814a4393c9f84ab5d3a29c08c313b783fc846ae33919081900360600190a25060015b92915050565b60006105f73361063f565b6106035750600061031a565b60408051428152905133917f5af8184bef8e4b45eb9f6ed7734d04da38ced226495548f46e0c8ff8d7d9a524919081900360200190a250600190565b50600190565b60006106503361063f565b61065c5750600061031a565b60408051428152905133917f8fd2cfb62a35fccc1ecef829f83a6c2f840b73dad49d3eaaa402909752086d4b919081900360200190a250600190565b60006106a33361063f565b6106af5750600061031a565b60408051428152905133917fa5ee7a2b0254fce91deed604506790ed7fa072d0b14cba4859c3bc8955b9caac919081900360200190a250600190565b60006106f63361063f565b6107025750600061031a565b60408051428152905133917f1e61af503f1d7de21d5300094c18bf8700f82b2951a4d54dd2adda13f6b3da30919081900360200190a250600190565b60006107493361063f565b6107555750600061079c565b604080518481526020810184905242818301529051859133917f7f7d7327762d01d2c4a552ea0be2bc5a76264574a80aa78083e691a840e509f29181900360600190a35060015b939250505056fea265627a7a72305820666776fef7472ffce41c6898d85d9e441173eddf5eece7d4d0bdbb1dd16f199564736f6c634300050a0032",
  "source": "pragma solidity ^0.5.10;\n\ncontract DepositLog {\n\n    /*\n    TODO: review events, see what new information should be added\n    Logging philosophy:\n      Every state transition should fire a log\n      That log should have ALL necessary info for off-chain actors\n      Everyone should be able to ENTIRELY rely on log messages\n    */\n\n    // This event is fired when we init the deposit\n    event Created(\n        address indexed _depositContractAddress,\n        address indexed _keepAddress,\n        uint256 _timestamp\n    );\n\n    // This log event contains all info needed to rebuild the redemption tx\n    // We index on request and signers and digest\n    event RedemptionRequested(\n        address indexed _depositContractAddress,\n        address indexed _requester,\n        bytes32 indexed _digest,\n        uint256 _utxoSize,\n        bytes20 _requesterPKH,\n        uint256 _requestedFee,\n        bytes _outpoint\n    );\n\n    // This log event contains all info needed to build a witnes\n    // We index the digest so that we can search events for the other log\n    event GotRedemptionSignature(\n        address indexed _depositContractAddress,\n        bytes32 indexed _digest,\n        bytes32 _r,\n        bytes32 _s,\n        uint256 _timestamp\n    );\n\n    // This log is fired when the signing group returns a public key\n    event RegisteredPubkey(\n        address indexed _depositContractAddress,\n        bytes32 _signingGroupPubkeyX,\n        bytes32 _signingGroupPubkeyY,\n        uint256 _timestamp\n    );\n\n    // This event is fired when we enter the SETUP_FAILED state for any reason\n    event SetupFailed(address indexed _depositContractAddress, uint256 _timestamp);\n\n    // This event is fired when we detect an ECDSA fraud before seeing a funding proof\n    event FraudDuringSetup(address indexed _depositContractAddress, uint256 _timestamp);\n\n    // This event is fired when we enter the ACTIVE state\n    event Funded(address indexed _depositContractAddress, uint256 _timestamp);\n\n    // This event is called when we enter the COURTESY_CALL state\n    event CourtesyCalled(address indexed _depositContractAddress, uint256 _timestamp);\n\n    // This event is fired when we go from COURTESY_CALL to ACTIVE\n    event ExitedCourtesyCall(address indexed _depositContractAddress, uint256 _timestamp);\n\n    // This log event is fired when liquidation\n    event StartedLiquidation(\n        address indexed _depositContractAddress,\n        bool _wasFraud,\n        uint256 _timestamp\n    );\n\n    // This event is fired when the Redemption SPV proof is validated\n    event Redeemed(\n        address indexed _depositContractAddress,\n        bytes32 indexed _txid,\n        uint256 _timestamp\n    );\n\n    // This event is fired when Liquidation is completed\n    event Liquidated(\n        address indexed _depositContractAddress,\n        uint256 _timestamp\n    );\n\n    //\n    // AUTH\n    //\n\n    /// @notice             Checks if an address is an allowed logger\n    /// @dev                Calls the system to check if the caller is a Deposit\n    ///                     We don't require this, so deposits are not bricked if the system borks\n    /// @param  _caller     The address of the calling contract\n    /// @return             True if approved, otherwise false\n    /* solium-disable-next-line no-empty-blocks */\n    function approvedToLog(address _caller) public view returns (bool) {\n        /* TODO: auth via system */\n        _caller;\n        return true;\n    }\n\n    //\n    // Logging\n    //\n\n    /// @notice               Fires a Created event\n    /// @dev                  We append the sender, which is the deposit contract that called\n    /// @param  _keepAddress  The address of the associated keep\n    /// @return               True if successful, else revert\n    function logCreated(address _keepAddress) public returns (bool) {\n        if (!approvedToLog(msg.sender)) return false;\n        emit Created(\n            msg.sender,\n            _keepAddress,\n            block.timestamp);\n        return true;\n    }\n\n    /// @notice                 Fires a RedemptionRequested event\n    /// @dev                    This is the only event without an explicit timestamp\n    /// @param  _requester      The ethereum address of the requester\n    /// @param  _digest         The calculated sighash digest\n    /// @param  _utxoSize       The size of the utxo in sat\n    /// @param  _requesterPKH   The requester's 20-byte bitcoin pkh\n    /// @param  _requestedFee   The requester or bump-system specified fee\n    /// @param  _outpoint       The 36 byte outpoint\n    /// @return                 True if successful, else revert\n    function logRedemptionRequested(\n        address _requester,\n        bytes32 _digest,\n        uint256 _utxoSize,\n        bytes20 _requesterPKH,\n        uint256 _requestedFee,\n        bytes memory _outpoint\n    ) public returns (bool) {\n        if (!approvedToLog(msg.sender)) return false;\n        emit RedemptionRequested(\n            msg.sender,\n            _requester,\n            _digest,\n            _utxoSize,\n            _requesterPKH,\n            _requestedFee,\n            _outpoint);\n        return true;\n    }\n\n    /// @notice         Fires a GotRedemptionSignature event\n    /// @dev            We append the sender, which is the deposit contract that called\n    /// @param  _digest signed digest\n    /// @param  _r      signature r value\n    /// @param  _s      signature s value\n    /// @return         True if successful, else revert\n    function logGotRedemptionSignature(\n        bytes32 _digest,\n        bytes32 _r,\n        bytes32 _s\n    ) public returns (bool) {\n        if (!approvedToLog(msg.sender)) return false;\n        emit GotRedemptionSignature(\n            msg.sender,\n            _digest,\n            _r,\n            _s,\n            block.timestamp);\n        return true;\n    }\n\n    /// @notice     Fires a RegisteredPubkey event\n    /// @dev        We append the sender, which is the deposit contract that called\n    ///             returns false if not approved, to prevent accidentally halting Deposit\n    /// @return     True if successful, else false\n    function logRegisteredPubkey(\n        bytes32 _signingGroupPubkeyX,\n        bytes32 _signingGroupPubkeyY\n    ) public returns (bool) {\n        if (!approvedToLog(msg.sender)) return false;\n        emit RegisteredPubkey(\n            msg.sender,\n            _signingGroupPubkeyX,\n            _signingGroupPubkeyY,\n            block.timestamp);\n        return true;\n    }\n\n    /// @notice     Fires a SetupFailed event\n    /// @dev        We append the sender, which is the deposit contract that called\n    ///             returns false if not approved, to prevent accidentally halting Deposit\n    /// @return     True if successful, else false\n    function logSetupFailed() public returns (bool) {\n        if (!approvedToLog(msg.sender)) return false;\n        emit SetupFailed(\n            msg.sender,\n            block.timestamp);\n        return true;\n    }\n\n    /// @notice     Fires a FraudDuringSetup event\n    /// @dev        We append the sender, which is the deposit contract that called\n    ///             returns false if not approved, to prevent accidentally halting Deposit\n    /// @return     True if successful, else false\n    function logFraudDuringSetup() public returns (bool) {\n        if (!approvedToLog(msg.sender)) return false;\n        emit FraudDuringSetup(\n            msg.sender,\n            block.timestamp);\n        return true;\n    }\n\n    /// @notice     Fires a Funded event\n    /// @dev        We append the sender, which is the deposit contract that called\n    ///             returns false if not approved, to prevent accidentally halting Deposit\n    /// @return     True if successful, else false\n    function logFunded() public returns (bool) {\n        if (!approvedToLog(msg.sender)) return false;\n        emit Funded(\n            msg.sender,\n            block.timestamp);\n        return true;\n    }\n\n    /// @notice     Fires a CourtesyCalled event\n    /// @dev        We append the sender, which is the deposit contract that called\n    ///             returns false if not approved, to prevent accidentally halting Deposit\n    /// @return     True if successful, else false\n    function logCourtesyCalled() public returns (bool) {\n        if (!approvedToLog(msg.sender)) return false;\n        emit CourtesyCalled(\n            msg.sender,\n            block.timestamp);\n        return true;\n    }\n\n    /// @notice             Fires a StartedLiquidation event\n    /// @dev                We append the sender, which is the deposit contract that called\n    /// @param _wasFraud    True if liquidating for fraud\n    /// @return             True if successful, else revert\n    function logStartedLiquidation(bool _wasFraud) public returns (bool) {\n        if (!approvedToLog(msg.sender)) return false;\n        emit StartedLiquidation(\n            msg.sender,\n            _wasFraud,\n            block.timestamp);\n        return true;\n    }\n\n    /// @notice     Fires a Redeemed event\n    /// @dev        We append the sender, which is the deposit contract that called\n    ///             returns false if not approved, to prevent accidentally halting Deposit\n    /// @return     True if successful, else false\n    function logRedeemed(bytes32 _txid) public returns (bool) {\n        if (!approvedToLog(msg.sender)) return false;\n        emit Redeemed(\n            msg.sender,\n            _txid,\n            block.timestamp);\n        return true;\n    }\n\n    /// @notice     Fires a Liquidated event\n    /// @dev        We append the sender, which is the deposit contract that called\n    ///             returns false if not approved, to prevent accidentally halting Deposit\n    /// @return     True if successful, else false\n    function logLiquidated() public returns (bool) {\n        if (!approvedToLog(msg.sender)) return false;\n        emit Liquidated(\n            msg.sender,\n            block.timestamp);\n        return true;\n    }\n\n    /// @notice     Fires a ExitedCourtesyCall event\n    /// @dev        We append the sender, which is the deposit contract that called\n    ///             returns false if not approved, to prevent accidentally halting Deposit\n    /// @return     True if successful, else false\n    function logExitedCourtesyCall() public returns (bool) {\n        if (!approvedToLog(msg.sender)) return false;\n        emit ExitedCourtesyCall(\n            msg.sender,\n            block.timestamp);\n        return true;\n    }\n}\n",
  "sourcePath": "/tmp/4dc3a1f35eb2ac0746a4afda14417a7b0cb64f6d/implementation/contracts/DepositLog.sol",
  "compiler": {
    "name": "solc",
    "version": "0.5.10+commit.5a6ea5b1.Emscripten.clang"
  },
  "schemaVersion": "3.0.19",
  "updatedAt": "2020-02-06T21:45:07.895Z",
  "networkType": "ethereum",
  "devdoc": {
    "methods": {
      "approvedToLog(address)": {
        "details": "Calls the system to check if the caller is a Deposit                     We don't require this, so deposits are not bricked if the system borks",
        "params": {
          "_caller": "The address of the calling contract"
        },
        "return": "True if approved, otherwise false"
      },
      "logCourtesyCalled()": {
        "details": "We append the sender, which is the deposit contract that called             returns false if not approved, to prevent accidentally halting Deposit",
        "return": "True if successful, else false"
      },
      "logCreated(address)": {
        "details": "We append the sender, which is the deposit contract that called",
        "params": {
          "_keepAddress": "The address of the associated keep"
        },
        "return": "True if successful, else revert"
      },
      "logExitedCourtesyCall()": {
        "details": "We append the sender, which is the deposit contract that called             returns false if not approved, to prevent accidentally halting Deposit",
        "return": "True if successful, else false"
      },
      "logFraudDuringSetup()": {
        "details": "We append the sender, which is the deposit contract that called             returns false if not approved, to prevent accidentally halting Deposit",
        "return": "True if successful, else false"
      },
      "logFunded()": {
        "details": "We append the sender, which is the deposit contract that called             returns false if not approved, to prevent accidentally halting Deposit",
        "return": "True if successful, else false"
      },
      "logGotRedemptionSignature(bytes32,bytes32,bytes32)": {
        "details": "We append the sender, which is the deposit contract that called",
        "params": {
          "_digest": "signed digest",
          "_r": "signature r value",
          "_s": "signature s value"
        },
        "return": "True if successful, else revert"
      },
      "logLiquidated()": {
        "details": "We append the sender, which is the deposit contract that called             returns false if not approved, to prevent accidentally halting Deposit",
        "return": "True if successful, else false"
      },
      "logRedeemed(bytes32)": {
        "details": "We append the sender, which is the deposit contract that called             returns false if not approved, to prevent accidentally halting Deposit",
        "return": "True if successful, else false"
      },
      "logRedemptionRequested(address,bytes32,uint256,bytes20,uint256,bytes)": {
        "details": "This is the only event without an explicit timestamp",
        "params": {
          "_digest": "The calculated sighash digest",
          "_outpoint": "The 36 byte outpoint",
          "_requestedFee": "The requester or bump-system specified fee",
          "_requester": "The ethereum address of the requester",
          "_requesterPKH": "The requester's 20-byte bitcoin pkh",
          "_utxoSize": "The size of the utxo in sat"
        },
        "return": "True if successful, else revert"
      },
      "logRegisteredPubkey(bytes32,bytes32)": {
        "details": "We append the sender, which is the deposit contract that called             returns false if not approved, to prevent accidentally halting Deposit",
        "return": "True if successful, else false"
      },
      "logSetupFailed()": {
        "details": "We append the sender, which is the deposit contract that called             returns false if not approved, to prevent accidentally halting Deposit",
        "return": "True if successful, else false"
      },
      "logStartedLiquidation(bool)": {
        "details": "We append the sender, which is the deposit contract that called",
        "params": {
          "_wasFraud": "True if liquidating for fraud"
        },
        "return": "True if successful, else revert"
      }
    }
  },
  "userdoc": {
    "methods": {
      "approvedToLog(address)": {
        "notice": "Checks if an address is an allowed logger"
      },
      "logCourtesyCalled()": {
        "notice": "Fires a CourtesyCalled event"
      },
      "logCreated(address)": {
        "notice": "Fires a Created event"
      },
      "logExitedCourtesyCall()": {
        "notice": "Fires a ExitedCourtesyCall event"
      },
      "logFraudDuringSetup()": {
        "notice": "Fires a FraudDuringSetup event"
      },
      "logFunded()": {
        "notice": "Fires a Funded event"
      },
      "logGotRedemptionSignature(bytes32,bytes32,bytes32)": {
        "notice": "Fires a GotRedemptionSignature event"
      },
      "logLiquidated()": {
        "notice": "Fires a Liquidated event"
      },
      "logRedeemed(bytes32)": {
        "notice": "Fires a Redeemed event"
      },
      "logRedemptionRequested(address,bytes32,uint256,bytes20,uint256,bytes)": {
        "notice": "Fires a RedemptionRequested event"
      },
      "logRegisteredPubkey(bytes32,bytes32)": {
        "notice": "Fires a RegisteredPubkey event"
      },
      "logSetupFailed()": {
        "notice": "Fires a SetupFailed event"
      },
      "logStartedLiquidation(bool)": {
        "notice": "Fires a StartedLiquidation event"
      }
    }
  }
}