{
  "contractName": "Deposit",
  "abi": [
    {
      "inputs": [],
      "payable": false,
      "stateMutability": "nonpayable",
      "type": "constructor"
    },
    {
      "payable": true,
      "stateMutability": "payable",
      "type": "fallback"
    },
    {
      "constant": true,
      "inputs": [],
      "name": "getCurrentState",
      "outputs": [
        {
          "name": "",
          "type": "uint256"
        }
      ],
      "payable": false,
      "stateMutability": "view",
      "type": "function"
    },
    {
      "constant": true,
      "inputs": [],
      "name": "inActive",
      "outputs": [
        {
          "name": "",
          "type": "bool"
        }
      ],
      "payable": false,
      "stateMutability": "view",
      "type": "function"
    },
    {
      "constant": true,
      "inputs": [],
      "name": "remainingTerm",
      "outputs": [
        {
          "name": "",
          "type": "uint256"
        }
      ],
      "payable": false,
      "stateMutability": "view",
      "type": "function"
    },
    {
      "constant": true,
      "inputs": [],
      "name": "signerFee",
      "outputs": [
        {
          "name": "",
          "type": "uint256"
        }
      ],
      "payable": false,
      "stateMutability": "view",
      "type": "function"
    },
    {
      "constant": true,
      "inputs": [],
      "name": "lotSizeSatoshis",
      "outputs": [
        {
          "name": "",
          "type": "uint256"
        }
      ],
      "payable": false,
      "stateMutability": "view",
      "type": "function"
    },
    {
      "constant": true,
      "inputs": [],
      "name": "lotSizeTbtc",
      "outputs": [
        {
          "name": "",
          "type": "uint256"
        }
      ],
      "payable": false,
      "stateMutability": "view",
      "type": "function"
    },
    {
      "constant": true,
      "inputs": [],
      "name": "utxoSize",
      "outputs": [
        {
          "name": "",
          "type": "uint256"
        }
      ],
      "payable": false,
      "stateMutability": "view",
      "type": "function"
    },
    {
      "constant": false,
      "inputs": [
        {
          "name": "_TBTCSystem",
          "type": "address"
        },
        {
          "name": "_TBTCToken",
          "type": "address"
        },
        {
          "name": "_TBTCDepositToken",
          "type": "address"
        },
        {
          "name": "_FeeRebateToken",
          "type": "address"
        },
        {
          "name": "_VendingMachine",
          "type": "address"
        },
        {
          "name": "_m",
          "type": "uint256"
        },
        {
          "name": "_n",
          "type": "uint256"
        },
        {
          "name": "_lotSize",
          "type": "uint256"
        }
      ],
      "name": "createNewDeposit",
      "outputs": [
        {
          "name": "",
          "type": "bool"
        }
      ],
      "payable": true,
      "stateMutability": "payable",
      "type": "function"
    },
    {
      "constant": false,
      "inputs": [
        {
          "name": "_outputValueBytes",
          "type": "bytes8"
        },
        {
          "name": "_redeemerPKH",
          "type": "bytes20"
        }
      ],
      "name": "requestRedemption",
      "outputs": [
        {
          "name": "",
          "type": "bool"
        }
      ],
      "payable": false,
      "stateMutability": "nonpayable",
      "type": "function"
    },
    {
      "constant": false,
      "inputs": [
        {
          "name": "_outputValueBytes",
          "type": "bytes8"
        },
        {
          "name": "_redeemerPKH",
          "type": "bytes20"
        },
        {
          "name": "_finalRecipient",
          "type": "address"
        }
      ],
      "name": "transferAndRequestRedemption",
      "outputs": [
        {
          "name": "",
          "type": "bool"
        }
      ],
      "payable": false,
      "stateMutability": "nonpayable",
      "type": "function"
    },
    {
      "constant": true,
      "inputs": [
        {
          "name": "_redeemer",
          "type": "address"
        }
      ],
      "name": "getRedemptionTbtcRequirement",
      "outputs": [
        {
          "name": "",
          "type": "uint256"
        }
      ],
      "payable": false,
      "stateMutability": "view",
      "type": "function"
    },
    {
      "constant": true,
      "inputs": [
        {
          "name": "_redeemer",
          "type": "address"
        }
      ],
      "name": "getOwnerRedemptionTbtcRequirement",
      "outputs": [
        {
          "name": "",
          "type": "uint256"
        }
      ],
      "payable": false,
      "stateMutability": "view",
      "type": "function"
    },
    {
      "constant": false,
      "inputs": [
        {
          "name": "_v",
          "type": "uint8"
        },
        {
          "name": "_r",
          "type": "bytes32"
        },
        {
          "name": "_s",
          "type": "bytes32"
        }
      ],
      "name": "provideRedemptionSignature",
      "outputs": [
        {
          "name": "",
          "type": "bool"
        }
      ],
      "payable": false,
      "stateMutability": "nonpayable",
      "type": "function"
    },
    {
      "constant": false,
      "inputs": [
        {
          "name": "_previousOutputValueBytes",
          "type": "bytes8"
        },
        {
          "name": "_newOutputValueBytes",
          "type": "bytes8"
        }
      ],
      "name": "increaseRedemptionFee",
      "outputs": [
        {
          "name": "",
          "type": "bool"
        }
      ],
      "payable": false,
      "stateMutability": "nonpayable",
      "type": "function"
    },
    {
      "constant": false,
      "inputs": [
        {
          "name": "_txVersion",
          "type": "bytes4"
        },
        {
          "name": "_txInputVector",
          "type": "bytes"
        },
        {
          "name": "_txOutputVector",
          "type": "bytes"
        },
        {
          "name": "_txLocktime",
          "type": "bytes4"
        },
        {
          "name": "_merkleProof",
          "type": "bytes"
        },
        {
          "name": "_txIndexInBlock",
          "type": "uint256"
        },
        {
          "name": "_bitcoinHeaders",
          "type": "bytes"
        }
      ],
      "name": "provideRedemptionProof",
      "outputs": [
        {
          "name": "",
          "type": "bool"
        }
      ],
      "payable": false,
      "stateMutability": "nonpayable",
      "type": "function"
    },
    {
      "constant": false,
      "inputs": [],
      "name": "notifySignatureTimeout",
      "outputs": [
        {
          "name": "",
          "type": "bool"
        }
      ],
      "payable": false,
      "stateMutability": "nonpayable",
      "type": "function"
    },
    {
      "constant": false,
      "inputs": [],
      "name": "notifyRedemptionProofTimeout",
      "outputs": [
        {
          "name": "",
          "type": "bool"
        }
      ],
      "payable": false,
      "stateMutability": "nonpayable",
      "type": "function"
    },
    {
      "constant": false,
      "inputs": [],
      "name": "notifySignerSetupFailure",
      "outputs": [
        {
          "name": "",
          "type": "bool"
        }
      ],
      "payable": false,
      "stateMutability": "nonpayable",
      "type": "function"
    },
    {
      "constant": false,
      "inputs": [],
      "name": "retrieveSignerPubkey",
      "outputs": [
        {
          "name": "",
          "type": "bool"
        }
      ],
      "payable": false,
      "stateMutability": "nonpayable",
      "type": "function"
    },
    {
      "constant": false,
      "inputs": [],
      "name": "notifyFundingTimeout",
      "outputs": [
        {
          "name": "",
          "type": "bool"
        }
      ],
      "payable": false,
      "stateMutability": "nonpayable",
      "type": "function"
    },
    {
      "constant": false,
      "inputs": [
        {
          "name": "_v",
          "type": "uint8"
        },
        {
          "name": "_r",
          "type": "bytes32"
        },
        {
          "name": "_s",
          "type": "bytes32"
        },
        {
          "name": "_signedDigest",
          "type": "bytes32"
        },
        {
          "name": "_preimage",
          "type": "bytes"
        }
      ],
      "name": "provideFundingECDSAFraudProof",
      "outputs": [
        {
          "name": "",
          "type": "bool"
        }
      ],
      "payable": false,
      "stateMutability": "nonpayable",
      "type": "function"
    },
    {
      "constant": false,
      "inputs": [],
      "name": "notifyFraudFundingTimeout",
      "outputs": [
        {
          "name": "",
          "type": "bool"
        }
      ],
      "payable": false,
      "stateMutability": "nonpayable",
      "type": "function"
    },
    {
      "constant": false,
      "inputs": [
        {
          "name": "_txVersion",
          "type": "bytes4"
        },
        {
          "name": "_txInputVector",
          "type": "bytes"
        },
        {
          "name": "_txOutputVector",
          "type": "bytes"
        },
        {
          "name": "_txLocktime",
          "type": "bytes4"
        },
        {
          "name": "_fundingOutputIndex",
          "type": "uint8"
        },
        {
          "name": "_merkleProof",
          "type": "bytes"
        },
        {
          "name": "_txIndexInBlock",
          "type": "uint256"
        },
        {
          "name": "_bitcoinHeaders",
          "type": "bytes"
        }
      ],
      "name": "provideFraudBTCFundingProof",
      "outputs": [
        {
          "name": "",
          "type": "bool"
        }
      ],
      "payable": false,
      "stateMutability": "nonpayable",
      "type": "function"
    },
    {
      "constant": false,
      "inputs": [
        {
          "name": "_txVersion",
          "type": "bytes4"
        },
        {
          "name": "_txInputVector",
          "type": "bytes"
        },
        {
          "name": "_txOutputVector",
          "type": "bytes"
        },
        {
          "name": "_txLocktime",
          "type": "bytes4"
        },
        {
          "name": "_fundingOutputIndex",
          "type": "uint8"
        },
        {
          "name": "_merkleProof",
          "type": "bytes"
        },
        {
          "name": "_txIndexInBlock",
          "type": "uint256"
        },
        {
          "name": "_bitcoinHeaders",
          "type": "bytes"
        }
      ],
      "name": "provideBTCFundingProof",
      "outputs": [
        {
          "name": "",
          "type": "bool"
        }
      ],
      "payable": false,
      "stateMutability": "nonpayable",
      "type": "function"
    },
    {
      "constant": false,
      "inputs": [
        {
          "name": "_v",
          "type": "uint8"
        },
        {
          "name": "_r",
          "type": "bytes32"
        },
        {
          "name": "_s",
          "type": "bytes32"
        },
        {
          "name": "_signedDigest",
          "type": "bytes32"
        },
        {
          "name": "_preimage",
          "type": "bytes"
        }
      ],
      "name": "provideECDSAFraudProof",
      "outputs": [
        {
          "name": "",
          "type": "bool"
        }
      ],
      "payable": false,
      "stateMutability": "nonpayable",
      "type": "function"
    },
    {
      "constant": false,
      "inputs": [
        {
          "name": "_txVersion",
          "type": "bytes4"
        },
        {
          "name": "_txInputVector",
          "type": "bytes"
        },
        {
          "name": "_txOutputVector",
          "type": "bytes"
        },
        {
          "name": "_txLocktime",
          "type": "bytes4"
        },
        {
          "name": "_merkleProof",
          "type": "bytes"
        },
        {
          "name": "_txIndexInBlock",
          "type": "uint256"
        },
        {
          "name": "_targetInputIndex",
          "type": "uint8"
        },
        {
          "name": "_bitcoinHeaders",
          "type": "bytes"
        }
      ],
      "name": "provideSPVFraudProof",
      "outputs": [
        {
          "name": "",
          "type": "bool"
        }
      ],
      "payable": false,
      "stateMutability": "nonpayable",
      "type": "function"
    },
    {
      "constant": false,
      "inputs": [],
      "name": "purchaseSignerBondsAtAuction",
      "outputs": [
        {
          "name": "",
          "type": "bool"
        }
      ],
      "payable": false,
      "stateMutability": "nonpayable",
      "type": "function"
    },
    {
      "constant": false,
      "inputs": [],
      "name": "notifyCourtesyCall",
      "outputs": [
        {
          "name": "",
          "type": "bool"
        }
      ],
      "payable": false,
      "stateMutability": "nonpayable",
      "type": "function"
    },
    {
      "constant": false,
      "inputs": [],
      "name": "exitCourtesyCall",
      "outputs": [
        {
          "name": "",
          "type": "bool"
        }
      ],
      "payable": false,
      "stateMutability": "nonpayable",
      "type": "function"
    },
    {
      "constant": false,
      "inputs": [],
      "name": "notifyUndercollateralizedLiquidation",
      "outputs": [
        {
          "name": "",
          "type": "bool"
        }
      ],
      "payable": false,
      "stateMutability": "nonpayable",
      "type": "function"
    },
    {
      "constant": false,
      "inputs": [],
      "name": "notifyCourtesyTimeout",
      "outputs": [
        {
          "name": "",
          "type": "bool"
        }
      ],
      "payable": false,
      "stateMutability": "nonpayable",
      "type": "function"
    },
    {
      "constant": false,
      "inputs": [],
      "name": "notifyDepositExpiryCourtesyCall",
      "outputs": [
        {
          "name": "",
          "type": "bool"
        }
      ],
      "payable": false,
      "stateMutability": "nonpayable",
      "type": "function"
    }
  ],
  "bytecode": "0x608060405234801561001057600080fd5b50612983806100206000396000f3fe6080604052600436106101e35760003560e01c806396aab31111610102578063d459c41611610095578063e46f739511610064578063e46f73951461106d578063e6d6aaba14611082578063ea3db25014611097578063f97a02fa146110ac576101e3565b8063d459c41614610a90578063d5eef97114610cfb578063d8d0233014610dc7578063d9f74b0e14610dfa576101e3565b8063b4bd2e7a116100d1578063b4bd2e7a146109fa578063c1b8736814610a0f578063c415955914610a24578063d02fd95814610a5d576101e3565b806396aab311146106dd5780639894d734146106f2578063ac563be91461072e578063b4a5671f146109a1576101e3565b806375030f9c1161017a578063902d2ead11610149578063902d2ead1461064b57806390a2f68714610660578063946fbf4c1461067557806394bda84c1461068a576101e3565b806375030f9c1461036a5780637d18eed91461037f57806380be47d4146103c35780638a68db6514610636576101e3565b806334cf5283116101b657806334cf52831461030457806335bc0ebe14610319578063378aa7011461034057806372ed2b4a14610355576101e3565b806306d6bf1a146101e5578063287b32e51461020e5780632c735daa146102235780632d09944214610238575b005b3480156101f157600080fd5b506101fa6110c1565b604080519115158252519081900360200190f35b34801561021a57600080fd5b506101fa611133565b34801561022f57600080fd5b506101fa611186565b34801561024457600080fd5b506101fa600480360360a081101561025b57600080fd5b60ff8235169160208101359160408201359160608101359181019060a081016080820135600160201b81111561029057600080fd5b8201836020820111156102a257600080fd5b803590602001918460018302840111600160201b831117156102c357600080fd5b91908080601f0160208091040260200160405190810160405280939291908181526020018383808284376000920191909152509295506111d9945050505050565b34801561031057600080fd5b506101fa6112e0565b34801561032557600080fd5b5061032e611333565b60408051918252519081900360200190f35b34801561034c57600080fd5b5061032e6113b7565b34801561036157600080fd5b506101fa6113c0565b34801561037657600080fd5b5061032e611413565b34801561038b57600080fd5b506101fa600480360360408110156103a257600080fd5b5080356001600160c01b03191690602001356001600160601b031916611466565b3480156103cf57600080fd5b506101fa60048036036101008110156103e757600080fd5b6001600160e01b03198235169190810190604081016020820135600160201b81111561041257600080fd5b82018360208201111561042457600080fd5b803590602001918460018302840111600160201b8311171561044557600080fd5b91908080601f0160208091040260200160405190810160405280939291908181526020018383808284376000920191909152509295949360208101935035915050600160201b81111561049757600080fd5b8201836020820111156104a957600080fd5b803590602001918460018302840111600160201b831117156104ca57600080fd5b91908080601f01602080910402602001604051908101604052809392919081815260200183838082843760009201919091525092956001600160e01b0319853516959094909350604081019250602001359050600160201b81111561052e57600080fd5b82018360208201111561054057600080fd5b803590602001918460018302840111600160201b8311171561056157600080fd5b91908080601f016020809104026020016040519081016040528093929190818152602001838380828437600092019190915250929584359560ff60208701351695919450925060608101915060400135600160201b8111156105c257600080fd5b8201836020820111156105d457600080fd5b803590602001918460018302840111600160201b831117156105f557600080fd5b91908080601f0160208091040260200160405190810160405280939291908181526020018383808284376000920191909152509295506114fc945050505050565b34801561064257600080fd5b506101fa611763565b34801561065757600080fd5b506101fa6117b6565b34801561066c57600080fd5b5061032e611809565b34801561068157600080fd5b5061032e61180f565b34801561069657600080fd5b506101fa600480360360608110156106ad57600080fd5b5080356001600160c01b0319169060208101356001600160601b03191690604001356001600160a01b0316611862565b3480156106e957600080fd5b506101fa611906565b3480156106fe57600080fd5b506101fa6004803603604081101561071557600080fd5b506001600160c01b031981358116916020013516611959565b34801561073a57600080fd5b506101fa600480360361010081101561075257600080fd5b6001600160e01b03198235169190810190604081016020820135600160201b81111561077d57600080fd5b82018360208201111561078f57600080fd5b803590602001918460018302840111600160201b831117156107b057600080fd5b91908080601f0160208091040260200160405190810160405280939291908181526020018383808284376000920191909152509295949360208101935035915050600160201b81111561080257600080fd5b82018360208201111561081457600080fd5b803590602001918460018302840111600160201b8311171561083557600080fd5b91908080601f01602080910402602001604051908101604052809392919081815260200183838082843760009201919091525092956001600160e01b03198535169560ff60208701351695919450925060608101915060400135600160201b8111156108a057600080fd5b8201836020820111156108b257600080fd5b803590602001918460018302840111600160201b831117156108d357600080fd5b91908080601f01602080910402602001604051908101604052809392919081815260200183838082843760009201919091525092958435959094909350604081019250602001359050600160201b81111561092d57600080fd5b82018360208201111561093f57600080fd5b803590602001918460018302840111600160201b8311171561096057600080fd5b91908080601f0160208091040260200160405190810160405280939291908181526020018383808284376000920191909152509295506119f8945050505050565b6101fa60048036036101008110156109b857600080fd5b506001600160a01b0381358116916020810135821691604082013581169160608101358216916080820135169060a08101359060c08101359060e00135611c73565b348015610a0657600080fd5b506101fa611d2a565b348015610a1b57600080fd5b506101fa611d7d565b348015610a3057600080fd5b506101fa60048036036060811015610a4757600080fd5b5060ff8135169060208101359060400135611dd0565b348015610a6957600080fd5b5061032e60048036036020811015610a8057600080fd5b50356001600160a01b0316611e3a565b348015610a9c57600080fd5b506101fa600480360360e0811015610ab357600080fd5b6001600160e01b03198235169190810190604081016020820135600160201b811115610ade57600080fd5b820183602082011115610af057600080fd5b803590602001918460018302840111600160201b83111715610b1157600080fd5b91908080601f0160208091040260200160405190810160405280939291908181526020018383808284376000920191909152509295949360208101935035915050600160201b811115610b6357600080fd5b820183602082011115610b7557600080fd5b803590602001918460018302840111600160201b83111715610b9657600080fd5b91908080601f01602080910402602001604051908101604052809392919081815260200183838082843760009201919091525092956001600160e01b0319853516959094909350604081019250602001359050600160201b811115610bfa57600080fd5b820183602082011115610c0c57600080fd5b803590602001918460018302840111600160201b83111715610c2d57600080fd5b91908080601f01602080910402602001604051908101604052809392919081815260200183838082843760009201919091525092958435959094909350604081019250602001359050600160201b811115610c8757600080fd5b820183602082011115610c9957600080fd5b803590602001918460018302840111600160201b83111715610cba57600080fd5b91908080601f016020809104026020016040519081016040528093929190818152602001838380828437600092019190915250929550611e54945050505050565b348015610d0757600080fd5b506101fa600480360360a0811015610d1e57600080fd5b60ff8235169160208101359160408201359160608101359181019060a081016080820135600160201b811115610d5357600080fd5b820183602082011115610d6557600080fd5b803590602001918460018302840111600160201b83111715610d8657600080fd5b91908080601f0160208091040260200160405190810160405280939291908181526020018383808284376000920191909152509295506120ac945050505050565b348015610dd357600080fd5b5061032e60048036036020811015610dea57600080fd5b50356001600160a01b031661213f565b348015610e0657600080fd5b506101fa6004803603610100811015610e1e57600080fd5b6001600160e01b03198235169190810190604081016020820135600160201b811115610e4957600080fd5b820183602082011115610e5b57600080fd5b803590602001918460018302840111600160201b83111715610e7c57600080fd5b91908080601f0160208091040260200160405190810160405280939291908181526020018383808284376000920191909152509295949360208101935035915050600160201b811115610ece57600080fd5b820183602082011115610ee057600080fd5b803590602001918460018302840111600160201b83111715610f0157600080fd5b91908080601f01602080910402602001604051908101604052809392919081815260200183838082843760009201919091525092956001600160e01b03198535169560ff60208701351695919450925060608101915060400135600160201b811115610f6c57600080fd5b820183602082011115610f7e57600080fd5b803590602001918460018302840111600160201b83111715610f9f57600080fd5b91908080601f01602080910402602001604051908101604052809392919081815260200183838082843760009201919091525092958435959094909350604081019250602001359050600160201b811115610ff957600080fd5b82018360208201111561100b57600080fd5b803590602001918460018302840111600160201b8311171561102c57600080fd5b91908080601f016020809104026020016040519081016040528093929190818152602001838380828437600092019190915250929550612151945050505050565b34801561107957600080fd5b5061032e61221b565b34801561108e57600080fd5b506101fa61226e565b3480156110a357600080fd5b506101fa6122c1565b3480156110b857600080fd5b506101fa612314565b60008073__DepositFunding________________________63490f787190916040518263ffffffff1660e01b81526004018082815260200191505060006040518083038186803b15801561111457600080fd5b505af4158015611128573d6000803e3d6000fd5b505050506001905090565b60008073__DepositLiquidation____________________633bd675c890916040518263ffffffff1660e01b81526004018082815260200191505060006040518083038186803b15801561111457600080fd5b60008073__DepositLiquidation____________________632ea8450690916040518263ffffffff1660e01b81526004018082815260200191505060006040518083038186803b15801561111457600080fd5b60008073__DepositFunding________________________63fb12d9df909188888888886040518763ffffffff1660e01b8152600401808781526020018660ff1660ff16815260200185815260200184815260200183815260200180602001828103825283818151815260200191508051906020019080838360005b8381101561126d578181015183820152602001611255565b50505050905090810190601f16801561129a5780820380516001836020036101000a031916815260200191505b5097505050505050505060006040518083038186803b1580156112bc57600080fd5b505af41580156112d0573d6000803e3d6000fd5b5060019998505050505050505050565b60008073__DepositRedemption_____________________63cd53895490916040518263ffffffff1660e01b81526004018082815260200191505060006040518083038186803b15801561111457600080fd5b60008073__DepositUtils__________________________6391f88c8590916040518263ffffffff1660e01b81526004018082815260200191505060206040518083038186803b15801561138657600080fd5b505af415801561139a573d6000803e3d6000fd5b505050506040513d60208110156113b057600080fd5b5051905090565b60065460ff1690565b60008073__DepositLiquidation____________________63a43c845b90916040518263ffffffff1660e01b81526004018082815260200191505060006040518083038186803b15801561111457600080fd5b60008073__DepositUtils__________________________63c02a309590916040518263ffffffff1660e01b81526004018082815260200191505060206040518083038186803b15801561138657600080fd5b60408051637544b12560e11b81526000600482018190526001600160c01b0319851660248301526001600160601b031984166044830152915173__DepositRedemption_____________________9163ea89624a9160648083019286929190829003018186803b1580156114d957600080fd5b505af41580156114ed573d6000803e3d6000fd5b50505050600190505b92915050565b60008073__DepositLiquidation____________________63b9f853f890918b8b8b8b8b8b8b8b6040518a63ffffffff1660e01b8152600401808a8152602001896001600160e01b0319166001600160e01b03191681526020018060200180602001886001600160e01b0319166001600160e01b0319168152602001806020018781526020018660ff1660ff1681526020018060200185810385528c818151815260200191508051906020019080838360005b838110156115c75781810151838201526020016115af565b50505050905090810190601f1680156115f45780820380516001836020036101000a031916815260200191505b5085810384528b5181528b516020918201918d019080838360005b8381101561162757818101518382015260200161160f565b50505050905090810190601f1680156116545780820380516001836020036101000a031916815260200191505b5085810383528951815289516020918201918b019080838360005b8381101561168757818101518382015260200161166f565b50505050905090810190601f1680156116b45780820380516001836020036101000a031916815260200191505b50858103825286518152865160209182019188019080838360005b838110156116e75781810151838201526020016116cf565b50505050905090810190601f1680156117145780820380516001836020036101000a031916815260200191505b509d505050505050505050505050505060006040518083038186803b15801561173c57600080fd5b505af4158015611750573d6000803e3d6000fd5b5060019c9b505050505050505050505050565b60008073__DepositRedemption_____________________635976635790916040518263ffffffff1660e01b81526004018082815260200191505060006040518083038186803b15801561111457600080fd5b60008073__DepositLiquidation____________________63c396a1f490916040518263ffffffff1660e01b81526004018082815260200191505060006040518083038186803b15801561111457600080fd5b60055490565b60008073__DepositUtils__________________________637949c2d290916040518263ffffffff1660e01b81526004018082815260200191505060206040518083038186803b15801561138657600080fd5b604080516332f702bf60e01b81526000600482018190526001600160c01b0319861660248301526001600160601b0319851660448301526001600160a01b0384166064830152915173__DepositRedemption_____________________916332f702bf9160848083019286929190829003018186803b1580156118e457600080fd5b505af41580156118f8573d6000803e3d6000fd5b506001979650505050505050565b60008073__DepositLiquidation____________________63a221542190916040518263ffffffff1660e01b81526004018082815260200191505060006040518083038186803b15801561111457600080fd5b60408051632d0c21bf60e01b81526000600482018190526001600160c01b0319808616602484015284166044830152915173__DepositRedemption_____________________91632d0c21bf916064808301926020929190829003018186803b1580156119c557600080fd5b505af41580156119d9573d6000803e3d6000fd5b505050506040513d60208110156119ef57600080fd5b50519392505050565b60008073__DepositFunding________________________63f8e39deb90918b8b8b8b8b8b8b8b6040518a63ffffffff1660e01b8152600401808a8152602001896001600160e01b0319166001600160e01b03191681526020018060200180602001886001600160e01b0319166001600160e01b03191681526020018760ff1660ff168152602001806020018681526020018060200185810385528c818151815260200191508051906020019080838360005b83811015611ac3578181015183820152602001611aab565b50505050905090810190601f168015611af05780820380516001836020036101000a031916815260200191505b5085810384528b5181528b516020918201918d019080838360005b83811015611b23578181015183820152602001611b0b565b50505050905090810190601f168015611b505780820380516001836020036101000a031916815260200191505b5085810383528851815288516020918201918a019080838360005b83811015611b83578181015183820152602001611b6b565b50505050905090810190601f168015611bb05780820380516001836020036101000a031916815260200191505b50858103825286518152865160209182019188019080838360005b83811015611be3578181015183820152602001611bcb565b50505050905090810190601f168015611c105780820380516001836020036101000a031916815260200191505b509d505050505050505050505050505060206040518083038186803b158015611c3857600080fd5b505af4158015611c4c573d6000803e3d6000fd5b505050506040513d6020811015611c6257600080fd5b5060019a9950505050505050505050565b600080546001600160a01b03199081166001600160a01b038b81169190911783556001805483168b83161790556002805483168a83161790556003805483168983161790556004805490921690871617815560408051632fc2cad960e01b81529182018390526024820186905260448201859052606482018490525173__DepositFunding________________________91632fc2cad9916084808301926020929190829003018186803b158015611c3857600080fd5b60008073__DepositLiquidation____________________6393a3866490916040518263ffffffff1660e01b81526004018082815260200191505060006040518083038186803b15801561111457600080fd5b60008073__DepositFunding________________________635347b1de90916040518263ffffffff1660e01b81526004018082815260200191505060006040518083038186803b15801561111457600080fd5b60408051631e3435d560e11b815260006004820181905260ff861660248301526044820185905260648201849052915173__DepositRedemption_____________________91633c686baa9160848083019286929190829003018186803b1580156118e457600080fd5b6000611e4c818363ffffffff61236716565b90505b919050565b60008073__DepositRedemption_____________________636c7e2b9d90918a8a8a8a8a8a8a6040518963ffffffff1660e01b815260040180898152602001886001600160e01b0319166001600160e01b03191681526020018060200180602001876001600160e01b0319166001600160e01b0319168152602001806020018681526020018060200185810385528b818151815260200191508051906020019080838360005b83811015611f12578181015183820152602001611efa565b50505050905090810190601f168015611f3f5780820380516001836020036101000a031916815260200191505b5085810384528a5181528a516020918201918c019080838360005b83811015611f72578181015183820152602001611f5a565b50505050905090810190601f168015611f9f5780820380516001836020036101000a031916815260200191505b5085810383528851815288516020918201918a019080838360005b83811015611fd2578181015183820152602001611fba565b50505050905090810190601f168015611fff5780820380516001836020036101000a031916815260200191505b50858103825286518152865160209182019188019080838360005b8381101561203257818101518382015260200161201a565b50505050905090810190601f16801561205f5780820380516001836020036101000a031916815260200191505b509c5050505050505050505050505060006040518083038186803b15801561208657600080fd5b505af415801561209a573d6000803e3d6000fd5b5060019b9a5050505050505050505050565b60008073__DepositLiquidation____________________634941676c909188888888886040518763ffffffff1660e01b8152600401808781526020018660ff1660ff16815260200185815260200184815260200183815260200180602001828103825283818151815260200191508051906020019080838360008381101561126d578181015183820152602001611255565b6000611e4c818363ffffffff61248516565b60008073__DepositFunding________________________63d745519390918b8b8b8b8b8b8b8b6040518a63ffffffff1660e01b8152600401808a8152602001896001600160e01b0319166001600160e01b03191681526020018060200180602001886001600160e01b0319166001600160e01b03191681526020018760ff1660ff168152602001806020018681526020018060200185810385528c8181518152602001915080519060200190808383600083811015611ac3578181015183820152602001611aab565b60008073__DepositUtils__________________________6368bf68e190916040518263ffffffff1660e01b81526004018082815260200191505060206040518083038186803b15801561138657600080fd5b60008073__DepositFunding________________________63cd40cc6490916040518263ffffffff1660e01b81526004018082815260200191505060006040518083038186803b15801561111457600080fd5b60008073__DepositFunding________________________63bb21d02490916040518263ffffffff1660e01b81526004018082815260200191505060006040518083038186803b15801561111457600080fd5b60008073__DepositStates_________________________630f2c635590916040518263ffffffff1660e01b81526004018082815260200191505060206040518083038186803b15801561138657600080fd5b6000808373__DepositStates_________________________63761275bf90916040518263ffffffff1660e01b81526004018082815260200191505060206040518083038186803b1580156123bb57600080fd5b505af41580156123cf573d6000803e3d6000fd5b505050506040513d60208110156123e557600080fd5b505190506001600160a01b0383166123fc85612601565b6001600160a01b0316148015612410575080155b156124275761241f8484612485565b9150506114f6565b61243084612665565b15806124395750805b6124745760405162461bcd60e51b81526004018080602001828103825260478152602001806129086047913960600191505060405180910390fd5b61247d846126fb565b949350505050565b6000806124918461277a565b905060008473__DepositStates_________________________63761275bf90916040518263ffffffff1660e01b81526004018082815260200191505060206040518083038186803b1580156124e657600080fd5b505af41580156124fa573d6000803e3d6000fd5b505050506040513d602081101561251057600080fd5b50519050600061251f86612665565b11801561252a575080155b1561255857836001600160a01b031661254286612799565b6001600160a01b031614612558575090506114f6565b6001850154604080516370a0823160e01b815230600482015290516000926001600160a01b0316916370a08231916024808301926020929190829003018186803b1580156125a557600080fd5b505afa1580156125b9573d6000803e3d6000fd5b505050506040513d60208110156125cf57600080fd5b50519050828110156125f5576125eb838263ffffffff61289716565b93505050506114f6565b50600095945050505050565b6002810154604080516331a9108f60e11b815230600482015290516000926001600160a01b0316918291636352211e91602480820192602092909190829003018186803b15801561265157600080fd5b505afa1580156119d9573d6000803e3d6000fd5b60008073__TBTCConstants_________________________63d565d1f16040518163ffffffff1660e01b815260040160206040518083038186803b1580156126ac57600080fd5b505af41580156126c0573d6000803e3d6000fd5b505050506040513d60208110156126d657600080fd5b50516017840154019050428111156126f2574290039050611e4f565b50600092915050565b600073__TBTCConstants_________________________63ae9eb1276040518163ffffffff1660e01b815260040160206040518083038186803b15801561274157600080fd5b505af4158015612755573d6000803e3d6000fd5b505050506040513d602081101561276b57600080fd5b50516005830154029050919050565b6000611e4c826007015461278d846126fb565b9063ffffffff6128f416565b600381015460408051634f558e7960e01b815230600482015290516000926001600160a01b03169183918391634f558e79916024808301926020929190829003018186803b1580156127ea57600080fd5b505afa1580156127fe573d6000803e3d6000fd5b505050506040513d602081101561281457600080fd5b50511561289057604080516331a9108f60e11b815230600482015290516001600160a01b03841691636352211e916024808301926020929190829003018186803b15801561286157600080fd5b505afa158015612875573d6000803e3d6000fd5b505050506040513d602081101561288b57600080fd5b505190505b9392505050565b6000828211156128ee576040805162461bcd60e51b815260206004820152601d60248201527f556e646572666c6f7720647572696e67207375627472616374696f6e2e000000604482015290519081900360640190fd5b50900390565b60008183816128ff57fe5b04939250505056fe4f6e6c7920544454206f776e65722063616e2072656465656d20756e6c657373206465706f7369742069732061742d7465726d206f7220696e20434f5552544553595f43414c4ca265627a7a72305820e4413e225147f331dfd8af311c584deeb3bcaa89a12ec3c6d8fde03efd77a1e664736f6c634300050a0032",
  "source": "pragma solidity ^0.5.10;\n\nimport {DepositLiquidation} from \"./DepositLiquidation.sol\";\nimport {DepositUtils} from \"./DepositUtils.sol\";\nimport {DepositFunding} from \"./DepositFunding.sol\";\nimport {DepositRedemption} from \"./DepositRedemption.sol\";\nimport {DepositStates} from \"./DepositStates.sol\";\n\ncontract Deposit {\n\n    using DepositRedemption for DepositUtils.Deposit;\n    using DepositFunding for DepositUtils.Deposit;\n    using DepositLiquidation for DepositUtils.Deposit;\n    using DepositUtils for DepositUtils.Deposit;\n    using DepositStates for DepositUtils.Deposit;\n\n    DepositUtils.Deposit self;\n\n    // We separate the constructor from createNewDeposit to make proxy factories easier\n    /* solium-disable-next-line no-empty-blocks */\n    constructor () public {}\n\n    function () external payable {}\n\n    /// @notice     Get the integer representing the current state\n    /// @dev        We implement this because contracts don't handle foreign enums well\n    /// @return     The 0-indexed state from the DepositStates enum\n    function getCurrentState() public view returns (uint256) {\n        return uint256(self.currentState);\n    }\n\n    /// @notice     Check if the Deposit is in ACTIVE state.\n    /// @return     True if state is ACTIVE, fale otherwise.\n    function inActive() public view returns (bool) {\n        return self.inActive();\n    }\n\n    /// @notice Retrieve the remaining term of the deposit in seconds.\n    /// @dev    The value is not guaranteed since block.timestmap can be lightly manipulated by miners.\n    /// @return The remaining term of the deposit in seconds. 0 if already at term\n    function remainingTerm() public view returns(uint256){\n        return self.remainingTerm();\n    }\n\n    /// @notice     Get the signer fee for the Deposit.\n    /// @return     Fee amount in TBTC\n    function signerFee() public view returns (uint256) {\n        return self.signerFee();\n    }\n\n    /// @notice     Get the Deposit BTC lot size.\n    /// @return     uint256 lot size in satoshi\n    function lotSizeSatoshis() public view returns (uint256){\n        return self.lotSizeSatoshis;\n    }\n\n    /// @notice     Get the Deposit ERC20 lot size.\n    /// @return     uint256 lot size in erc20 decimal (max 18)\n    function lotSizeTbtc() public view returns (uint256){\n        return self.lotSizeTbtc();\n    }\n\n    /// @notice     Get the size of the funding UTXO.\n    /// @return     Uint256 UTXO size.\n    function utxoSize() public view returns (uint256){\n        return self.utxoSize();\n    }\n\n    // THIS IS THE INIT FUNCTION\n    /// @notice         The system can spin up a new deposit\n    /// @dev            This should be called by an approved contract, not a developer\n    /// @param _m       m for m-of-n\n    /// @param _m       n for m-of-n\n    /// @return         True if successful, otherwise revert\n    function createNewDeposit(\n        address _TBTCSystem,\n        address _TBTCToken,\n        address _TBTCDepositToken,\n        address _FeeRebateToken,\n        address _VendingMachine,\n        uint256 _m,\n        uint256 _n,\n        uint256 _lotSize\n    ) public payable returns (bool) {\n        self.TBTCSystem = _TBTCSystem;\n        self.TBTCToken = _TBTCToken;\n        self.TBTCDepositToken = _TBTCDepositToken;\n        self.FeeRebateToken = _FeeRebateToken;\n        self.VendingMachine = _VendingMachine;\n        self.createNewDeposit(_m, _n, _lotSize);\n        return true;\n    }\n\n    /// @notice                     Anyone can request redemption\n    /// @dev                        The redeemer specifies details about the Bitcoin redemption tx\n    /// @param  _outputValueBytes   The 8-byte LE output size\n    /// @param  _redeemerPKH       The 20-byte Bitcoin pubkeyhash to which to send funds\n    /// @return                     True if successful, otherwise revert\n    function requestRedemption(\n        bytes8 _outputValueBytes,\n        bytes20 _redeemerPKH\n    ) public returns (bool) {\n        self.requestRedemption(_outputValueBytes, _redeemerPKH);\n        return true;\n    }\n\n    /// @notice                     Anyone can request redemption\n    /// @dev                        The redeemer specifies details about the Bitcoin redemption tx and pays for the redemption\n    /// @param  _outputValueBytes   The 8-byte LE output size\n    /// @param  _redeemerPKH        The 20-byte Bitcoin pubkeyhash to which to send funds\n    /// @param  _finalRecipient     The address to receive the TDT and later be recorded as deposit redeemer.\n    function transferAndRequestRedemption(\n        bytes8 _outputValueBytes,\n        bytes20 _redeemerPKH,\n        address payable _finalRecipient\n    ) public returns (bool) {\n        self.transferAndRequestRedemption(\n            _outputValueBytes,\n            _redeemerPKH,\n            _finalRecipient\n        );\n        return true;\n    }\n\n    /// @notice             Get TBTC amount required by redemption by a specified _redeemer\n    /// @dev                Will revert if redemption is not possible by msg.sender.\n    /// @param _redeemer    The deposit redeemer. \n    /// @return             The amount in TBTC needed to redeem the deposit.\n    function getRedemptionTbtcRequirement(address _redeemer) public view returns(uint256){       \n        return self.getRedemptionTbtcRequirement(_redeemer);\n    }\n\n    /// @notice             Get TBTC amount required for redemption assuming _redeemer\n    ///                     is this deposit's TDT owner.\n    /// @param _redeemer    The assumed owner of the deposit's TDT \n    /// @return             The amount in TBTC needed to redeem the deposit.\n    function getOwnerRedemptionTbtcRequirement(address _redeemer) public view returns(uint256){\n        return self.getOwnerRedemptionTbtcRequirement(_redeemer);\n    }\n\n    /// @notice     Anyone may provide a withdrawal signature if it was requested\n    /// @dev        The signers will be penalized if this (or provideRedemptionProof) is not called\n    /// @param  _v  Signature recovery value\n    /// @param  _r  Signature R value\n    /// @param  _s  Signature S value\n    /// @return     True if successful, False if prevented by timeout, otherwise revert\n    function provideRedemptionSignature(\n        uint8 _v,\n        bytes32 _r,\n        bytes32 _s\n    ) public returns (bool) {\n        self.provideRedemptionSignature(_v, _r, _s);\n        return true;\n    }\n\n    /// @notice                             Anyone may notify the contract that a fee bump is needed\n    /// @dev                                This sends us back to AWAITING_WITHDRAWAL_SIGNATURE\n    /// @param  _previousOutputValueBytes   The previous output's value\n    /// @param  _newOutputValueBytes        The new output's value\n    /// @return                             True if successful, False if prevented by timeout, otherwise revert\n    function increaseRedemptionFee(\n        bytes8 _previousOutputValueBytes,\n        bytes8 _newOutputValueBytes\n    ) public returns (bool) {\n        return self.increaseRedemptionFee(_previousOutputValueBytes, _newOutputValueBytes);\n    }\n\n    /// @notice                 Anyone may provide a withdrawal proof to prove redemption\n    /// @dev                    The signers will be penalized if this is not called\n    /// @param  _txVersion      Transaction version number (4-byte LE)\n    /// @param  _txInputVector  All transaction inputs prepended by the number of inputs encoded as a VarInt, max 0xFC(252) inputs\n    /// @param  _txOutputVector All transaction outputs prepended by the number of outputs encoded as a VarInt, max 0xFC(252) outputs\n    /// @param  _txLocktime     Final 4 bytes of the transaction\n    /// @param  _merkleProof    The merkle proof of inclusion of the tx in the bitcoin block\n    /// @param  _txIndexInBlock The index of the tx in the Bitcoin block (0-indexed)\n    /// @param  _bitcoinHeaders An array of tightly-packed bitcoin headers\n    function provideRedemptionProof(\n        bytes4 _txVersion,\n        bytes memory _txInputVector,\n        bytes memory _txOutputVector,\n        bytes4 _txLocktime,\n        bytes memory _merkleProof,\n        uint256 _txIndexInBlock,\n        bytes memory _bitcoinHeaders\n    ) public returns (bool) {\n        self.provideRedemptionProof(\n            _txVersion,\n            _txInputVector,\n            _txOutputVector,\n            _txLocktime,\n            _merkleProof,\n            _txIndexInBlock,\n            _bitcoinHeaders\n        );\n        return true;\n    }\n\n    /// @notice     Anyone may notify the contract that the signers have failed to produce a signature\n    /// @dev        This is considered fraud, and is punished\n    /// @return     True if successful, otherwise revert\n    function notifySignatureTimeout() public returns (bool) {\n        self.notifySignatureTimeout();\n        return true;\n    }\n\n    /// @notice     Anyone may notify the contract that the signers have failed to produce a redemption proof\n    /// @dev        This is considered fraud, and is punished\n    /// @return     True if successful, otherwise revert\n    function notifyRedemptionProofTimeout() public returns (bool) {\n        self.notifyRedemptionProofTimeout();\n        return true;\n    }\n\n    //\n    // FUNDING FLOW\n    //\n\n    /// @notice     Anyone may notify the contract that signing group setup has timed out\n    /// @dev        We rely on the keep system punishes the signers in this case\n    /// @return     True if successful, otherwise revert\n    function notifySignerSetupFailure() public returns (bool) {\n        self.notifySignerSetupFailure();\n        return true;\n    }\n\n    /// @notice             we poll the Keep contract to retrieve our pubkey\n    /// @dev                We store the pubkey as 2 bytestrings, X and Y.\n    /// @return             True if successful, otherwise revert\n    function retrieveSignerPubkey() public returns (bool) {\n        self.retrieveSignerPubkey();\n        return true;\n    }\n\n    /// @notice     Anyone may notify the contract that the funder has failed to send BTC\n    /// @dev        This is considered a funder fault, and we revoke their bond\n    /// @return     True if successful, otherwise revert\n    function notifyFundingTimeout() public returns (bool) {\n        self.notifyFundingTimeout();\n        return true;\n    }\n\n    /// @notice                 Anyone can provide a signature that was not requested to prove fraud during funding\n    /// @dev                    ECDSA is NOT SECURE unless you verify the digest\n    /// @param  _v              Signature recovery value\n    /// @param  _r              Signature R value\n    /// @param  _s              Signature S value\n    /// @param _signedDigest    The digest signed by the signature vrs tuple\n    /// @param _preimage        The sha256 preimage of the digest\n    /// @return                 True if successful, otherwise revert\n    function provideFundingECDSAFraudProof(\n        uint8 _v,\n        bytes32 _r,\n        bytes32 _s,\n        bytes32 _signedDigest,\n        bytes memory _preimage\n    ) public returns (bool) {\n        self.provideFundingECDSAFraudProof(_v, _r, _s, _signedDigest, _preimage);\n        return true;\n    }\n\n    /// @notice     Anyone may notify the contract no funding proof was submitted during funding fraud\n    /// @dev        This is not a funder fault. The signers have faulted, so the funder shouldn't fund\n    /// @return     True if successful, otherwise revert\n    function notifyFraudFundingTimeout() public returns (bool) {\n        self.notifyFraudFundingTimeout();\n        return true;\n    }\n\n    /// @notice                     Anyone may notify the deposit of a funding proof during funding fraud\n    //                              We reward the funder the entire bond if this occurs\n    /// @dev                        Takes a pre-parsed transaction and calculates values needed to verify funding\n    /// @param _txVersion           Transaction version number (4-byte LE)\n    /// @param _txInputVector       All transaction inputs prepended by the number of inputs encoded as a VarInt, max 0xFC(252) inputs\n    /// @param _txOutputVector      All transaction outputs prepended by the number of outputs encoded as a VarInt, max 0xFC(252) outputs\n    /// @param _txLocktime          Final 4 bytes of the transaction\n    /// @param _fundingOutputIndex  Index of funding output in _txOutputVector (0-indexed)\n    /// @param _merkleProof         The merkle proof of transaction inclusion in a block\n    /// @param _txIndexInBlock      Transaction index in the block (0-indexed)\n    /// @param _bitcoinHeaders      Single bytestring of 80-byte bitcoin headers, lowest height first\n    /// @return                     True if no errors are thrown\n    function provideFraudBTCFundingProof(\n        bytes4 _txVersion,\n        bytes memory _txInputVector,\n        bytes memory _txOutputVector,\n        bytes4 _txLocktime,\n        uint8 _fundingOutputIndex,\n        bytes memory _merkleProof,\n        uint256 _txIndexInBlock,\n        bytes memory _bitcoinHeaders\n    ) public returns (bool) {\n        self.provideFraudBTCFundingProof(\n            _txVersion,\n            _txInputVector,\n            _txOutputVector,\n            _txLocktime,\n            _fundingOutputIndex,\n            _merkleProof,\n            _txIndexInBlock,\n            _bitcoinHeaders\n        );\n        return true;\n    }\n\n    /// @notice                     Anyone may notify the deposit of a funding proof to activate the deposit\n    ///                             This is the happy-path of the funding flow. It means that we have succeeded\n    /// @dev                        Takes a pre-parsed transaction and calculates values needed to verify funding\n    /// @param _txVersion           Transaction version number (4-byte LE)\n    /// @param _txInputVector       All transaction inputs prepended by the number of inputs encoded as a VarInt, max 0xFC(252) inputs\n    /// @param _txOutputVector      All transaction outputs prepended by the number of outputs encoded as a VarInt, max 0xFC(252) outputs\n    /// @param _txLocktime          Final 4 bytes of the transaction\n    /// @param _fundingOutputIndex  Index of funding output in _txOutputVector (0-indexed)\n    /// @param _merkleProof         The merkle proof of transaction inclusion in a block\n    /// @param _txIndexInBlock      Transaction index in the block (0-indexed)\n    /// @param _bitcoinHeaders      Single bytestring of 80-byte bitcoin headers, lowest height first\n    /// @return                     True if no errors are thrown\n    function provideBTCFundingProof(\n        bytes4 _txVersion,\n        bytes memory _txInputVector,\n        bytes memory _txOutputVector,\n        bytes4 _txLocktime,\n        uint8 _fundingOutputIndex,\n        bytes memory _merkleProof,\n        uint256 _txIndexInBlock,\n        bytes memory _bitcoinHeaders\n    ) public returns (bool) {\n        self.provideBTCFundingProof(\n            _txVersion,\n            _txInputVector,\n            _txOutputVector,\n            _txLocktime,\n            _fundingOutputIndex,\n            _merkleProof,\n            _txIndexInBlock,\n            _bitcoinHeaders\n        );\n        return true;\n    }\n\n    //\n    // FRAUD\n    //\n\n    /// @notice                 Anyone can provide a signature that was not requested to prove fraud\n    /// @dev                    ECDSA is NOT SECURE unless you verify the digest\n    /// @param  _v              Signature recovery value\n    /// @param  _r              Signature R value\n    /// @param  _s              Signature S value\n    /// @param _signedDigest    The digest signed by the signature vrs tuple\n    /// @param _preimage        The sha256 preimage of the digest\n    /// @return                 True if successful, otherwise revert\n    function provideECDSAFraudProof(\n        uint8 _v,\n        bytes32 _r,\n        bytes32 _s,\n        bytes32 _signedDigest,\n        bytes memory _preimage\n    ) public returns (bool) {\n        self.provideECDSAFraudProof(_v, _r, _s, _signedDigest, _preimage);\n        return true;\n    }\n\n    /// @notice                   Anyone may notify the deposit of fraud via an SPV proof\n    /// @dev                      We strong prefer ECDSA fraud proofs\n    /// @param  _txVersion        Transaction version number (4-byte LE)\n    /// @param  _txInputVector    All transaction inputs prepended by the number of inputs encoded as a VarInt, max 0xFC(252) inputs\n    /// @param  _txOutputVector   All transaction outputs prepended by the number of outputs encoded as a VarInt, max 0xFC(252) outputs\n    /// @param  _txLocktime       Final 4 bytes of the transaction\n    /// @param  _merkleProof      The merkle proof of inclusion of the tx in the bitcoin block\n    /// @param  _txIndexInBlock   The index of the tx in the Bitcoin block (0-indexed)\n    /// @param  _targetInputIndex Index of the input that spends the custodied UTXO\n    /// @param  _bitcoinHeaders   An array of tightly-packed bitcoin headers\n    /// @return                   True if successful, otherwise revert\n    function provideSPVFraudProof(\n        bytes4 _txVersion,\n        bytes memory _txInputVector,\n        bytes memory _txOutputVector,\n        bytes4 _txLocktime,\n        bytes memory _merkleProof,\n        uint256 _txIndexInBlock,\n        uint8 _targetInputIndex,\n        bytes memory _bitcoinHeaders\n    ) public returns (bool) {\n        self.provideSPVFraudProof(\n            _txVersion,\n            _txInputVector,\n            _txOutputVector,\n            _txLocktime,\n            _merkleProof,\n            _txIndexInBlock,\n            _targetInputIndex,\n            _bitcoinHeaders\n        );\n        return true;\n    }\n\n    //\n    // LIQUIDATION\n    //\n\n    /// @notice     Closes an auction and purchases the signer bonds. Payout to buyer, funder, then signers if not fraud\n    /// @dev        For interface, reading auctionValue will give a past value. the current is better\n    /// @return     True if successful, revert otherwise\n    function purchaseSignerBondsAtAuction() public returns (bool) {\n        self.purchaseSignerBondsAtAuction();\n        return true;\n    }\n\n    /// @notice     Notify the contract that the signers are undercollateralized\n    /// @dev        Calls out to the system for oracle info\n    /// @return     True if successful, otherwise revert\n    function notifyCourtesyCall() public returns (bool) {\n        self.notifyCourtesyCall();\n        return true;\n    }\n\n    /// @notice     Goes from courtesy call to active\n    /// @dev        Only callable if collateral is sufficient and the deposit is not expiring\n    /// @return     True if successful, otherwise revert\n    function exitCourtesyCall() public returns (bool) {\n        self.exitCourtesyCall();\n        return true;\n    }\n\n    /// @notice     Notify the contract that the signers are undercollateralized\n    /// @dev        Calls out to the system for oracle info\n    /// @return     True if successful, otherwise revert\n    function notifyUndercollateralizedLiquidation() public returns (bool) {\n        self.notifyUndercollateralizedLiquidation();\n        return true;\n    }\n\n    /// @notice     Notifies the contract that the courtesy period has elapsed\n    /// @dev        This is treated as an abort, rather than fraud\n    /// @return     True if successful, otherwise revert\n    function notifyCourtesyTimeout() public returns (bool) {\n        self.notifyCourtesyTimeout();\n        return true;\n    }\n\n    /// @notice     Notifies the contract that its term limit has been reached\n    /// @dev        This initiates a courtesy call\n    /// @return     True if successful, otherwise revert\n    function notifyDepositExpiryCourtesyCall() public returns (bool) {\n        self.notifyDepositExpiryCourtesyCall();\n        return true;\n    }\n}\n",
  "sourcePath": "/tmp/4dc3a1f35eb2ac0746a4afda14417a7b0cb64f6d/implementation/contracts/deposit/Deposit.sol",
  "compiler": {
    "name": "solc",
    "version": "0.5.10+commit.5a6ea5b1.Emscripten.clang"
  },
  "schemaVersion": "3.0.19",
  "updatedAt": "2020-02-06T21:45:08.105Z",
  "networkType": "ethereum",
  "devdoc": {
    "methods": {
      "createNewDeposit(address,address,address,address,address,uint256,uint256,uint256)": {
        "details": "This should be called by an approved contract, not a developer",
        "params": {
          "_m": "n for m-of-n"
        },
        "return": "True if successful, otherwise revert"
      },
      "exitCourtesyCall()": {
        "details": "Only callable if collateral is sufficient and the deposit is not expiring",
        "return": "True if successful, otherwise revert"
      },
      "getCurrentState()": {
        "details": "We implement this because contracts don't handle foreign enums well",
        "return": "The 0-indexed state from the DepositStates enum"
      },
      "getOwnerRedemptionTbtcRequirement(address)": {
        "params": {
          "_redeemer": "The assumed owner of the deposit's TDT "
        },
        "return": "The amount in TBTC needed to redeem the deposit."
      },
      "getRedemptionTbtcRequirement(address)": {
        "details": "Will revert if redemption is not possible by msg.sender.",
        "params": {
          "_redeemer": "The deposit redeemer. "
        },
        "return": "The amount in TBTC needed to redeem the deposit."
      },
      "inActive()": {
        "return": "True if state is ACTIVE, fale otherwise."
      },
      "increaseRedemptionFee(bytes8,bytes8)": {
        "details": "This sends us back to AWAITING_WITHDRAWAL_SIGNATURE",
        "params": {
          "_newOutputValueBytes": "The new output's value",
          "_previousOutputValueBytes": "The previous output's value"
        },
        "return": "True if successful, False if prevented by timeout, otherwise revert"
      },
      "lotSizeSatoshis()": {
        "return": "uint256 lot size in satoshi"
      },
      "lotSizeTbtc()": {
        "return": "uint256 lot size in erc20 decimal (max 18)"
      },
      "notifyCourtesyCall()": {
        "details": "Calls out to the system for oracle info",
        "return": "True if successful, otherwise revert"
      },
      "notifyCourtesyTimeout()": {
        "details": "This is treated as an abort, rather than fraud",
        "return": "True if successful, otherwise revert"
      },
      "notifyDepositExpiryCourtesyCall()": {
        "details": "This initiates a courtesy call",
        "return": "True if successful, otherwise revert"
      },
      "notifyFraudFundingTimeout()": {
        "details": "This is not a funder fault. The signers have faulted, so the funder shouldn't fund",
        "return": "True if successful, otherwise revert"
      },
      "notifyFundingTimeout()": {
        "details": "This is considered a funder fault, and we revoke their bond",
        "return": "True if successful, otherwise revert"
      },
      "notifyRedemptionProofTimeout()": {
        "details": "This is considered fraud, and is punished",
        "return": "True if successful, otherwise revert"
      },
      "notifySignatureTimeout()": {
        "details": "This is considered fraud, and is punished",
        "return": "True if successful, otherwise revert"
      },
      "notifySignerSetupFailure()": {
        "details": "We rely on the keep system punishes the signers in this case",
        "return": "True if successful, otherwise revert"
      },
      "notifyUndercollateralizedLiquidation()": {
        "details": "Calls out to the system for oracle info",
        "return": "True if successful, otherwise revert"
      },
      "provideBTCFundingProof(bytes4,bytes,bytes,bytes4,uint8,bytes,uint256,bytes)": {
        "details": "Takes a pre-parsed transaction and calculates values needed to verify funding",
        "params": {
          "_bitcoinHeaders": "Single bytestring of 80-byte bitcoin headers, lowest height first",
          "_fundingOutputIndex": "Index of funding output in _txOutputVector (0-indexed)",
          "_merkleProof": "The merkle proof of transaction inclusion in a block",
          "_txIndexInBlock": "Transaction index in the block (0-indexed)",
          "_txInputVector": "All transaction inputs prepended by the number of inputs encoded as a VarInt, max 0xFC(252) inputs",
          "_txLocktime": "Final 4 bytes of the transaction",
          "_txOutputVector": "All transaction outputs prepended by the number of outputs encoded as a VarInt, max 0xFC(252) outputs",
          "_txVersion": "Transaction version number (4-byte LE)"
        },
        "return": "True if no errors are thrown"
      },
      "provideECDSAFraudProof(uint8,bytes32,bytes32,bytes32,bytes)": {
        "details": "ECDSA is NOT SECURE unless you verify the digest",
        "params": {
          "_preimage": "The sha256 preimage of the digest",
          "_r": "Signature R value",
          "_s": "Signature S value",
          "_signedDigest": "The digest signed by the signature vrs tuple",
          "_v": "Signature recovery value"
        },
        "return": "True if successful, otherwise revert"
      },
      "provideFraudBTCFundingProof(bytes4,bytes,bytes,bytes4,uint8,bytes,uint256,bytes)": {
        "details": "Takes a pre-parsed transaction and calculates values needed to verify funding",
        "params": {
          "_bitcoinHeaders": "Single bytestring of 80-byte bitcoin headers, lowest height first",
          "_fundingOutputIndex": "Index of funding output in _txOutputVector (0-indexed)",
          "_merkleProof": "The merkle proof of transaction inclusion in a block",
          "_txIndexInBlock": "Transaction index in the block (0-indexed)",
          "_txInputVector": "All transaction inputs prepended by the number of inputs encoded as a VarInt, max 0xFC(252) inputs",
          "_txLocktime": "Final 4 bytes of the transaction",
          "_txOutputVector": "All transaction outputs prepended by the number of outputs encoded as a VarInt, max 0xFC(252) outputs",
          "_txVersion": "Transaction version number (4-byte LE)"
        },
        "return": "True if no errors are thrown"
      },
      "provideFundingECDSAFraudProof(uint8,bytes32,bytes32,bytes32,bytes)": {
        "details": "ECDSA is NOT SECURE unless you verify the digest",
        "params": {
          "_preimage": "The sha256 preimage of the digest",
          "_r": "Signature R value",
          "_s": "Signature S value",
          "_signedDigest": "The digest signed by the signature vrs tuple",
          "_v": "Signature recovery value"
        },
        "return": "True if successful, otherwise revert"
      },
      "provideRedemptionProof(bytes4,bytes,bytes,bytes4,bytes,uint256,bytes)": {
        "details": "The signers will be penalized if this is not called",
        "params": {
          "_bitcoinHeaders": "An array of tightly-packed bitcoin headers",
          "_merkleProof": "The merkle proof of inclusion of the tx in the bitcoin block",
          "_txIndexInBlock": "The index of the tx in the Bitcoin block (0-indexed)",
          "_txInputVector": "All transaction inputs prepended by the number of inputs encoded as a VarInt, max 0xFC(252) inputs",
          "_txLocktime": "Final 4 bytes of the transaction",
          "_txOutputVector": "All transaction outputs prepended by the number of outputs encoded as a VarInt, max 0xFC(252) outputs",
          "_txVersion": "Transaction version number (4-byte LE)"
        }
      },
      "provideRedemptionSignature(uint8,bytes32,bytes32)": {
        "details": "The signers will be penalized if this (or provideRedemptionProof) is not called",
        "params": {
          "_r": "Signature R value",
          "_s": "Signature S value",
          "_v": "Signature recovery value"
        },
        "return": "True if successful, False if prevented by timeout, otherwise revert"
      },
      "provideSPVFraudProof(bytes4,bytes,bytes,bytes4,bytes,uint256,uint8,bytes)": {
        "details": "We strong prefer ECDSA fraud proofs",
        "params": {
          "_bitcoinHeaders": "An array of tightly-packed bitcoin headers",
          "_merkleProof": "The merkle proof of inclusion of the tx in the bitcoin block",
          "_targetInputIndex": "Index of the input that spends the custodied UTXO",
          "_txIndexInBlock": "The index of the tx in the Bitcoin block (0-indexed)",
          "_txInputVector": "All transaction inputs prepended by the number of inputs encoded as a VarInt, max 0xFC(252) inputs",
          "_txLocktime": "Final 4 bytes of the transaction",
          "_txOutputVector": "All transaction outputs prepended by the number of outputs encoded as a VarInt, max 0xFC(252) outputs",
          "_txVersion": "Transaction version number (4-byte LE)"
        },
        "return": "True if successful, otherwise revert"
      },
      "purchaseSignerBondsAtAuction()": {
        "details": "For interface, reading auctionValue will give a past value. the current is better",
        "return": "True if successful, revert otherwise"
      },
      "remainingTerm()": {
        "details": "The value is not guaranteed since block.timestmap can be lightly manipulated by miners.",
        "return": "The remaining term of the deposit in seconds. 0 if already at term"
      },
      "requestRedemption(bytes8,bytes20)": {
        "details": "The redeemer specifies details about the Bitcoin redemption tx",
        "params": {
          "_outputValueBytes": "The 8-byte LE output size",
          "_redeemerPKH": "The 20-byte Bitcoin pubkeyhash to which to send funds"
        },
        "return": "True if successful, otherwise revert"
      },
      "retrieveSignerPubkey()": {
        "details": "We store the pubkey as 2 bytestrings, X and Y.",
        "return": "True if successful, otherwise revert"
      },
      "signerFee()": {
        "return": "Fee amount in TBTC"
      },
      "transferAndRequestRedemption(bytes8,bytes20,address)": {
        "details": "The redeemer specifies details about the Bitcoin redemption tx and pays for the redemption",
        "params": {
          "_finalRecipient": "The address to receive the TDT and later be recorded as deposit redeemer.",
          "_outputValueBytes": "The 8-byte LE output size",
          "_redeemerPKH": "The 20-byte Bitcoin pubkeyhash to which to send funds"
        }
      },
      "utxoSize()": {
        "return": "Uint256 UTXO size."
      }
    }
  },
  "userdoc": {
    "methods": {
      "createNewDeposit(address,address,address,address,address,uint256,uint256,uint256)": {
        "notice": "The system can spin up a new deposit"
      },
      "exitCourtesyCall()": {
        "notice": "Goes from courtesy call to active"
      },
      "getCurrentState()": {
        "notice": "Get the integer representing the current state"
      },
      "getOwnerRedemptionTbtcRequirement(address)": {
        "notice": "Get TBTC amount required for redemption assuming _redeemer                     is this deposit's TDT owner."
      },
      "getRedemptionTbtcRequirement(address)": {
        "notice": "Get TBTC amount required by redemption by a specified _redeemer"
      },
      "inActive()": {
        "notice": "Check if the Deposit is in ACTIVE state."
      },
      "increaseRedemptionFee(bytes8,bytes8)": {
        "notice": "Anyone may notify the contract that a fee bump is needed"
      },
      "lotSizeSatoshis()": {
        "notice": "Get the Deposit BTC lot size."
      },
      "lotSizeTbtc()": {
        "notice": "Get the Deposit ERC20 lot size."
      },
      "notifyCourtesyCall()": {
        "notice": "Notify the contract that the signers are undercollateralized"
      },
      "notifyCourtesyTimeout()": {
        "notice": "Notifies the contract that the courtesy period has elapsed"
      },
      "notifyDepositExpiryCourtesyCall()": {
        "notice": "Notifies the contract that its term limit has been reached"
      },
      "notifyFraudFundingTimeout()": {
        "notice": "Anyone may notify the contract no funding proof was submitted during funding fraud"
      },
      "notifyFundingTimeout()": {
        "notice": "Anyone may notify the contract that the funder has failed to send BTC"
      },
      "notifyRedemptionProofTimeout()": {
        "notice": "Anyone may notify the contract that the signers have failed to produce a redemption proof"
      },
      "notifySignatureTimeout()": {
        "notice": "Anyone may notify the contract that the signers have failed to produce a signature"
      },
      "notifySignerSetupFailure()": {
        "notice": "Anyone may notify the contract that signing group setup has timed out"
      },
      "notifyUndercollateralizedLiquidation()": {
        "notice": "Notify the contract that the signers are undercollateralized"
      },
      "provideBTCFundingProof(bytes4,bytes,bytes,bytes4,uint8,bytes,uint256,bytes)": {
        "notice": "Anyone may notify the deposit of a funding proof to activate the deposit                             This is the happy-path of the funding flow. It means that we have succeeded"
      },
      "provideECDSAFraudProof(uint8,bytes32,bytes32,bytes32,bytes)": {
        "notice": "Anyone can provide a signature that was not requested to prove fraud"
      },
      "provideFundingECDSAFraudProof(uint8,bytes32,bytes32,bytes32,bytes)": {
        "notice": "Anyone can provide a signature that was not requested to prove fraud during funding"
      },
      "provideRedemptionProof(bytes4,bytes,bytes,bytes4,bytes,uint256,bytes)": {
        "notice": "Anyone may provide a withdrawal proof to prove redemption"
      },
      "provideRedemptionSignature(uint8,bytes32,bytes32)": {
        "notice": "Anyone may provide a withdrawal signature if it was requested"
      },
      "provideSPVFraudProof(bytes4,bytes,bytes,bytes4,bytes,uint256,uint8,bytes)": {
        "notice": "Anyone may notify the deposit of fraud via an SPV proof"
      },
      "purchaseSignerBondsAtAuction()": {
        "notice": "Closes an auction and purchases the signer bonds. Payout to buyer, funder, then signers if not fraud"
      },
      "remainingTerm()": {
        "notice": "Retrieve the remaining term of the deposit in seconds."
      },
      "requestRedemption(bytes8,bytes20)": {
        "notice": "Anyone can request redemption"
      },
      "retrieveSignerPubkey()": {
        "notice": "we poll the Keep contract to retrieve our pubkey"
      },
      "signerFee()": {
        "notice": "Get the signer fee for the Deposit."
      },
      "transferAndRequestRedemption(bytes8,bytes20,address)": {
        "notice": "Anyone can request redemption"
      },
      "utxoSize()": {
        "notice": "Get the size of the funding UTXO."
      }
    }
  }
}