{
  "contractName": "DepositUtils",
  "abi": [
    {
      "constant": true,
      "inputs": [
        {
          "name": "_pubkeyY",
          "type": "bytes32"
        }
      ],
      "name": "determineCompressionPrefix",
      "outputs": [
        {
          "name": "",
          "type": "bytes"
        }
      ],
      "payable": false,
      "stateMutability": "pure",
      "type": "function"
    },
    {
      "constant": true,
      "inputs": [
        {
          "name": "_pubkeyX",
          "type": "bytes32"
        },
        {
          "name": "_pubkeyY",
          "type": "bytes32"
        }
      ],
      "name": "compressPubkey",
      "outputs": [
        {
          "name": "",
          "type": "bytes"
        }
      ],
      "payable": false,
      "stateMutability": "pure",
      "type": "function"
    },
    {
      "constant": true,
      "inputs": [
        {
          "name": "_b",
          "type": "bytes8"
        }
      ],
      "name": "bytes8LEToUint",
      "outputs": [
        {
          "name": "",
          "type": "uint256"
        }
      ],
      "payable": false,
      "stateMutability": "pure",
      "type": "function"
    }
  ],
  "bytecode": "0x6128ec610026600b82828239805160001a60731461001957fe5b30600052607381538281f3fe73000000000000000000000000000000000000000030146080604052600436106101575760003560e01c80638fdd0388116100cd578063db08d91911610086578063db08d9191461054f578063e0dfd81a1461056c578063e2d6473d146105a6578063e92d8119146105c3578063f846f371146108b7578063fa067d92146109f457610157565b80638fdd03881461048e57806391f88c85146104ab578063a22b0614146104c8578063ad91ce1f146104f2578063c02a30951461050f578063d9ab8b811461052c57610157565b8063406af6951161011f578063406af6951461034657806350ef3aa11461036d5780635c7b82d71461038a57806368bf68e11461043757806368c2bd86146104545780637949c2d21461047157610157565b80630f27e5a01461015c5780631129a8a9146102295780631bf7ad311461025e57806327e75cee146102975780632fac808a14610329575b600080fd5b61020c6004803603606081101561017257600080fd5b81359190810190604081016020820135600160201b81111561019357600080fd5b8201836020820111156101a557600080fd5b803590602001918460018302840111600160201b831117156101c657600080fd5b91908080601f0160208091040260200160405190810160405280939291908181526020018383808284376000920191909152509295505050903560ff169150610a119050565b604080516001600160c01b03199092168252519081900360200190f35b61024c6004803603604081101561023f57600080fd5b5080359060200135610ada565b60408051918252519081900360200190f35b61027b6004803603602081101561027457600080fd5b5035610af2565b604080516001600160a01b039092168252519081900360200190f35b6102b4600480360360208110156102ad57600080fd5b5035610bf2565b6040805160208082528351818301528351919283929083019185019080838360005b838110156102ee5781810151838201526020016102d6565b50505050905090810190601f16801561031b5780820380516001836020036101000a031916815260200191505b509250505060405180910390f35b61024c6004803603602081101561033f57600080fd5b5035610c3b565b61024c6004803603602081101561035c57600080fd5b50356001600160c01b031916610cc0565b61024c6004803603602081101561038357600080fd5b5035610cfb565b610435600480360360408110156103a057600080fd5b81359190810190604081016020820135600160201b8111156103c157600080fd5b8201836020820111156103d357600080fd5b803590602001918460018302840111600160201b831117156103f457600080fd5b91908080601f016020809104026020016040519081016040528093929190818152602001838380828437600092019190915250929550610eec945050505050565b005b61024c6004803603602081101561044d57600080fd5b503561113d565b61024c6004803603602081101561046a57600080fd5b5035611151565b61024c6004803603602081101561048757600080fd5b5035611198565b61024c600480360360208110156104a457600080fd5b5035611217565b61024c600480360360208110156104c157600080fd5b503561125e565b8180156104d457600080fd5b50610435600480360360208110156104eb57600080fd5b50356112f4565b61027b6004803603602081101561050857600080fd5b503561131e565b61024c6004803603602081101561052557600080fd5b503561136e565b6102b46004803603604081101561054257600080fd5b5080359060200135611381565b6102b46004803603602081101561056557600080fd5b50356113f7565b6105896004803603602081101561058257600080fd5b5035611428565b604080516001600160601b03199092168252519081900360200190f35b61024c600480360360208110156105bc57600080fd5b5035611469565b61082e60048036036101208110156105da57600080fd5b8135916001600160e01b031960208201351691810190606081016040820135600160201b81111561060a57600080fd5b82018360208201111561061c57600080fd5b803590602001918460018302840111600160201b8311171561063d57600080fd5b91908080601f0160208091040260200160405190810160405280939291908181526020018383808284376000920191909152509295949360208101935035915050600160201b81111561068f57600080fd5b8201836020820111156106a157600080fd5b803590602001918460018302840111600160201b831117156106c257600080fd5b91908080601f01602080910402602001604051908101604052809392919081815260200183838082843760009201919091525092956001600160e01b03198535169560ff60208701351695919450925060608101915060400135600160201b81111561072d57600080fd5b82018360208201111561073f57600080fd5b803590602001918460018302840111600160201b8311171561076057600080fd5b91908080601f01602080910402602001604051908101604052809392919081815260200183838082843760009201919091525092958435959094909350604081019250602001359050600160201b8111156107ba57600080fd5b8201836020820111156107cc57600080fd5b803590602001918460018302840111600160201b831117156107ed57600080fd5b91908080601f016020809104026020016040519081016040528093929190818152602001838380828437600092019190915250929550611496945050505050565b604080516001600160c01b03198416815260208082018381528451938301939093528351919291606084019185019080838360005b8381101561087b578181015183820152602001610863565b50505050905090810190601f1680156108a85780820380516001836020036101000a031916815260200191505b50935050505060405180910390f35b610435600480360360a08110156108cd57600080fd5b813591602081013591810190606081016040820135600160201b8111156108f357600080fd5b82018360208201111561090557600080fd5b803590602001918460018302840111600160201b8311171561092657600080fd5b91908080601f01602080910402602001604051908101604052809392919081815260200183838082843760009201919091525092958435959094909350604081019250602001359050600160201b81111561098057600080fd5b82018360208201111561099257600080fd5b803590602001918460018302840111600160201b831117156109b357600080fd5b91908080601f0160208091040260200160405190810160405280939291908181526020018383808284376000920191909152509295506116fb945050505050565b61024c60048036036020811015610a0a57600080fd5b5035611765565b6000806060610a26858563ffffffff6117ac16565b9050610a3186611428565b604080516001600160601b03199092166020808401919091528151808403601401815260349093019091528151910120610a6a82611835565b805190602001201415610a9c57610a92610a8d826000600863ffffffff611a5716565b611b15565b9250610ad3915050565b60405162461bcd60e51b815260040180806020018281038252603e8152602001806127c6603e913960400191505060405180910390fd5b9392505050565b60008181526019830160205260409020545b92915050565b600381015460408051634f558e7960e01b815230600482015290516000926001600160a01b03169183918391634f558e79916024808301926020929190829003018186803b158015610b4357600080fd5b505afa158015610b57573d6000803e3d6000fd5b505050506040513d6020811015610b6d57600080fd5b505115610be957604080516331a9108f60e11b815230600482015290516001600160a01b03841691636352211e916024808301926020929190829003018186803b158015610bba57600080fd5b505afa158015610bce573d6000803e3d6000fd5b505050506040513d6020811015610be457600080fd5b505190505b9150505b919050565b606060018083161415610c1d57506040805180820190915260018152600360f81b6020820152610bed565b506040805180820190915260018152600160f91b6020820152610bed565b600c8101546040805163124b290160e11b81526001600160a01b039092166004830181905290516000928291632496520291602480820192602092909190829003018186803b158015610c8d57600080fd5b505afa158015610ca1573d6000803e3d6000fd5b505050506040513d6020811015610cb757600080fd5b50519392505050565b604080516001600160c01b031983166020820152815180820360080181526028909101909152600090610aec90610cf690611b33565b611bc0565b600080610d15836009015442611bfd90919063ffffffff16565b90506000306001600160a01b031631905073__TBTCConstants_________________________6378cb51af6040518163ffffffff1660e01b815260040160206040518083038186803b158015610d6a57600080fd5b505af4158015610d7e573d6000803e3d6000fd5b505050506040513d6020811015610d9457600080fd5b5051821115610da6579150610bed9050565b600073__TBTCConstants_________________________63c4572eb96040518163ffffffff1660e01b815260040160206040518083038186803b158015610dec57600080fd5b505af4158015610e00573d6000803e3d6000fd5b505050506040513d6020811015610e1657600080fd5b5051604080516378cb51af60e01b81529051919250600091610ec79173__TBTCConstants_________________________916378cb51af91600480820192602092909190829003018186803b158015610e6e57600080fd5b505af4158015610e82573d6000803e3d6000fd5b505050506040513d6020811015610e9857600080fd5b5051610ebb86610eaf60648763ffffffff611bfd16565b9063ffffffff611c5a16565b9063ffffffff611cca16565b9050818101610ee16064610ebb868463ffffffff611c5a16565b979650505050505050565b600080610ef884611217565b90506000610f0585611151565b90506000610f1a610f1586611cdd565b611d36565b905082811415610f2c57829350610f73565b81811415610f3c57819350610f73565b60405162461bcd60e51b81526004018080602001828103825260258152602001806128376025913960400191505060405180910390fd5b6000610f7e86611d4d565b9050610f88611e4b565b811415610fc65760405162461bcd60e51b815260040180806020018281038252602381526020018061285c6023913960400191505060405180910390fd5b610fce611e51565b81141561101a576040805162461bcd60e51b815260206004820152601560248201527424b73b30b634b2103432b0b232b9399031b430b4b760591b604482015290519081900360640190fd5b611022611e57565b811415611076576040805162461bcd60e51b815260206004820152601d60248201527f496e73756666696369656e7420776f726b20696e206120686561646572000000604482015290519081900360640190fd5b6110f673__TBTCConstants_________________________639b3fd99f6040518163ffffffff1660e01b815260040160206040518083038186803b1580156110bd57600080fd5b505af41580156110d1573d6000803e3d6000fd5b505050506040513d60208110156110e757600080fd5b5051869063ffffffff611c5a16565b8110156111345760405162461bcd60e51b81526004018080602001828103825260338152602001806128046033913960400191505060405180910390fd5b50505050505050565b6016810154600090610aec9060c01b610cc0565b80546040805163402b783d60e01b815290516000926001600160a01b031691829163402b783d91600480820192602092909190829003018186803b158015610c8d57600080fd5b600073__TBTCConstants_________________________63ae9eb1276040518163ffffffff1660e01b815260040160206040518083038186803b1580156111de57600080fd5b505af41580156111f2573d6000803e3d6000fd5b505050506040513d602081101561120857600080fd5b50516005830154029050919050565b80546040805163dab70cb160e01b815290516000926001600160a01b031691829163dab70cb191600480820192602092909190829003018186803b158015610c8d57600080fd5b60008073__TBTCConstants_________________________63d565d1f16040518163ffffffff1660e01b815260040160206040518083038186803b1580156112a557600080fd5b505af41580156112b9573d6000803e3d6000fd5b505050506040513d60208110156112cf57600080fd5b50516017840154019050428111156112eb574290039050610bed565b50600092915050565b6012810180546001600160a01b031916905560006013820181905560148201819055601590910155565b6002810154604080516331a9108f60e11b815230600482015290516000926001600160a01b0316918291636352211e91602480820192602092909190829003018186803b158015610c8d57600080fd5b6000610aec8260070154610ebb84611198565b606061138c82610bf2565b836040516020018083805190602001908083835b602083106113bf5780518252601f1990920191602091820191016113a0565b51815160209384036101000a600019018019909216911617905292019384525060408051808503815293909101905250949350505050565b600f810154601090910154604080516020810193909352828101919091528051808303820181526060909201905290565b6000606061143e83600f01548460100154611381565b9050606061144b82611e5d565b905061145e81600063ffffffff611fa516565b60601b949350505050565b60118101546000906001600160a01b031661148e5761148782611198565b9050610bed565b506000610bed565b600060606114a389611ffa565b6114f4576040805162461bcd60e51b815260206004820152601d60248201527f696e76616c696420696e70757420766563746f722070726f7669646564000000604482015290519081900360640190fd5b6114fd886120a4565b61154e576040805162461bcd60e51b815260206004820152601e60248201527f696e76616c6964206f757470757420766563746f722070726f76696465640000604482015290519081900360640190fd5b60006116418b8b8b8b60405160200180856001600160e01b0319166001600160e01b031916815260040184805190602001908083835b602083106115a35780518252601f199092019160209182019101611584565b51815160209384036101000a600019018019909216911617905286519190930192860191508083835b602083106115eb5780518252601f1990920191602091820191016115cc565b6001836020036101000a038019825116818451168082178552505050505050905001826001600160e01b0319166001600160e01b0319168152600401945050505050604051602081830303815290604052612142565b905061164e8c8a89610a11565b92508b6005015461165e84610cc0565b10156116a5576040805162461bcd60e51b815260206004820152601160248201527011195c1bdcda5d081d1bdbc81cdb585b1b607a1b604482015290519081900360640190fd5b6116b28c828888886116fb565b60408051602081019290925260f89790971b6001600160f81b03191681880152600060418201528651808203602401815260449091019096525099939850929650505050505050565b61171961170a610a8d83612290565b8590858563ffffffff6122a516565b6117545760405162461bcd60e51b815260040180806020018281038252603981526020018061287f6039913960400191505060405180910390fd5b61175e8582610eec565b5050505050565b8054604080516329b05a4760e21b815290516000926001600160a01b031691829163a6c1691c91600480820192602092909190829003018186803b158015610c8d57600080fd5b60606000816001825b8560ff168160ff1610156117f4576117db828389510389611a579092919063ffffffff16565b92506117e683612355565b9350908301906001016117b5565b5061180d818288510388611a579092919063ffffffff16565b915061181882612355565b925061182b86828563ffffffff611a5716565b9695505050505050565b606061184a826009600163ffffffff611a5716565b60008151811061185657fe5b016020015160f81c6118e6576000600261186f846123e2565b60008151811061187b57fe5b016020015160f81c0360ff1690508061189d84600a600163ffffffff611a5716565b6000815181106118a957fe5b016020015160f81c146118cc575050604080516020810190915260008152610bed565b6118de83600b8363ffffffff611a5716565b915050610bed565b60006118fb836008600363ffffffff611a5716565b805160209091012060408051621976a960e81b815290519081900360030190209091508114156119c45761193883600b600163ffffffff611a5716565b60008151811061194457fe5b60209101015160f81c60141415806119965750604051808061222b60f21b8152506002019050604051809103902061198c6002855103600286611a579092919063ffffffff16565b8051906020012014155b156119b1575050604080516020810190915260008152610bed565b6118de83600c601463ffffffff611a5716565b604080516205ea4560ea1b81529051908190036003019020811415611a415782516119fc90849060001901600163ffffffff611a5716565b600081518110611a0857fe5b60209101015160f81c608714611a2e575050604080516020810190915260008152610bed565b6118de83600b601463ffffffff611a5716565b5050604080516020810190915260008152919050565b606081830184511015611aa7576040805162461bcd60e51b8152602060048201526013602482015272536c696365206f7574206f6620626f756e647360681b604482015290519081900360640190fd5b606082158015611ac257604051915060208201604052611b0c565b6040519150601f8416801560200281840101858101878315602002848b0101015b81831015611afb578051835260209283019201611ae3565b5050858452601f01601f1916604052505b50949350505050565b80516000908290611b2a575060009050610bed565b50506020015190565b60608082516040519080825280601f01601f191660200182016040528015611b62576020820181803883390190505b50905060005b8351811015611bb957838181518110611b7d57fe5b602001015160f81c60f81b826001838751030381518110611b9a57fe5b60200101906001600160f81b031916908160001a905350600101611b68565b5092915050565b600080805b8351811015611bb9578060010184510360080260020a848281518110611be757fe5b016020015160f81c029190910190600101611bc5565b600082821115611c54576040805162461bcd60e51b815260206004820152601d60248201527f556e646572666c6f7720647572696e67207375627472616374696f6e2e000000604482015290519081900360640190fd5b50900390565b600082611c6957506000610aec565b5081810281838281611c7757fe5b0414610aec576040805162461bcd60e51b815260206004820152601f60248201527f4f766572666c6f7720647572696e67206d756c7469706c69636174696f6e2e00604482015290519081900360640190fd5b6000818381611cd557fe5b049392505050565b60006060611cf4836048600363ffffffff611a5716565b9050600083604b81518110611d0557fe5b016020015160f81c90506000611d1d610cf684611b33565b6002199290920160ff166101000a909102949350505050565b6000610aec61ffff60d01b8363ffffffff611cca16565b60006050825181611d5a57fe5b0615611d695750600019610bed565b5060008080805b6050855181611d7b57fe5b04811015611e43578060500291506060611da183605088611a579092919063ffffffff16565b90508115611dc557611db381856123f7565b611dc557600119945050505050610bed565b6000611dd082611cdd565b9050611ddb82612142565b945080611e09610cf68760405160200180828152602001915050604051602081830303815290604052611b33565b1115611e1e5760021995505050505050610bed565b611e37611e2a82611d36565b879063ffffffff61242316565b95505050600101611d70565b505050919050565b60001990565b60011990565b60021990565b606060036002836040518082805190602001908083835b60208310611e935780518252601f199092019160209182019101611e74565b51815160209384036101000a60001901801990921691161790526040519190930194509192505080830381855afa158015611ed2573d6000803e3d6000fd5b5050506040513d6020811015611ee757600080fd5b50516040805160208181019390935281518082038401815290820191829052805190928291908401908083835b60208310611f335780518252601f199092019160209182019101611f14565b51815160209384036101000a60001901801990921691161790526040519190930194509192505080830381855afa158015611f72573d6000803e3d6000fd5b505060408051805160601b6001600160601b03191660208201528151601481830301815260349091019091529392505050565b60008160140183511015611fea5760405162461bcd60e51b81526004018080602001828103825260218152602001806127a56021913960400191505060405180910390fd5b500160200151600160601b900490565b600060018161201084828463ffffffff611a5716565b60008151811061201c57fe5b016020015160f81c905060fd81101580612037575060ff8116155b1561204757600092505050610bed565b60005b8160ff168160ff16101561209857612078612073848588510388611a579092919063ffffffff16565b61247b565b85519301928311156120905760009350505050610bed565b60010161204a565b50508251149050919050565b60006001816120ba84828463ffffffff611a5716565b6000815181106120c657fe5b016020015160f81c905060fd811015806120e1575060ff8116155b156120f157600092505050610bed565b60005b8160ff168160ff1610156120985761212261211d848588510388611a579092919063ffffffff16565b612355565b855193019283111561213a5760009350505050610bed565b6001016120f4565b6000610aec600280846040518082805190602001908083835b6020831061217a5780518252601f19909201916020918201910161215b565b51815160209384036101000a60001901801990921691161790526040519190930194509192505080830381855afa1580156121b9573d6000803e3d6000fd5b5050506040513d60208110156121ce57600080fd5b50516040805160208181019390935281518082038401815290820191829052805190928291908401908083835b6020831061221a5780518252601f1990920191602091820191016121fb565b51815160209384036101000a60001901801990921691161790526040519190930194509192505080830381855afa158015612259573d6000803e3d6000fd5b5050506040513d602081101561226e57600080fd5b5051604080516020818101939093528151808203909301835281019052611b15565b6060610aec826024602063ffffffff611a5716565b600083851480156122b4575081155b80156122bf57508251155b156122cc5750600161234d565b60608584866040516020018084815260200183805190602001908083835b602083106123095780518252601f1990920191602091820191016122ea565b51815160209384036101000a600019018019909216911617905292019384525060408051808503815293909101905250925061234991508290508461249e565b9150505b949350505050565b60008061236b836008600163ffffffff611a5716565b60008151811061237757fe5b016020015160f81c905060fd81106123d6576040805162461bcd60e51b815260206004820181905260248201527f4d756c74692d6279746520566172496e7473206e6f7420737570706f72746564604482015290519081900360640190fd5b60090160ff1692915050565b6060610aec826008600163ffffffff611a5716565b600080612406610a8d856125dd565b9050828114612419576000915050610aec565b5060019392505050565b81810182811015610aec576040805162461bcd60e51b815260206004820152601960248201527f4f766572666c6f7720647572696e67206164646974696f6e2e00000000000000604482015290519081900360640190fd5b6000806000612489846125f2565b60259190910160ff1601600401949350505050565b600060208351816124ab57fe5b06156124b957506000610aec565b8251602014156124cb57506001610aec565b8251604014156124dd57506000610aec565b825182906000906124ff90610a8d908790601f1901602063ffffffff611a5716565b90506000612518610a8d8783602063ffffffff611a5716565b905060015b865160019061253390602063ffffffff611cca16565b038110156125d357600284066001141561258b5761258461255f8860208085029063ffffffff611a5716565b836040516020018082815260200191505060405160208183030381529060405261266d565b91506125c7565b6040805160208082018590528251808303820181529183019092526125c4916125bf908a908581029063ffffffff611a5716565b61266d565b91505b600193841c930161251d565b5014949350505050565b6060610aec826004602063ffffffff611a5716565b600080606061260a846024600163ffffffff611a5716565b9050600061261782612728565b9050600060ff821661263f578260008151811061263057fe5b016020015160f81c9050612662565b61265f610cf661265a88602560ff871663ffffffff611a5716565b611b33565b90505b909350915050915091565b6000610ad383836040516020018083805190602001908083835b602083106126a65780518252601f199092019160209182019101612687565b51815160209384036101000a600019018019909216911617905285519190930192850191508083835b602083106126ee5780518252601f1990920191602091820191016126cf565b6001836020036101000a03801982511681845116808217855250505050505090500192505050604051602081830303815290604052612142565b60008160008151811061273757fe5b60209101015160f81c60ff141561275057506008610bed565b8160008151811061275d57fe5b60209101015160f81c60fe141561277657506004610bed565b8160008151811061278357fe5b60209101015160f81c60fd141561279c57506002610bed565b50600091905056fe4164647265737320636f6e76657273696f6e206f7574206f6620626f756e64732e636f756c64206e6f74206964656e74696679206f75747075742066756e64696e6720746865207265717569726564207075626c6963206b65792068617368496e73756666696369656e7420616363756d756c6174656420646966666963756c747920696e2068656164657220636861696e6e6f742061742063757272656e74206f722070726576696f757320646966666963756c7479496e76616c6964206c656e677468206f6620746865206865616465727320636861696e5478206d65726b6c652070726f6f66206973206e6f742076616c696420666f722070726f76696465642068656164657220616e642074784964a265627a7a72305820cc045f79a89bf5b0d350e0426d2952ec5fde8d977da3e175e9be22660d76c56d64736f6c634300050a0032",
  "source": "pragma solidity ^0.5.10;\n\nimport {ValidateSPV} from \"@summa-tx/bitcoin-spv-sol/contracts/ValidateSPV.sol\";\nimport {SafeMath} from \"@summa-tx/bitcoin-spv-sol/contracts/SafeMath.sol\";\nimport {BTCUtils} from \"@summa-tx/bitcoin-spv-sol/contracts/BTCUtils.sol\";\nimport {BytesLib} from \"@summa-tx/bitcoin-spv-sol/contracts/BytesLib.sol\";\nimport {DepositStates} from \"./DepositStates.sol\";\nimport {TBTCConstants} from \"./TBTCConstants.sol\";\nimport {ITBTCSystem} from \"../interfaces/ITBTCSystem.sol\";\nimport {IERC721} from \"openzeppelin-solidity/contracts/token/ERC721/IERC721.sol\";\nimport {IECDSAKeep} from \"@keep-network/keep-ecdsa/contracts/api/IECDSAKeep.sol\";\nimport {IBondedECDSAKeep} from \"../external/IBondedECDSAKeep.sol\";\nimport {TBTCToken} from \"../system/TBTCToken.sol\";\nimport {FeeRebateToken} from \"../system/FeeRebateToken.sol\";\n\nlibrary DepositUtils {\n\n    using SafeMath for uint256;\n    using BytesLib for bytes;\n    using BTCUtils for bytes;\n    using BTCUtils for uint256;\n    using ValidateSPV for bytes;\n    using ValidateSPV for bytes32;\n    using DepositStates for DepositUtils.Deposit;\n\n    struct Deposit {\n\n        // SET DURING CONSTRUCTION\n        address TBTCSystem;\n        address TBTCToken;\n        address TBTCDepositToken;\n        address FeeRebateToken;\n        address VendingMachine;\n        uint256 lotSizeSatoshis;\n        uint8 currentState;\n        uint256 signerFeeDivisor;\n        uint128 undercollateralizedThresholdPercent;\n        uint128 severelyUndercollateralizedThresholdPercent;\n\n        // SET ON FRAUD\n        uint256 liquidationInitiated;  // Timestamp of when liquidation starts\n        uint256 courtesyCallInitiated; // When the courtesy call is issued\n        address payable liquidationInitiator;\n\n        // written when we request a keep\n        address keepAddress;  // The address of our keep contract\n        uint256 signingGroupRequestedAt;  // timestamp of signing group request\n\n        // written when we get a keep result\n        uint256 fundingProofTimerStart;  // start of the funding proof period. reused for funding fraud proof period\n        bytes32 signingGroupPubkeyX;  // The X coordinate of the signing group's pubkey\n        bytes32 signingGroupPubkeyY;  // The Y coordinate of the signing group's pubkey\n\n        // INITIALLY WRITTEN BY REDEMPTION FLOW\n        address payable redeemerAddress;  // The redeemer's address, used as fallback for fraud in redemption\n        bytes20 redeemerPKH;  // The 20-byte redeemer PKH\n        uint256 initialRedemptionFee;  // the initial fee as requested\n        uint256 withdrawalRequestTime;  // the most recent withdrawal request timestamp\n        bytes32 lastRequestedDigest;  // the digest most recently requested for signing\n\n        // written when we get funded\n        bytes8 utxoSizeBytes;  // LE uint. the size of the deposit UTXO in satoshis\n        uint256 fundedAt; // timestamp when funding proof was received\n        bytes utxoOutpoint;  // the 36-byte outpoint of the custodied UTXO\n\n        /// @notice Map of timestamps for transaction digests approved for signing\n        /// @dev Holds a timestamp from the moment when the transaction digest\n        /// was approved for signing\n        mapping (bytes32 => uint256) approvedDigests;\n    }\n\n    /// @notice         Gets the current block difficulty\n    /// @dev            Calls the light relay and gets the current block difficulty\n    /// @return         The difficulty\n    function currentBlockDifficulty(Deposit storage _d) public view returns (uint256) {\n        ITBTCSystem _sys = ITBTCSystem(_d.TBTCSystem);\n        return _sys.fetchRelayCurrentDifficulty();\n    }\n\n    /// @notice         Gets the previous block difficulty\n    /// @dev            Calls the light relay and gets the previous block difficulty\n    /// @return         The difficulty\n    function previousBlockDifficulty(Deposit storage _d) public view returns (uint256) {\n        ITBTCSystem _sys = ITBTCSystem(_d.TBTCSystem);\n        return _sys.fetchRelayPreviousDifficulty();\n    }\n\n    /// @notice                     Evaluates the header difficulties in a proof\n    /// @dev                        Uses the light oracle to source recent difficulty\n    /// @param  _bitcoinHeaders     The header chain to evaluate\n    /// @return                     True if acceptable, otherwise revert\n    function evaluateProofDifficulty(Deposit storage _d, bytes memory _bitcoinHeaders) public view {\n        uint256 _reqDiff;\n        uint256 _current = currentBlockDifficulty(_d);\n        uint256 _previous = previousBlockDifficulty(_d);\n        uint256 _firstHeaderDiff = _bitcoinHeaders.extractTarget().calculateDifficulty();\n\n        if (_firstHeaderDiff == _current) {\n            _reqDiff = _current;\n        } else if (_firstHeaderDiff == _previous) {\n            _reqDiff = _previous;\n        } else {\n            revert(\"not at current or previous difficulty\");\n        }\n\n        uint256 _observedDiff = _bitcoinHeaders.validateHeaderChain();\n\n        require(_observedDiff != ValidateSPV.getErrBadLength(), \"Invalid length of the headers chain\");\n        require(_observedDiff != ValidateSPV.getErrInvalidChain(), \"Invalid headers chain\");\n        require(_observedDiff != ValidateSPV.getErrLowWork(), \"Insufficient work in a header\");\n\n        /* TODO: make this better than 6 */\n        require(\n            _observedDiff >= _reqDiff.mul(TBTCConstants.getTxProofDifficultyFactor()),\n            \"Insufficient accumulated difficulty in header chain\"\n        );\n    }\n\n    /// @notice                 Syntactically check an SPV proof for a bitcoin transaction with its hash (ID)\n    /// @dev                    Stateless SPV Proof verification documented elsewhere (see github.com/summa-tx/bitcoin-spv)\n    /// @param _d               Deposit storage pointer\n    /// @param _txId            The bitcoin txid of the tx that is purportedly included in the header chain\n    /// @param _merkleProof     The merkle proof of inclusion of the tx in the bitcoin block\n    /// @param _txIndexInBlock  The index of the tx in the Bitcoin block (0-indexed)\n    /// @param _bitcoinHeaders  An array of tightly-packed bitcoin headers\n    function checkProofFromTxId(\n        Deposit storage _d,\n        bytes32 _txId,\n        bytes memory _merkleProof,\n        uint256 _txIndexInBlock,\n        bytes memory _bitcoinHeaders\n    ) public view{\n        require(\n            _txId.prove(\n                _bitcoinHeaders.extractMerkleRootLE().toBytes32(),\n                _merkleProof,\n                _txIndexInBlock\n            ),\n            \"Tx merkle proof is not valid for provided header and txId\");\n        // TODO: Update for variable confirmation requirements via Vending Machine.\n        evaluateProofDifficulty(_d, _bitcoinHeaders);\n    }\n\n    /// @notice                     Find and validate funding output in transaction output vector using the index\n    /// @dev                        Gets `_fundingOutputIndex` output from the output vector and validates if it's\n    ///                             Public Key Hash matches a Public Key Hash of the deposit.\n    /// @param _d                   Deposit storage pointer\n    /// @param _txOutputVector      All transaction outputs prepended by the number of outputs encoded as a VarInt, max 0xFC outputs\n    /// @param _fundingOutputIndex  Index of funding output in _txOutputVector\n    /// @return                     Funding value\n    function findAndParseFundingOutput(\n        DepositUtils.Deposit storage _d,\n        bytes memory _txOutputVector,\n        uint8 _fundingOutputIndex\n    ) public view returns (bytes8) {\n        bytes8 _valueBytes;\n        bytes memory _output;\n\n        // Find the output paying the signer PKH\n        _output = _txOutputVector.extractOutputAtIndex(_fundingOutputIndex);\n\n        if (keccak256(_output.extractHash()) == keccak256(abi.encodePacked(signerPKH(_d)))) {\n            _valueBytes = bytes8(_output.slice(0, 8).toBytes32());\n            return _valueBytes;\n        }\n        // If we don't return from inside the loop, we failed.\n        revert(\"could not identify output funding the required public key hash\");\n    }\n\n    /// @notice                     Validates the funding tx and parses information from it\n    /// @dev                        Takes a pre-parsed transaction and calculates values needed to verify funding\n    /// @param  _d                  Deposit storage pointer\n    /// @param _txVersion           Transaction version number (4-byte LE)\n    /// @param _txInputVector       All transaction inputs prepended by the number of inputs encoded as a VarInt, max 0xFC(252) inputs\n    /// @param _txOutputVector      All transaction outputs prepended by the number of outputs encoded as a VarInt, max 0xFC(252) outputs\n    /// @param _txLocktime          Final 4 bytes of the transaction\n    /// @param _fundingOutputIndex  Index of funding output in _txOutputVector (0-indexed)\n    /// @param _merkleProof         The merkle proof of transaction inclusion in a block\n    /// @param _txIndexInBlock      Transaction index in the block (0-indexed)\n    /// @param _bitcoinHeaders      Single bytestring of 80-byte bitcoin headers, lowest height first\n    /// @return                     The 8-byte LE UTXO size in satoshi, the 36byte outpoint\n    function validateAndParseFundingSPVProof(\n        DepositUtils.Deposit storage _d,\n        bytes4 _txVersion,\n        bytes memory _txInputVector,\n        bytes memory _txOutputVector,\n        bytes4 _txLocktime,\n        uint8 _fundingOutputIndex,\n        bytes memory _merkleProof,\n        uint256 _txIndexInBlock,\n        bytes memory _bitcoinHeaders\n    ) public view returns (bytes8 _valueBytes, bytes memory _utxoOutpoint){\n        require(_txInputVector.validateVin(), \"invalid input vector provided\");\n        require(_txOutputVector.validateVout(), \"invalid output vector provided\");\n\n        bytes32 txID = abi.encodePacked(_txVersion, _txInputVector, _txOutputVector, _txLocktime).hash256();\n\n        _valueBytes = findAndParseFundingOutput(_d, _txOutputVector, _fundingOutputIndex);\n\n        require(bytes8LEToUint(_valueBytes) >= _d.lotSizeSatoshis, \"Deposit too small\");\n\n        checkProofFromTxId(_d, txID, _merkleProof, _txIndexInBlock, _bitcoinHeaders);\n\n        // The utxoOutpoint is the LE txID plus the index of the output as a 4-byte LE int\n        // _fundingOutputIndex is a uint8, so we know it is only 1 byte\n        // Therefore, pad with 3 more bytes\n        _utxoOutpoint = abi.encodePacked(txID, _fundingOutputIndex, hex\"000000\");\n    }\n\n    /// @notice Retreive the remaining term of the deposit\n    /// @dev    The value is not guaranteed since block.timestmap can be lightly manipulated by miners.\n    /// @return The remaining term of the deposit in seconds. 0 if already at term\n    function remainingTerm(DepositUtils.Deposit storage _d) public view returns(uint256){\n        uint256 endOfTerm = _d.fundedAt + TBTCConstants.getDepositTerm();\n        if(block.timestamp < endOfTerm ) {\n            return endOfTerm - block.timestamp;\n        }\n        return 0;\n    }\n\n    /// @notice     Calculates the amount of value at auction right now\n    /// @dev        We calculate the % of the auction that has elapsed, then scale the value up\n    /// @param _d   deposit storage pointer\n    /// @return     the value to distribute in the auction at the current time\n    function auctionValue(Deposit storage _d) public view returns (uint256) {\n        uint256 _elapsed = block.timestamp.sub(_d.liquidationInitiated);\n        uint256 _available = address(this).balance;\n        if (_elapsed > TBTCConstants.getAuctionDuration()) {\n            return _available;\n        }\n\n        // This should make a smooth flow from base% to 100%\n        uint256 _basePercentage = TBTCConstants.getAuctionBasePercentage();\n        uint256 _elapsedPercentage = uint256(100).sub(_basePercentage).mul(_elapsed).div(TBTCConstants.getAuctionDuration());\n        uint256 _percentage = _basePercentage + _elapsedPercentage;\n\n        return _available.mul(_percentage).div(100);\n    }\n\n    /// @notice         Gets the lot size in erc20 decimal places (max 18) \n    /// @return         uint256 lot size in erc20 \n    function lotSizeTbtc(Deposit storage _d) public view returns (uint256){\n        return _d.lotSizeSatoshis * TBTCConstants.getSatoshiMultiplier();\n    }\n\n    /// @notice         Determines the fees due to the signers for work performed\n    /// @dev            Signers are paid based on the TBTC issued\n    /// @return         Accumulated fees in smallest TBTC unit (tsat)\n    function signerFee(Deposit storage _d) public view returns (uint256) {\n        return lotSizeTbtc(_d).div(_d.signerFeeDivisor);\n    }\n\n    /// @notice     Determines the amount of TBTC accepted in the auction\n    /// @dev        If redeemerAddress is non-0, that means we came from redemption, and no auction should happen\n    /// @return     The amount of TBTC that must be paid at auction for the signer's bond\n    function auctionTBTCAmount(Deposit storage _d) public view returns (uint256) {\n        if (_d.redeemerAddress == address(0)) {\n            return lotSizeTbtc(_d);\n        } else {\n            return 0;\n        }\n    }\n\n    /// @notice             Determines the prefix to the compressed public key\n    /// @dev                The prefix encodes the parity of the Y coordinate\n    /// @param  _pubkeyY    The Y coordinate of the public key\n    /// @return             The 1-byte prefix for the compressed key\n    function determineCompressionPrefix(bytes32 _pubkeyY) public pure returns (bytes memory) {\n        if(uint256(_pubkeyY) & 1 == 1) {\n            return hex\"03\";  // Odd Y\n        } else {\n            return hex\"02\";  // Even Y\n        }\n    }\n\n    /// @notice             Compresses a public key\n    /// @dev                Converts the 64-byte key to a 33-byte key, bitcoin-style\n    /// @param  _pubkeyX    The X coordinate of the public key\n    /// @param  _pubkeyY    The Y coordinate of the public key\n    /// @return             The 33-byte compressed pubkey\n    function compressPubkey(bytes32 _pubkeyX, bytes32 _pubkeyY) public pure returns (bytes memory) {\n        return abi.encodePacked(determineCompressionPrefix(_pubkeyY), _pubkeyX);\n    }\n\n    /// @notice         Returns the packed public key (64 bytes) for the signing group\n    /// @dev            We store it as 2 bytes32, (2 slots) then repack it on demand\n    /// @return         64 byte public key\n    function signerPubkey(Deposit storage _d) public view returns (bytes memory) {\n        return abi.encodePacked(_d.signingGroupPubkeyX, _d.signingGroupPubkeyY);\n    }\n\n    /// @notice         Returns the Bitcoin pubkeyhash (hash160) for the signing group\n    /// @dev            This is used in bitcoin output scripts for the signers\n    /// @return         20-bytes public key hash\n    function signerPKH(Deposit storage _d) public view returns (bytes20) {\n        bytes memory _pubkey = compressPubkey(_d.signingGroupPubkeyX, _d.signingGroupPubkeyY);\n        bytes memory _digest = _pubkey.hash160();\n        return bytes20(_digest.toAddress(0));  // dirty solidity hack\n    }\n\n    /// @notice         Returns the size of the deposit UTXO in satoshi\n    /// @dev            We store the deposit as bytes8 to make signature checking easier\n    /// @return         UTXO value in satoshi\n    function utxoSize(Deposit storage _d) public view returns (uint256) {\n        return bytes8LEToUint(_d.utxoSizeBytes);\n    }\n\n    /// @notice     Gets the current price of Bitcoin in Ether\n    /// @dev        Polls the price feed via the system contract\n    /// @return     The current price of 1 sat in wei\n    function fetchBitcoinPrice(Deposit storage _d) public view returns (uint256) {\n        ITBTCSystem _sys = ITBTCSystem(_d.TBTCSystem);\n        return _sys.fetchBitcoinPrice();\n    }\n\n    /// @notice     Fetches the Keep's bond amount in wei\n    /// @dev        Calls the keep contract to do so\n    /// @return     The amount of bonded ETH in wei\n    function fetchBondAmount(Deposit storage _d) public view returns (uint256) {\n        IBondedECDSAKeep _keep = IBondedECDSAKeep(_d.keepAddress);\n        return _keep.checkBondAmount(_d.keepAddress);\n    }\n\n    /// @notice         Convert a LE bytes8 to a uint256\n    /// @dev            Do this by converting to bytes, then reversing endianness, then converting to int\n    /// @return         The uint256 represented in LE by the bytes8\n    function bytes8LEToUint(bytes8 _b) public pure returns (uint256) {\n        return abi.encodePacked(_b).reverseEndianness().bytesToUint();\n    }\n\n    /// @notice         Gets timestamp of digest approval for signing\n    /// @dev            Identifies entry in the recorded approvals by keep ID and digest pair\n    /// @param _digest  Digest to check approval for\n    /// @return         Timestamp from the moment of recording the digest for signing.\n    ///                 Returns 0 if the digest was not approved for signing\n    function wasDigestApprovedForSigning(Deposit storage _d, bytes32 _digest) public view returns (uint256) {\n        return _d.approvedDigests[_digest];\n    }\n\n    /// @notice         Looks up the Fee Rebate Token holder.\n    /// @return         The current token holder if the Token exists.\n    ///                 address(0) if the token does not exist.\n    function feeRebateTokenHolder(Deposit storage _d) public view returns (address payable) {\n        FeeRebateToken _feeRebateToken = FeeRebateToken(_d.FeeRebateToken);\n        address tokenHolder;\n        if(_feeRebateToken.exists(uint256(address(this)))){\n            tokenHolder = address(uint160(_feeRebateToken.ownerOf(uint256(address(this)))));\n        }\n        return address(uint160(tokenHolder));\n    }\n\n    /// @notice         Looks up the deposit beneficiary by calling the tBTC system\n    /// @dev            We cast the address to a uint256 to match the 721 standard\n    /// @return         The current deposit beneficiary\n    function depositOwner(Deposit storage _d) public view returns (address payable) {\n        IERC721 _tbtcDepositToken = IERC721(_d.TBTCDepositToken);\n        return address(uint160(_tbtcDepositToken.ownerOf(uint256(address(this)))));\n    }\n\n    /// @notice     Deletes state after termination of redemption process\n    /// @dev        We keep around the redeemer address so we can pay them out\n    function redemptionTeardown(Deposit storage _d) public {\n        // don't 0 redeemerAddress because we use it to calculate auctionTBTCAmount\n        _d.redeemerPKH = bytes20(0);\n        _d.initialRedemptionFee = 0;\n        _d.withdrawalRequestTime = 0;\n        _d.lastRequestedDigest = bytes32(0);\n    }\n\n    /// @notice     Seize the signer bond from the keep contract\n    /// @dev        we check our balance before and after\n    /// @return     the amount of ether seized\n    function seizeSignerBonds(Deposit storage _d) internal returns (uint256) {\n        uint256 _preCallBalance = address(this).balance;\n        IBondedECDSAKeep _keep = IBondedECDSAKeep(_d.keepAddress);\n        _keep.seizeSignerBonds(_d.keepAddress);\n        uint256 _postCallBalance = address(this).balance;\n        require(_postCallBalance > _preCallBalance, \"No funds received, unexpected\");\n        return _postCallBalance.sub(_preCallBalance);\n    }\n\n    /// @notice     Distributes the fee rebate to the Fee Rebate Token owner\n    ///             whenever this is called we are shutting down.\n    function distributeFeeRebate(Deposit storage _d) internal {\n        TBTCToken _tbtc = TBTCToken(_d.TBTCToken);\n\n        address rebateTokenHolder = feeRebateTokenHolder(_d);\n\n        // We didn't escrow a rebate if the redeemer is also the Fee Rebate Token holder\n        if(_d.redeemerAddress == rebateTokenHolder) return;\n\n        // pay out the rebate if it is available\n        if(_tbtc.balanceOf(address(this)) >= signerFee(_d)) {\n            _tbtc.transfer(rebateTokenHolder, signerFee(_d));\n        }\n    }\n\n    /// @notice             pushes ether held by the deposit to the signer group\n    /// @dev                useful for returning bonds to the group, or otherwise paying them\n    /// @param  _ethValue   the amount of ether to send\n    /// @return             true if successful, otherwise revert\n    function pushFundsToKeepGroup(Deposit storage _d, uint256 _ethValue) internal returns (bool) {\n        require(address(this).balance >= _ethValue, \"Not enough funds to send\");\n        IECDSAKeep _keep = IECDSAKeep(_d.keepAddress);\n        _keep.distributeETHToMembers.value(_ethValue)();\n        return true;\n    }\n\n    /// @notice             Get TBTC amount required for redemption assuming _redeemer\n    ///                     is this deposit's TDT owner.\n    /// @param _redeemer    The assumed owner of the deposit's TDT \n    /// @return             The amount in TBTC needed to redeem the deposit.\n    function getOwnerRedemptionTbtcRequirement(DepositUtils.Deposit storage _d, address _redeemer) internal view returns(uint256) {\n        uint256 fee = signerFee(_d);\n        bool inCourtesy = _d.inCourtesyCall();\n        if(remainingTerm(_d) > 0 && !inCourtesy){\n            if(feeRebateTokenHolder(_d) != _redeemer) {\n                return fee;\n            }\n        }\n        uint256 contractTbtcBalance = TBTCToken(_d.TBTCToken).balanceOf(address(this));\n        if(contractTbtcBalance < fee) {\n            return fee.sub(contractTbtcBalance);\n        }\n        return 0;\n    }\n\n    /// @notice             Get TBTC amount required by redemption by a specified _redeemer\n    /// @dev                Will revert if redemption is not possible by msg.sender.\n    /// @param _redeemer    The deposit redeemer. \n    /// @return             The amount in TBTC needed to redeem the deposit.\n    function getRedemptionTbtcRequirement(DepositUtils.Deposit storage _d, address _redeemer) internal view returns(uint256) {\n        bool inCourtesy = _d.inCourtesyCall();\n        if (depositOwner(_d) == _redeemer && !inCourtesy) {\n            return getOwnerRedemptionTbtcRequirement(_d, _redeemer);\n        }\n        require(remainingTerm(_d) == 0 || inCourtesy, \"Only TDT owner can redeem unless deposit is at-term or in COURTESY_CALL\");\n        return lotSizeTbtc(_d);\n    }\n}\n",
  "sourcePath": "/tmp/4dc3a1f35eb2ac0746a4afda14417a7b0cb64f6d/implementation/contracts/deposit/DepositUtils.sol",
  "compiler": {
    "name": "solc",
    "version": "0.5.10+commit.5a6ea5b1.Emscripten.clang"
  },
  "schemaVersion": "3.0.19",
  "updatedAt": "2020-02-06T21:45:07.923Z",
  "networkType": "ethereum",
  "devdoc": {
    "methods": {
      "auctionTBTCAmount(DepositUtils.Deposit storage)": {
        "details": "If redeemerAddress is non-0, that means we came from redemption, and no auction should happen",
        "return": "The amount of TBTC that must be paid at auction for the signer's bond"
      },
      "auctionValue(DepositUtils.Deposit storage)": {
        "details": "We calculate the % of the auction that has elapsed, then scale the value up",
        "params": {
          "_d": "deposit storage pointer"
        },
        "return": "the value to distribute in the auction at the current time"
      },
      "bytes8LEToUint(bytes8)": {
        "details": "Do this by converting to bytes, then reversing endianness, then converting to int",
        "return": "The uint256 represented in LE by the bytes8"
      },
      "checkProofFromTxId(DepositUtils.Deposit storage,bytes32,bytes,uint256,bytes)": {
        "details": "Stateless SPV Proof verification documented elsewhere (see github.com/summa-tx/bitcoin-spv)",
        "params": {
          "_bitcoinHeaders": "An array of tightly-packed bitcoin headers",
          "_d": "Deposit storage pointer",
          "_merkleProof": "The merkle proof of inclusion of the tx in the bitcoin block",
          "_txId": "The bitcoin txid of the tx that is purportedly included in the header chain",
          "_txIndexInBlock": "The index of the tx in the Bitcoin block (0-indexed)"
        }
      },
      "compressPubkey(bytes32,bytes32)": {
        "details": "Converts the 64-byte key to a 33-byte key, bitcoin-style",
        "params": {
          "_pubkeyX": "The X coordinate of the public key",
          "_pubkeyY": "The Y coordinate of the public key"
        },
        "return": "The 33-byte compressed pubkey"
      },
      "currentBlockDifficulty(DepositUtils.Deposit storage)": {
        "details": "Calls the light relay and gets the current block difficulty",
        "return": "The difficulty"
      },
      "depositOwner(DepositUtils.Deposit storage)": {
        "details": "We cast the address to a uint256 to match the 721 standard",
        "return": "The current deposit beneficiary"
      },
      "determineCompressionPrefix(bytes32)": {
        "details": "The prefix encodes the parity of the Y coordinate",
        "params": {
          "_pubkeyY": "The Y coordinate of the public key"
        },
        "return": "The 1-byte prefix for the compressed key"
      },
      "evaluateProofDifficulty(DepositUtils.Deposit storage,bytes)": {
        "details": "Uses the light oracle to source recent difficulty",
        "params": {
          "_bitcoinHeaders": "The header chain to evaluate"
        },
        "return": "True if acceptable, otherwise revert"
      },
      "feeRebateTokenHolder(DepositUtils.Deposit storage)": {
        "return": "The current token holder if the Token exists.                 address(0) if the token does not exist."
      },
      "fetchBitcoinPrice(DepositUtils.Deposit storage)": {
        "details": "Polls the price feed via the system contract",
        "return": "The current price of 1 sat in wei"
      },
      "fetchBondAmount(DepositUtils.Deposit storage)": {
        "details": "Calls the keep contract to do so",
        "return": "The amount of bonded ETH in wei"
      },
      "findAndParseFundingOutput(DepositUtils.Deposit storage,bytes,uint8)": {
        "details": "Gets `_fundingOutputIndex` output from the output vector and validates if it's                             Public Key Hash matches a Public Key Hash of the deposit.",
        "params": {
          "_d": "Deposit storage pointer",
          "_fundingOutputIndex": "Index of funding output in _txOutputVector",
          "_txOutputVector": "All transaction outputs prepended by the number of outputs encoded as a VarInt, max 0xFC outputs"
        },
        "return": "Funding value"
      },
      "lotSizeTbtc(DepositUtils.Deposit storage)": {
        "return": "uint256 lot size in erc20 "
      },
      "previousBlockDifficulty(DepositUtils.Deposit storage)": {
        "details": "Calls the light relay and gets the previous block difficulty",
        "return": "The difficulty"
      },
      "redemptionTeardown(DepositUtils.Deposit storage)": {
        "details": "We keep around the redeemer address so we can pay them out"
      },
      "remainingTerm(DepositUtils.Deposit storage)": {
        "details": "The value is not guaranteed since block.timestmap can be lightly manipulated by miners.",
        "return": "The remaining term of the deposit in seconds. 0 if already at term"
      },
      "signerFee(DepositUtils.Deposit storage)": {
        "details": "Signers are paid based on the TBTC issued",
        "return": "Accumulated fees in smallest TBTC unit (tsat)"
      },
      "signerPKH(DepositUtils.Deposit storage)": {
        "details": "This is used in bitcoin output scripts for the signers",
        "return": "20-bytes public key hash"
      },
      "signerPubkey(DepositUtils.Deposit storage)": {
        "details": "We store it as 2 bytes32, (2 slots) then repack it on demand",
        "return": "64 byte public key"
      },
      "utxoSize(DepositUtils.Deposit storage)": {
        "details": "We store the deposit as bytes8 to make signature checking easier",
        "return": "UTXO value in satoshi"
      },
      "validateAndParseFundingSPVProof(DepositUtils.Deposit storage,bytes4,bytes,bytes,bytes4,uint8,bytes,uint256,bytes)": {
        "details": "Takes a pre-parsed transaction and calculates values needed to verify funding",
        "params": {
          "_bitcoinHeaders": "Single bytestring of 80-byte bitcoin headers, lowest height first",
          "_d": "Deposit storage pointer",
          "_fundingOutputIndex": "Index of funding output in _txOutputVector (0-indexed)",
          "_merkleProof": "The merkle proof of transaction inclusion in a block",
          "_txIndexInBlock": "Transaction index in the block (0-indexed)",
          "_txInputVector": "All transaction inputs prepended by the number of inputs encoded as a VarInt, max 0xFC(252) inputs",
          "_txLocktime": "Final 4 bytes of the transaction",
          "_txOutputVector": "All transaction outputs prepended by the number of outputs encoded as a VarInt, max 0xFC(252) outputs",
          "_txVersion": "Transaction version number (4-byte LE)"
        },
        "return": "The 8-byte LE UTXO size in satoshi, the 36byte outpoint"
      },
      "wasDigestApprovedForSigning(DepositUtils.Deposit storage,bytes32)": {
        "details": "Identifies entry in the recorded approvals by keep ID and digest pair",
        "params": {
          "_digest": "Digest to check approval for"
        },
        "return": "Timestamp from the moment of recording the digest for signing.                 Returns 0 if the digest was not approved for signing"
      }
    }
  },
  "userdoc": {
    "methods": {
      "auctionTBTCAmount(DepositUtils.Deposit storage)": {
        "notice": "Determines the amount of TBTC accepted in the auction"
      },
      "auctionValue(DepositUtils.Deposit storage)": {
        "notice": "Calculates the amount of value at auction right now"
      },
      "bytes8LEToUint(bytes8)": {
        "notice": "Convert a LE bytes8 to a uint256"
      },
      "checkProofFromTxId(DepositUtils.Deposit storage,bytes32,bytes,uint256,bytes)": {
        "notice": "Syntactically check an SPV proof for a bitcoin transaction with its hash (ID)"
      },
      "compressPubkey(bytes32,bytes32)": {
        "notice": "Compresses a public key"
      },
      "currentBlockDifficulty(DepositUtils.Deposit storage)": {
        "notice": "Gets the current block difficulty"
      },
      "depositOwner(DepositUtils.Deposit storage)": {
        "notice": "Looks up the deposit beneficiary by calling the tBTC system"
      },
      "determineCompressionPrefix(bytes32)": {
        "notice": "Determines the prefix to the compressed public key"
      },
      "evaluateProofDifficulty(DepositUtils.Deposit storage,bytes)": {
        "notice": "Evaluates the header difficulties in a proof"
      },
      "feeRebateTokenHolder(DepositUtils.Deposit storage)": {
        "notice": "Looks up the Fee Rebate Token holder."
      },
      "fetchBitcoinPrice(DepositUtils.Deposit storage)": {
        "notice": "Gets the current price of Bitcoin in Ether"
      },
      "fetchBondAmount(DepositUtils.Deposit storage)": {
        "notice": "Fetches the Keep's bond amount in wei"
      },
      "findAndParseFundingOutput(DepositUtils.Deposit storage,bytes,uint8)": {
        "notice": "Find and validate funding output in transaction output vector using the index"
      },
      "lotSizeTbtc(DepositUtils.Deposit storage)": {
        "notice": "Gets the lot size in erc20 decimal places (max 18) "
      },
      "previousBlockDifficulty(DepositUtils.Deposit storage)": {
        "notice": "Gets the previous block difficulty"
      },
      "redemptionTeardown(DepositUtils.Deposit storage)": {
        "notice": "Deletes state after termination of redemption process"
      },
      "remainingTerm(DepositUtils.Deposit storage)": {
        "notice": "Retreive the remaining term of the deposit"
      },
      "signerFee(DepositUtils.Deposit storage)": {
        "notice": "Determines the fees due to the signers for work performed"
      },
      "signerPKH(DepositUtils.Deposit storage)": {
        "notice": "Returns the Bitcoin pubkeyhash (hash160) for the signing group"
      },
      "signerPubkey(DepositUtils.Deposit storage)": {
        "notice": "Returns the packed public key (64 bytes) for the signing group"
      },
      "utxoSize(DepositUtils.Deposit storage)": {
        "notice": "Returns the size of the deposit UTXO in satoshi"
      },
      "validateAndParseFundingSPVProof(DepositUtils.Deposit storage,bytes4,bytes,bytes,bytes4,uint8,bytes,uint256,bytes)": {
        "notice": "Validates the funding tx and parses information from it"
      },
      "wasDigestApprovedForSigning(DepositUtils.Deposit storage,bytes32)": {
        "notice": "Gets timestamp of digest approval for signing"
      }
    }
  }
}