{
  "contractName": "ECDSAKeep",
  "abi": [
    {
      "inputs": [
        {
          "internalType": "address",
          "name": "_owner",
          "type": "address"
        },
        {
          "internalType": "address payable[]",
          "name": "_members",
          "type": "address[]"
        },
        {
          "internalType": "uint256",
          "name": "_honestThreshold",
          "type": "uint256"
        }
      ],
      "payable": false,
      "stateMutability": "nonpayable",
      "type": "constructor"
    },
    {
      "anonymous": false,
      "inputs": [
        {
          "indexed": true,
          "internalType": "address",
          "name": "previousOwner",
          "type": "address"
        },
        {
          "indexed": true,
          "internalType": "address",
          "name": "newOwner",
          "type": "address"
        }
      ],
      "name": "OwnershipTransferred",
      "type": "event"
    },
    {
      "anonymous": false,
      "inputs": [
        {
          "indexed": false,
          "internalType": "bytes",
          "name": "publicKey",
          "type": "bytes"
        }
      ],
      "name": "PublicKeyPublished",
      "type": "event"
    },
    {
      "anonymous": false,
      "inputs": [
        {
          "indexed": false,
          "internalType": "bytes32",
          "name": "digest",
          "type": "bytes32"
        }
      ],
      "name": "SignatureRequested",
      "type": "event"
    },
    {
      "anonymous": false,
      "inputs": [
        {
          "indexed": false,
          "internalType": "bytes32",
          "name": "digest",
          "type": "bytes32"
        },
        {
          "indexed": false,
          "internalType": "bytes32",
          "name": "r",
          "type": "bytes32"
        },
        {
          "indexed": false,
          "internalType": "bytes32",
          "name": "s",
          "type": "bytes32"
        },
        {
          "indexed": false,
          "internalType": "uint8",
          "name": "recoveryID",
          "type": "uint8"
        }
      ],
      "name": "SignatureSubmitted",
      "type": "event"
    },
    {
      "constant": true,
      "inputs": [],
      "name": "isOwner",
      "outputs": [
        {
          "internalType": "bool",
          "name": "",
          "type": "bool"
        }
      ],
      "payable": false,
      "stateMutability": "view",
      "type": "function"
    },
    {
      "constant": true,
      "inputs": [],
      "name": "owner",
      "outputs": [
        {
          "internalType": "address",
          "name": "",
          "type": "address"
        }
      ],
      "payable": false,
      "stateMutability": "view",
      "type": "function"
    },
    {
      "constant": false,
      "inputs": [],
      "name": "renounceOwnership",
      "outputs": [],
      "payable": false,
      "stateMutability": "nonpayable",
      "type": "function"
    },
    {
      "constant": true,
      "inputs": [],
      "name": "signingTimeout",
      "outputs": [
        {
          "internalType": "uint256",
          "name": "",
          "type": "uint256"
        }
      ],
      "payable": false,
      "stateMutability": "view",
      "type": "function"
    },
    {
      "constant": false,
      "inputs": [
        {
          "internalType": "address",
          "name": "newOwner",
          "type": "address"
        }
      ],
      "name": "transferOwnership",
      "outputs": [],
      "payable": false,
      "stateMutability": "nonpayable",
      "type": "function"
    },
    {
      "constant": false,
      "inputs": [
        {
          "internalType": "bytes",
          "name": "_publicKey",
          "type": "bytes"
        }
      ],
      "name": "setPublicKey",
      "outputs": [],
      "payable": false,
      "stateMutability": "nonpayable",
      "type": "function"
    },
    {
      "constant": true,
      "inputs": [],
      "name": "getPublicKey",
      "outputs": [
        {
          "internalType": "bytes",
          "name": "",
          "type": "bytes"
        }
      ],
      "payable": false,
      "stateMutability": "view",
      "type": "function"
    },
    {
      "constant": false,
      "inputs": [
        {
          "internalType": "bytes32",
          "name": "_digest",
          "type": "bytes32"
        }
      ],
      "name": "sign",
      "outputs": [],
      "payable": false,
      "stateMutability": "nonpayable",
      "type": "function"
    },
    {
      "constant": false,
      "inputs": [
        {
          "internalType": "bytes32",
          "name": "_r",
          "type": "bytes32"
        },
        {
          "internalType": "bytes32",
          "name": "_s",
          "type": "bytes32"
        },
        {
          "internalType": "uint8",
          "name": "_recoveryID",
          "type": "uint8"
        }
      ],
      "name": "submitSignature",
      "outputs": [],
      "payable": false,
      "stateMutability": "nonpayable",
      "type": "function"
    },
    {
      "constant": false,
      "inputs": [],
      "name": "distributeETHToMembers",
      "outputs": [],
      "payable": true,
      "stateMutability": "payable",
      "type": "function"
    },
    {
      "constant": false,
      "inputs": [
        {
          "internalType": "address",
          "name": "_tokenAddress",
          "type": "address"
        },
        {
          "internalType": "uint256",
          "name": "_value",
          "type": "uint256"
        }
      ],
      "name": "distributeERC20ToMembers",
      "outputs": [],
      "payable": false,
      "stateMutability": "nonpayable",
      "type": "function"
    }
  ],
  "bytecode": "0x6080604052600a6005553480156200001657600080fd5b50604051620019e4380380620019e4833981810160405260608110156200003c57600080fd5b8101908080519060200190929190805160405193929190846401000000008211156200006757600080fd5b838201915060208201858111156200007e57600080fd5b82518660208202830111640100000000821117156200009c57600080fd5b8083526020830192505050908051906020019060200280838360005b83811015620000d5578082015181840152602081019050620000b8565b5050505090500160405260200180519060200190929190505050336000806101000a81548173ffffffffffffffffffffffffffffffffffffffff021916908373ffffffffffffffffffffffffffffffffffffffff1602179055506000809054906101000a900473ffffffffffffffffffffffffffffffffffffffff1673ffffffffffffffffffffffffffffffffffffffff16600073ffffffffffffffffffffffffffffffffffffffff167f8be0079c531659141344cd1fd0a4f28419497f9722a3daafe3b4186f6b6457e060405160405180910390a3620001bc83620001e560201b60201c565b8160019080519060200190620001d492919062000419565b5080600281905550505050620004ee565b620001f56200027c60201b60201c565b62000268576040517f08c379a00000000000000000000000000000000000000000000000000000000081526004018080602001828103825260208152602001807f4f776e61626c653a2063616c6c6572206973206e6f7420746865206f776e657281525060200191505060405180910390fd5b6200027981620002d360201b60201c565b50565b60008060009054906101000a900473ffffffffffffffffffffffffffffffffffffffff1673ffffffffffffffffffffffffffffffffffffffff163373ffffffffffffffffffffffffffffffffffffffff1614905090565b600073ffffffffffffffffffffffffffffffffffffffff168173ffffffffffffffffffffffffffffffffffffffff1614156200035b576040517f08c379a0000000000000000000000000000000000000000000000000000000008152600401808060200182810382526026815260200180620019be6026913960400191505060405180910390fd5b8073ffffffffffffffffffffffffffffffffffffffff166000809054906101000a900473ffffffffffffffffffffffffffffffffffffffff1673ffffffffffffffffffffffffffffffffffffffff167f8be0079c531659141344cd1fd0a4f28419497f9722a3daafe3b4186f6b6457e060405160405180910390a3806000806101000a81548173ffffffffffffffffffffffffffffffffffffffff021916908373ffffffffffffffffffffffffffffffffffffffff16021790555050565b82805482825590600052602060002090810192821562000495579160200282015b82811115620004945782518260006101000a81548173ffffffffffffffffffffffffffffffffffffffff021916908373ffffffffffffffffffffffffffffffffffffffff160217905550916020019190600101906200043a565b5b509050620004a49190620004a8565b5090565b620004eb91905b80821115620004e757600081816101000a81549073ffffffffffffffffffffffffffffffffffffffff021916905550600101620004af565b5090565b90565b6114c080620004fe6000396000f3fe60806040526004361061009c5760003560e01c80637df2b357116100645780637df2b357146101b85780638da5cb5b1461020a5780638f32d59b14610261578063a91d58b414610290578063b22cd36c14610316578063f2fde38b146103715761009c565b80632e334452146100a15780635c0900e9146101315780636b89b7eb1461015c578063715018a614610166578063799cd3331461017d575b600080fd5b3480156100ad57600080fd5b506100b66103c2565b6040518080602001828103825283818151815260200191508051906020019080838360005b838110156100f65780820151818401526020810190506100db565b50505050905090810190601f1680156101235780820380516001836020036101000a031916815260200191505b509250505060405180910390f35b34801561013d57600080fd5b50610146610464565b6040518082815260200191505060405180910390f35b61016461046a565b005b34801561017257600080fd5b5061017b610596565b005b34801561018957600080fd5b506101b6600480360360208110156101a057600080fd5b81019080803590602001909291905050506106cf565b005b3480156101c457600080fd5b50610208600480360360608110156101db57600080fd5b810190808035906020019092919080359060200190929190803560ff16906020019092919050505061081b565b005b34801561021657600080fd5b5061021f610c14565b604051808273ffffffffffffffffffffffffffffffffffffffff1673ffffffffffffffffffffffffffffffffffffffff16815260200191505060405180910390f35b34801561026d57600080fd5b50610276610c3d565b604051808215151515815260200191505060405180910390f35b34801561029c57600080fd5b50610314600480360360208110156102b357600080fd5b81019080803590602001906401000000008111156102d057600080fd5b8201836020820111156102e257600080fd5b8035906020019184600183028401116401000000008311171561030457600080fd5b9091929391929390505050610c94565b005b34801561032257600080fd5b5061036f6004803603604081101561033957600080fd5b81019080803573ffffffffffffffffffffffffffffffffffffffff16906020019092919080359060200190929190505050610e91565b005b34801561037d57600080fd5b506103c06004803603602081101561039457600080fd5b81019080803573ffffffffffffffffffffffffffffffffffffffff169060200190929190505050611086565b005b606060038054600181600116156101000203166002900480601f01602080910402602001604051908101604052809291908181526020018280546001816001161561010002031660029004801561045a5780601f1061042f5761010080835404028352916020019161045a565b820191906000526020600020905b81548152906001019060200180831161043d57829003601f168201915b5050505050905090565b60055481565b600060018054905090506000610489823461110c90919063ffffffff16565b905060008111610501576040517f08c379a000000000000000000000000000000000000000000000000000000000815260040180806020018281038252601f8152602001807f6469766964656e642076616c7565206d757374206265206e6f6e2d7a65726f0081525060200191505060405180910390fd5b60008090505b828161ffff1610156105915760018161ffff168154811061052457fe5b9060005260206000200160009054906101000a900473ffffffffffffffffffffffffffffffffffffffff1673ffffffffffffffffffffffffffffffffffffffff166108fc839081150290604051600060405180830381858888f19350505050508080600101915050610507565b505050565b61059e610c3d565b610610576040517f08c379a00000000000000000000000000000000000000000000000000000000081526004018080602001828103825260208152602001807f4f776e61626c653a2063616c6c6572206973206e6f7420746865206f776e657281525060200191505060405180910390fd5b600073ffffffffffffffffffffffffffffffffffffffff166000809054906101000a900473ffffffffffffffffffffffffffffffffffffffff1673ffffffffffffffffffffffffffffffffffffffff167f8be0079c531659141344cd1fd0a4f28419497f9722a3daafe3b4186f6b6457e060405160405180910390a360008060006101000a81548173ffffffffffffffffffffffffffffffffffffffff021916908373ffffffffffffffffffffffffffffffffffffffff160217905550565b6106d7610c3d565b610749576040517f08c379a00000000000000000000000000000000000000000000000000000000081526004018080602001828103825260208152602001807f4f776e61626c653a2063616c6c6572206973206e6f7420746865206f776e657281525060200191505060405180910390fd5b61075161119b565b158061076157506107606111a8565b5b6107d3576040517f08c379a000000000000000000000000000000000000000000000000000000000815260040180806020018281038252600e8152602001807f5369676e6572206973206275737900000000000000000000000000000000000081525060200191505060405180910390fd5b43600681905550806004819055507f34f611bedd4f8c135323bbfc4921e3f6e4feb7eef591036eed6af5462e6cfab0816040518082815260200191505060405180910390a150565b6108b43360018054806020026020016040519081016040528092919081815260200182805480156108a157602002820191906000526020600020905b8160009054906101000a900473ffffffffffffffffffffffffffffffffffffffff1673ffffffffffffffffffffffffffffffffffffffff1681526020019060010190808311610857575b50505050506111c690919063ffffffff16565b610926576040517f08c379a000000000000000000000000000000000000000000000000000000000815260040180806020018281038252601d8152602001807f43616c6c6572206973206e6f7420746865206b656570206d656d62657200000081525060200191505060405180910390fd5b61092e61119b565b6109a0576040517f08c379a00000000000000000000000000000000000000000000000000000000081526004018080602001828103825260188152602001807f4e6f74206177616974696e672061207369676e6174757265000000000000000081525060200191505060405180910390fd5b60048160ff16106109fc576040517f08c379a00000000000000000000000000000000000000000000000000000000081526004018080602001828103825260278152602001806114656027913960400191505060405180910390fd5b600081601b019050600160045482868660405160008152602001604052604051808581526020018460ff1660ff1681526020018381526020018281526020019450505050506020604051602081039080840390855afa158015610a63573d6000803e3d6000fd5b5050506020604051035173ffffffffffffffffffffffffffffffffffffffff16610b2660038054600181600116156101000203166002900480601f016020809104026020016040519081016040528092919081815260200182805460018160011615610100020316600290048015610b1c5780601f10610af157610100808354040283529160200191610b1c565b820191906000526020600020905b815481529060010190602001808311610aff57829003601f168201915b5050505050611241565b73ffffffffffffffffffffffffffffffffffffffff1614610baf576040517f08c379a00000000000000000000000000000000000000000000000000000000081526004018080602001828103825260118152602001807f496e76616c6964207369676e617475726500000000000000000000000000000081525060200191505060405180910390fd5b60006006819055507fb19546e9e0b503d103dd4ae295f4d526e9115adf7c902ead329b1f2404efd35f600454858585604051808581526020018481526020018381526020018260ff1660ff16815260200194505050505060405180910390a150505050565b60008060009054906101000a900473ffffffffffffffffffffffffffffffffffffffff16905090565b60008060009054906101000a900473ffffffffffffffffffffffffffffffffffffffff1673ffffffffffffffffffffffffffffffffffffffff163373ffffffffffffffffffffffffffffffffffffffff1614905090565b610d2d336001805480602002602001604051908101604052809291908181526020018280548015610d1a57602002820191906000526020600020905b8160009054906101000a900473ffffffffffffffffffffffffffffffffffffffff1673ffffffffffffffffffffffffffffffffffffffff1681526020019060010190808311610cd0575b50505050506111c690919063ffffffff16565b610d9f576040517f08c379a000000000000000000000000000000000000000000000000000000000815260040180806020018281038252601d8152602001807f43616c6c6572206973206e6f7420746865206b656570206d656d62657200000081525060200191505060405180910390fd5b60408282905014610e18576040517f08c379a00000000000000000000000000000000000000000000000000000000081526004018080602001828103825260208152602001807f5075626c6963206b6579206d757374206265203634206279746573206c6f6e6781525060200191505060405180910390fd5b818160039190610e29929190611399565b507ff62bba8b270bef3e8d0fcebc1f86567664da8ccbd03e8509d6231cc8d63f4b31828260405180806020018281038252848482818152602001925080828437600081840152601f19601f820116905080830192505050935050505060405180910390a15050565b6000829050600060018054905090506000610eb5828561110c90919063ffffffff16565b905060008111610f2d576040517f08c379a000000000000000000000000000000000000000000000000000000000815260040180806020018281038252601f8152602001807f6469766964656e642076616c7565206d757374206265206e6f6e2d7a65726f0081525060200191505060405180910390fd5b60008090505b828161ffff16101561107e578373ffffffffffffffffffffffffffffffffffffffff166323b872dd3360018461ffff1681548110610f6d57fe5b9060005260206000200160009054906101000a900473ffffffffffffffffffffffffffffffffffffffff16856040518463ffffffff1660e01b8152600401808473ffffffffffffffffffffffffffffffffffffffff1673ffffffffffffffffffffffffffffffffffffffff1681526020018373ffffffffffffffffffffffffffffffffffffffff1673ffffffffffffffffffffffffffffffffffffffff1681526020018281526020019350505050602060405180830381600087803b15801561103557600080fd5b505af1158015611049573d6000803e3d6000fd5b505050506040513d602081101561105f57600080fd5b8101908080519060200190929190505050508080600101915050610f33565b505050505050565b61108e610c3d565b611100576040517f08c379a00000000000000000000000000000000000000000000000000000000081526004018080602001828103825260208152602001807f4f776e61626c653a2063616c6c6572206973206e6f7420746865206f776e657281525060200191505060405180910390fd5b61110981611255565b50565b6000808211611183576040517f08c379a000000000000000000000000000000000000000000000000000000000815260040180806020018281038252601a8152602001807f536166654d6174683a206469766973696f6e206279207a65726f00000000000081525060200191505060405180910390fd5b600082848161118e57fe5b0490508091505092915050565b6000806006541415905090565b600080600654141580156111c157506005546006540143115b905090565b600080600090505b8351811015611235578381815181106111e357fe5b602002602001015173ffffffffffffffffffffffffffffffffffffffff168373ffffffffffffffffffffffffffffffffffffffff16141561122857600191505061123b565b80806001019150506111ce565b50600090505b92915050565b6000818051906020012060001c9050919050565b600073ffffffffffffffffffffffffffffffffffffffff168173ffffffffffffffffffffffffffffffffffffffff1614156112db576040517f08c379a000000000000000000000000000000000000000000000000000000000815260040180806020018281038252602681526020018061143f6026913960400191505060405180910390fd5b8073ffffffffffffffffffffffffffffffffffffffff166000809054906101000a900473ffffffffffffffffffffffffffffffffffffffff1673ffffffffffffffffffffffffffffffffffffffff167f8be0079c531659141344cd1fd0a4f28419497f9722a3daafe3b4186f6b6457e060405160405180910390a3806000806101000a81548173ffffffffffffffffffffffffffffffffffffffff021916908373ffffffffffffffffffffffffffffffffffffffff16021790555050565b828054600181600116156101000203166002900490600052602060002090601f016020900481019282601f106113da57803560ff1916838001178555611408565b82800160010185558215611408579182015b828111156114075782358255916020019190600101906113ec565b5b5090506114159190611419565b5090565b61143b91905b8082111561143757600081600090555060010161141f565b5090565b9056fe4f776e61626c653a206e6577206f776e657220697320746865207a65726f20616464726573735265636f76657279204944206d757374206265206f6e65206f66207b302c20312c20322c20337da265627a7a7231582002afbc544014feb799537aa94a3602f89dc8c04b26a7aba74810ddcc66e9f70464736f6c634300050f00324f776e61626c653a206e6577206f776e657220697320746865207a65726f2061646472657373",
  "source": "pragma solidity ^0.5.4;\n\nimport \"openzeppelin-solidity/contracts/ownership/Ownable.sol\";\nimport \"openzeppelin-solidity/contracts/math/SafeMath.sol\";\nimport \"openzeppelin-solidity/contracts/token/ERC20/IERC20.sol\";\nimport \"./api/IECDSAKeep.sol\";\nimport \"./utils/AddressArrayUtils.sol\";\n\n/// @title ECDSA Keep\n/// @notice Contract reflecting an ECDSA keep.\n/// @dev TODO: This is a stub contract - needs to be implemented.\ncontract ECDSAKeep is IECDSAKeep, Ownable {\n    using AddressArrayUtils for address payable[];\n    using SafeMath for uint256;\n\n    // List of keep members' addresses.\n    address payable[] internal members;\n    // Minimum number of honest keep members required to produce a signature.\n    uint256 honestThreshold;\n    // Signer's ECDSA public key serialized to 64-bytes, where X and Y coordinates\n    // are padded with zeros to 32-byte each.\n    bytes publicKey;\n    // Digest requested to be signed. Used to validate submitted signature.\n    bytes32 digest;\n    // Timeout in blocks for a signature to appear on the chain. Blocks are\n    // counted from the moment sign request occurred.\n    uint256 public signingTimeout = 10;\n    // Number of block when signing process was started. Used to track if signing\n    // is in progress. Value `0` indicates that there is no signing process in progress.\n    uint256 internal currentSigningStartBlock;\n\n    // Notification that a signer's public key was published for the keep.\n    event PublicKeyPublished(\n        bytes publicKey\n    );\n\n    // Notification that the keep was requested to sign a digest.\n    event SignatureRequested(\n        bytes32 digest\n    );\n\n    // Notification that the signature has been calculated. Contains a digest which\n    // was used for signature calculation and a signature in a form of r, s and\n    // recovery ID values.\n    // The signature is chain-agnostic. Some chains (e.g. Ethereum and BTC) requires\n    // `v` to be calculated by increasing recovery id by 27. Please consult the\n    // documentation about what the particular chain expects.\n    event SignatureSubmitted(\n        bytes32 digest,\n        bytes32 r,\n        bytes32 s,\n        uint8   recoveryID\n    );\n\n    constructor(\n        address _owner,\n        address payable[] memory _members,\n        uint256 _honestThreshold\n    ) public {\n        transferOwnership(_owner);\n        members = _members;\n        honestThreshold = _honestThreshold;\n    }\n\n    /// @notice Set a signer's public key for the keep.\n    /// @dev Stub implementations.\n    /// @param _publicKey Signer's public key.\n    function setPublicKey(bytes calldata _publicKey) external onlyMember {\n        require(_publicKey.length == 64, \"Public key must be 64 bytes long\");\n        publicKey = _publicKey;\n        emit PublicKeyPublished(_publicKey);\n    }\n\n    /// @notice Returns the keep signer's public key.\n    /// @return Signer's public key.\n    function getPublicKey() external view returns (bytes memory) {\n       return publicKey;\n    }\n\n    /// @notice Calculates a signature over provided digest by the keep.\n    /// @dev Only one signing process can be in progress at a time.\n    /// @param _digest Digest to be signed.\n    function sign(bytes32 _digest) external onlyOwner {\n        require(!isSigningInProgress() || hasSigningTimedOut(), \"Signer is busy\");\n\n        currentSigningStartBlock = block.number;\n        digest = _digest;\n\n        emit SignatureRequested(_digest);\n    }\n\n    /// @notice Submits a signature calculated for the given digest.\n    /// @dev Fails if signature has not been requested or a signature has already\n    /// been submitted.\n    /// @param _r Calculated signature's R value.\n    /// @param _s Calculated signature's S value.\n    /// @param _recoveryID Calculated signature's recovery ID (one of {0, 1, 2, 3}).\n    function submitSignature(\n        bytes32 _r,\n        bytes32 _s,\n        uint8 _recoveryID\n    ) external onlyMember {\n        require(isSigningInProgress(), \"Not awaiting a signature\");\n        require(_recoveryID < 4, \"Recovery ID must be one of {0, 1, 2, 3}\");\n\n        // We add 27 to the recovery ID to align it with ethereum and bitcoin\n        // protocols where 27 is added to recovery ID to indicate usage of\n        // uncompressed public keys.\n        uint8 _v = 27 + _recoveryID;\n\n        // Validate signature.\n        require(\n            publicKeyToAddress(publicKey) == ecrecover(digest, _v, _r, _s),\n            \"Invalid signature\"\n        );\n\n        currentSigningStartBlock = 0;\n\n        emit SignatureSubmitted(digest, _r, _s, _recoveryID);\n    }\n\n    /// @notice Returns true if signing of a digest is currently in progress.\n    function isSigningInProgress() internal view returns (bool) {\n        return currentSigningStartBlock != 0;\n    }\n\n    /// @notice Returns true if the currently ongoing signing process timed out.\n    /// @dev There is a certain timeout for a signature to be produced, see\n    /// `signingTimeout` value.\n    function hasSigningTimedOut() internal view returns (bool) {\n        return currentSigningStartBlock != 0 && block.number > currentSigningStartBlock + signingTimeout;\n    }\n\n    /// @notice Checks if the caller is a keep member.\n    /// @dev Throws an error if called by any account other than one of the members.\n    modifier onlyMember() {\n        require(members.contains(msg.sender), \"Caller is not the keep member\");\n        _;\n    }\n\n    /// @notice Coverts a public key to an ethereum address.\n    /// @param _publicKey Public key provided as 64-bytes concatenation of\n    /// X and Y coordinates (32-bytes each).\n    /// @return Ethereum address.\n    function publicKeyToAddress(bytes memory _publicKey) internal pure returns (address) {\n        // We hash the public key and then truncate last 20 bytes of the digest\n        // which is the ethereum address.\n        return address(uint160(uint256(keccak256(_publicKey))));\n    }\n\n    /// @notice Distributes ETH evenly across all keep members.\n    /// @dev Only the value passed to this function will be distributed.\n    function distributeETHToMembers() external payable {\n        uint256 memberCount = members.length;\n        uint256 dividend = msg.value.div(memberCount);\n\n        require(dividend > 0, \"dividend value must be non-zero\");\n\n        for(uint16 i = 0; i < memberCount; i++){\n            // Using send over transfer to prevent potential fallback revert\n            members[i].send(dividend);\n        }\n    }\n\n    /// @notice Distributes ERC20 token evenly across all keep members.\n    /// @dev This works with any ERC20 token that implements a transferFrom\n    /// function similar to the interface imported here from\n    /// openZeppelin. This function only has authority over pre-approved\n    /// token amount. We don't explicitly check for allowance, SafeMath\n    /// subtraction overflow is enough protection.\n    /// @param _tokenAddress Address of the ERC20 token to distribute.\n    /// @param _value Amount of ERC20 token to distribute.\n    function distributeERC20ToMembers(address _tokenAddress, uint256 _value) external {\n        IERC20 token = IERC20(_tokenAddress);\n\n        uint256 memberCount = members.length;\n        uint256 dividend = _value.div(memberCount);\n\n        require(dividend > 0, \"dividend value must be non-zero\");\n\n        for(uint16 i = 0; i < memberCount; i++){\n            token.transferFrom(msg.sender, members[i], dividend);\n        }\n    }\n}\n",
  "sourcePath": "/tmp/afb24f53ec13e337777c171c2eff3a0440adeab7/solidity/contracts/ECDSAKeep.sol",
  "compiler": {
    "name": "solc",
    "version": "0.5.15+commit.6a57276f.Emscripten.clang"
  },
  "schemaVersion": "3.0.22",
  "updatedAt": "2020-02-06T14:43:32.461Z",
  "devdoc": {
    "details": "TODO: This is a stub contract - needs to be implemented.",
    "methods": {
      "distributeERC20ToMembers(address,uint256)": {
        "details": "This works with any ERC20 token that implements a transferFrom function similar to the interface imported here from openZeppelin. This function only has authority over pre-approved token amount. We don't explicitly check for allowance, SafeMath subtraction overflow is enough protection.",
        "params": {
          "_tokenAddress": "Address of the ERC20 token to distribute.",
          "_value": "Amount of ERC20 token to distribute."
        }
      },
      "distributeETHToMembers()": {
        "details": "Only the value passed to this function will be distributed."
      },
      "getPublicKey()": {
        "return": "Signer's public key."
      },
      "isOwner()": {
        "details": "Returns true if the caller is the current owner."
      },
      "owner()": {
        "details": "Returns the address of the current owner."
      },
      "renounceOwnership()": {
        "details": "Leaves the contract without owner. It will not be possible to call `onlyOwner` functions anymore. Can only be called by the current owner.     * > Note: Renouncing ownership will leave the contract without an owner, thereby removing any functionality that is only available to the owner."
      },
      "setPublicKey(bytes)": {
        "details": "Stub implementations.",
        "params": {
          "_publicKey": "Signer's public key."
        }
      },
      "sign(bytes32)": {
        "details": "Only one signing process can be in progress at a time.",
        "params": {
          "_digest": "Digest to be signed."
        }
      },
      "submitSignature(bytes32,bytes32,uint8)": {
        "details": "Fails if signature has not been requested or a signature has already been submitted.",
        "params": {
          "_r": "Calculated signature's R value.",
          "_recoveryID": "Calculated signature's recovery ID (one of {0, 1, 2, 3}).",
          "_s": "Calculated signature's S value."
        }
      },
      "transferOwnership(address)": {
        "details": "Transfers ownership of the contract to a new account (`newOwner`). Can only be called by the current owner."
      }
    },
    "title": "ECDSA Keep"
  },
  "userdoc": {
    "methods": {
      "distributeERC20ToMembers(address,uint256)": {
        "notice": "Distributes ERC20 token evenly across all keep members."
      },
      "distributeETHToMembers()": {
        "notice": "Distributes ETH evenly across all keep members."
      },
      "getPublicKey()": {
        "notice": "Returns the keep signer's public key."
      },
      "setPublicKey(bytes)": {
        "notice": "Set a signer's public key for the keep."
      },
      "sign(bytes32)": {
        "notice": "Calculates a signature over provided digest by the keep."
      },
      "submitSignature(bytes32,bytes32,uint8)": {
        "notice": "Submits a signature calculated for the given digest."
      }
    },
    "notice": "Contract reflecting an ECDSA keep."
  }
}