{
  "contractName": "ETHUSDPriceFeed",
  "abi": [
    {
      "constant": false,
      "inputs": [
        {
          "name": "_value",
          "type": "uint256"
        }
      ],
      "name": "setValue",
      "outputs": [],
      "payable": false,
      "stateMutability": "nonpayable",
      "type": "function"
    },
    {
      "constant": true,
      "inputs": [],
      "name": "read",
      "outputs": [
        {
          "name": "",
          "type": "uint256"
        }
      ],
      "payable": false,
      "stateMutability": "view",
      "type": "function"
    },
    {
      "constant": false,
      "inputs": [],
      "name": "renounceOwnership",
      "outputs": [],
      "payable": false,
      "stateMutability": "nonpayable",
      "type": "function"
    },
    {
      "constant": true,
      "inputs": [],
      "name": "owner",
      "outputs": [
        {
          "name": "",
          "type": "address"
        }
      ],
      "payable": false,
      "stateMutability": "view",
      "type": "function"
    },
    {
      "constant": true,
      "inputs": [],
      "name": "isOwner",
      "outputs": [
        {
          "name": "",
          "type": "bool"
        }
      ],
      "payable": false,
      "stateMutability": "view",
      "type": "function"
    },
    {
      "constant": false,
      "inputs": [
        {
          "name": "newOwner",
          "type": "address"
        }
      ],
      "name": "transferOwnership",
      "outputs": [],
      "payable": false,
      "stateMutability": "nonpayable",
      "type": "function"
    },
    {
      "anonymous": false,
      "inputs": [
        {
          "indexed": true,
          "name": "previousOwner",
          "type": "address"
        },
        {
          "indexed": true,
          "name": "newOwner",
          "type": "address"
        }
      ],
      "name": "OwnershipTransferred",
      "type": "event"
    }
  ],
  "bytecode": "0x60806040819052600080546001600160a01b03191633178082556001600160a01b0316917f8be0079c531659141344cd1fd0a4f28419497f9722a3daafe3b4186f6b6457e0908290a3610395806100576000396000f3fe608060405234801561001057600080fd5b50600436106100625760003560e01c8063552410771461006757806357de26a414610086578063715018a6146100a05780638da5cb5b146100a85780638f32d59b146100cc578063f2fde38b146100e8575b600080fd5b6100846004803603602081101561007d57600080fd5b503561010e565b005b61008e61016c565b60408051918252519081900360200190f35b610084610172565b6100b0610215565b604080516001600160a01b039092168252519081900360200190f35b6100d4610224565b604080519115158252519081900360200190f35b610084600480360360208110156100fe57600080fd5b50356001600160a01b0316610235565b610116610224565b610167576040805162461bcd60e51b815260206004820181905260248201527f4f776e61626c653a2063616c6c6572206973206e6f7420746865206f776e6572604482015290519081900360640190fd5b600155565b60015490565b61017a610224565b6101cb576040805162461bcd60e51b815260206004820181905260248201527f4f776e61626c653a2063616c6c6572206973206e6f7420746865206f776e6572604482015290519081900360640190fd5b600080546040516001600160a01b03909116907f8be0079c531659141344cd1fd0a4f28419497f9722a3daafe3b4186f6b6457e0908390a3600080546001600160a01b0319169055565b6000546001600160a01b031690565b6000546001600160a01b0316331490565b61023d610224565b61028e576040805162461bcd60e51b815260206004820181905260248201527f4f776e61626c653a2063616c6c6572206973206e6f7420746865206f776e6572604482015290519081900360640190fd5b6102978161029a565b50565b6001600160a01b0381166102df5760405162461bcd60e51b815260040180806020018281038252602681526020018061033b6026913960400191505060405180910390fd5b600080546040516001600160a01b03808516939216917f8be0079c531659141344cd1fd0a4f28419497f9722a3daafe3b4186f6b6457e091a3600080546001600160a01b0319166001600160a01b039290921691909117905556fe4f776e61626c653a206e6577206f776e657220697320746865207a65726f2061646472657373a265627a7a72305820571422fa7d61c5648c689536eb08dd3d96ffbcedcbc195811447cec9946db3e964736f6c634300050a0032",
  "source": "pragma solidity ^0.5.10;\n\nimport \"openzeppelin-solidity/contracts/ownership/Ownable.sol\";\nimport \"../external/IMedianizer.sol\";\n\n/// @notice A mock implementation of a medianizer price oracle\n/// @dev This is used in the Keep testnets only. Mainnet uses the MakerDAO medianizer.\ncontract MockMedianizer is Ownable, IMedianizer {\n    uint256 private value;\n\n    constructor() public {\n    }\n\n    function read()\n        external view\n        returns (uint256)\n    {\n        return value;\n    }\n\n    function setValue(uint256 _value)\n        external onlyOwner\n    {\n        value = _value;\n    }\n}\n\ncontract BTCUSDPriceFeed is MockMedianizer {\n}\n\ncontract ETHUSDPriceFeed is MockMedianizer {\n}\n",
  "sourcePath": "/tmp/4dc3a1f35eb2ac0746a4afda14417a7b0cb64f6d/implementation/contracts/price-feed/MockMedianizer.sol",
  "compiler": {
    "name": "solc",
    "version": "0.5.10+commit.5a6ea5b1.Emscripten.clang"
  },
  "schemaVersion": "3.0.19",
  "updatedAt": "2020-02-06T21:47:08.827Z",
  "networkType": "ethereum",
  "devdoc": {
    "methods": {
      "isOwner()": {
        "details": "Returns true if the caller is the current owner."
      },
      "owner()": {
        "details": "Returns the address of the current owner."
      },
      "renounceOwnership()": {
        "details": "Leaves the contract without owner. It will not be possible to call `onlyOwner` functions anymore. Can only be called by the current owner.     * > Note: Renouncing ownership will leave the contract without an owner, thereby removing any functionality that is only available to the owner."
      },
      "transferOwnership(address)": {
        "details": "Transfers ownership of the contract to a new account (`newOwner`). Can only be called by the current owner."
      }
    }
  },
  "userdoc": {
    "methods": {}
  }
}