{
  "contractName": "PriceOracleV1",
  "abi": [
    {
      "constant": true,
      "inputs": [],
      "name": "operator",
      "outputs": [
        {
          "name": "",
          "type": "address"
        }
      ],
      "payable": false,
      "stateMutability": "view",
      "type": "function",
      "signature": "0x570ca735"
    },
    {
      "constant": true,
      "inputs": [],
      "name": "priceExpiryTime",
      "outputs": [
        {
          "name": "",
          "type": "uint256"
        }
      ],
      "payable": false,
      "stateMutability": "view",
      "type": "function",
      "signature": "0xd04a9d40"
    },
    {
      "inputs": [
        {
          "name": "_operator",
          "type": "address"
        },
        {
          "name": "_defaultPrice",
          "type": "uint128"
        }
      ],
      "payable": false,
      "stateMutability": "nonpayable",
      "type": "constructor",
      "signature": "constructor"
    },
    {
      "anonymous": false,
      "inputs": [
        {
          "indexed": false,
          "name": "price",
          "type": "uint128"
        },
        {
          "indexed": false,
          "name": "priceExpiryTime",
          "type": "uint256"
        }
      ],
      "name": "PriceUpdated",
      "type": "event",
      "signature": "0xa6fa673e7ebd4e1dc9e539a5264544263b2041311693d8bb72e37ae63fd4f73e"
    },
    {
      "constant": true,
      "inputs": [],
      "name": "getPrice",
      "outputs": [
        {
          "name": "",
          "type": "uint128"
        }
      ],
      "payable": false,
      "stateMutability": "view",
      "type": "function",
      "signature": "0x98d5fdca"
    },
    {
      "constant": false,
      "inputs": [
        {
          "name": "_newPrice",
          "type": "uint128"
        }
      ],
      "name": "updatePrice",
      "outputs": [],
      "payable": false,
      "stateMutability": "nonpayable",
      "type": "function",
      "signature": "0x47fe0bcc"
    }
  ],
  "bytecode": "0x608060405234801561001057600080fd5b506040516104e23803806104e28339818101604052604081101561003357600080fd5b50805160209091015160028054600160a060020a031916600160a060020a0390931692909217909155600080546001608060020a0319166001608060020a03909216919091178155615460420160015561044f90819061009390396000f3fe608060405234801561001057600080fd5b5060043610610068577c0100000000000000000000000000000000000000000000000000000000600035046347fe0bcc811461006d578063570ca7351461009e57806398d5fdca146100cf578063d04a9d40146100fc575b600080fd5b61009c6004803603602081101561008357600080fd5b50356fffffffffffffffffffffffffffffffff16610116565b005b6100a6610311565b6040805173ffffffffffffffffffffffffffffffffffffffff9092168252519081900360200190f35b6100d761032d565b604080516fffffffffffffffffffffffffffffffff9092168252519081900360200190f35b6101046103a1565b60408051918252519081900360200190f35b60025473ffffffffffffffffffffffffffffffffffffffff163314610185576040805160e560020a62461bcd02815260206004820152600c60248201527f556e617574686f72697365640000000000000000000000000000000000000000604482015290519081900360640190fd5b60015442610e0f1990910111158061029557600080546101be906fffffffffffffffffffffffffffffffff16606463ffffffff6103a716565b60008054919250906fffffffffffffffffffffffffffffffff908116908516116102105760005461020b906fffffffffffffffffffffffffffffffff90811690861663ffffffff6103ba16565b610238565b600054610238906fffffffffffffffffffffffffffffffff868116911663ffffffff6103ba16565b905081811015610292576040805160e560020a62461bcd02815260206004820181905260248201527f5072696365206368616e6765206973206e65676c696769626c6520283c312529604482015290519081900360640190fd5b50505b600080546fffffffffffffffffffffffffffffffff19166fffffffffffffffffffffffffffffffff84811691909117918290556154604201600181905560408051939092168352602083015280517fa6fa673e7ebd4e1dc9e539a5264544263b2041311693d8bb72e37ae63fd4f73e9281900390910190a15050565b60025473ffffffffffffffffffffffffffffffffffffffff1681565b60006001544210610388576040805160e560020a62461bcd02815260206004820152600d60248201527f5072696365206578706972656400000000000000000000000000000000000000604482015290519081900360640190fd5b506000546fffffffffffffffffffffffffffffffff1690565b60015481565b60008183816103b257fe5b049392505050565b600082821115610414576040805160e560020a62461bcd02815260206004820152601d60248201527f556e646572666c6f7720647572696e67207375627472616374696f6e2e000000604482015290519081900360640190fd5b5090039056fea265627a7a723058200753c4d82ffa3c9a512eb5f3bcf1aee7c25be7f04f598856ad24ac59a19ec36064736f6c634300050a0032",
  "source": "pragma solidity ^0.5.10;\n\nimport {SafeMath} from \"@summa-tx/bitcoin-spv-sol/contracts/SafeMath.sol\";\nimport \"../interfaces/IPriceOracle.sol\";\n\n/// @title BTC-ETH Price Oracle V1\n/// @notice Implements a simple price feed, managed by a trusted operator.\ncontract PriceOracleV1 is IPriceOracle {\n    using SafeMath for uint128;\n\n    // Price of BTC expressed in ETH, denominated in `x` wei to a satoshi.\n    //\n    // A bitcoin has 8 decimal places, the smallest unit a satoshi,\n    // meaning 100 000 000 sat = 1 bitcoin\n    //\n    // An ether by contract, has 18 decimal places, the smallest unit a wei,\n    // meaning 1 000 000 000 000 000 000 wei = 1 ether\n    //\n    // eg. 1 BTC : 32.32 ETH (Jun 2019), which represents:\n    //     100 000 000 sat : 32 320 000 000 000 000 000 wei\n    //               1 sat : 323 200 000 000 wei\n    //               price = 323200000000\n    //\n    // uint128 can store an int of max size 2^128 (3.403 e38)\n    // 38 decimals should be enough to store the price of a satoshi in wei\n    uint128 internal price;\n\n    // The time at which the last price update is not valid for usage.\n    uint256 public priceExpiryTime;\n    uint256 constant PRICE_EXPIRY_PERIOD = 6 hours;\n    uint256 constant PRICE_NEAR_EXPIRY_PERIOD = 1 hours;\n\n    // Trusted user that updates the oracle.\n    address public operator;\n\n    constructor(\n        address _operator,\n        uint128 _defaultPrice\n    ) public {\n        operator = _operator;\n        price = _defaultPrice;\n        priceExpiryTime = block.timestamp + PRICE_EXPIRY_PERIOD;\n    }\n\n    function getPrice() external view returns (uint128) {\n        require(block.timestamp < priceExpiryTime, \"Price expired\");\n        return price;\n    }\n\n    /// @notice Updates the price\n    /// @dev Requires price to differ by at least 1%, unless it is close to expiry\n    function updatePrice(uint128 _newPrice) external {\n        require(msg.sender == operator, \"Unauthorised\");\n\n        bool nearExpiry = (priceExpiryTime - PRICE_NEAR_EXPIRY_PERIOD) <= block.timestamp;\n\n        if(!nearExpiry) {\n            // abs(1 - (p1 / p0)) > 0.01\n            // p0 * 0.01 = minimum delta\n            // 1% = 0.01 = 1/100\n            uint256 minDelta = price.div(100);\n            /* solium-disable */\n            uint256 delta = _newPrice > price\n                            ? _newPrice.sub(price)\n                            : price.sub(_newPrice);\n            /* solium-enable */\n            require(delta >= minDelta, \"Price change is negligible (<1%)\");\n        }\n\n        price = _newPrice;\n        priceExpiryTime = block.timestamp + PRICE_EXPIRY_PERIOD;\n\n        emit PriceUpdated(price, priceExpiryTime);\n    }\n}\n",
  "sourcePath": "/tmp/f57a109eb0a287e0e6cee1957cba8a73380d940e/implementation/contracts/price-oracle/PriceOracleV1.sol",
  "compiler": {
    "name": "solc",
    "version": "0.5.10+commit.5a6ea5b1.Emscripten.clang"
  },
  "schemaVersion": "3.0.2",
  "updatedAt": "2020-01-02T20:37:29.081Z",
  "devdoc": {
    "methods": {
      "updatePrice(uint128)": {
        "details": "Requires price to differ by at least 1%, unless it is close to expiry"
      }
    },
    "title": "BTC-ETH Price Oracle V1"
  },
  "userdoc": {
    "methods": {
      "updatePrice(uint128)": {
        "notice": "Updates the price"
      }
    },
    "notice": "Implements a simple price feed, managed by a trusted operator."
  }
}