{
  "contractName": "TBTCSystem",
  "abi": [
    {
      "constant": false,
      "inputs": [],
      "name": "logCourtesyCalled",
      "outputs": [
        {
          "name": "",
          "type": "bool"
        }
      ],
      "payable": false,
      "stateMutability": "nonpayable",
      "type": "function"
    },
    {
      "constant": false,
      "inputs": [],
      "name": "logExitedCourtesyCall",
      "outputs": [
        {
          "name": "",
          "type": "bool"
        }
      ],
      "payable": false,
      "stateMutability": "nonpayable",
      "type": "function"
    },
    {
      "constant": false,
      "inputs": [
        {
          "name": "_keepAddress",
          "type": "address"
        }
      ],
      "name": "logCreated",
      "outputs": [
        {
          "name": "",
          "type": "bool"
        }
      ],
      "payable": false,
      "stateMutability": "nonpayable",
      "type": "function"
    },
    {
      "constant": false,
      "inputs": [
        {
          "name": "_requester",
          "type": "address"
        },
        {
          "name": "_digest",
          "type": "bytes32"
        },
        {
          "name": "_utxoSize",
          "type": "uint256"
        },
        {
          "name": "_requesterPKH",
          "type": "bytes20"
        },
        {
          "name": "_requestedFee",
          "type": "uint256"
        },
        {
          "name": "_outpoint",
          "type": "bytes"
        }
      ],
      "name": "logRedemptionRequested",
      "outputs": [
        {
          "name": "",
          "type": "bool"
        }
      ],
      "payable": false,
      "stateMutability": "nonpayable",
      "type": "function"
    },
    {
      "constant": false,
      "inputs": [
        {
          "name": "_wasFraud",
          "type": "bool"
        }
      ],
      "name": "logStartedLiquidation",
      "outputs": [
        {
          "name": "",
          "type": "bool"
        }
      ],
      "payable": false,
      "stateMutability": "nonpayable",
      "type": "function"
    },
    {
      "constant": false,
      "inputs": [
        {
          "name": "_txid",
          "type": "bytes32"
        }
      ],
      "name": "logRedeemed",
      "outputs": [
        {
          "name": "",
          "type": "bool"
        }
      ],
      "payable": false,
      "stateMutability": "nonpayable",
      "type": "function"
    },
    {
      "constant": false,
      "inputs": [],
      "name": "renounceOwnership",
      "outputs": [],
      "payable": false,
      "stateMutability": "nonpayable",
      "type": "function"
    },
    {
      "constant": true,
      "inputs": [],
      "name": "priceFeed",
      "outputs": [
        {
          "name": "",
          "type": "address"
        }
      ],
      "payable": false,
      "stateMutability": "view",
      "type": "function"
    },
    {
      "constant": false,
      "inputs": [
        {
          "name": "_signingGroupPubkeyX",
          "type": "bytes32"
        },
        {
          "name": "_signingGroupPubkeyY",
          "type": "bytes32"
        }
      ],
      "name": "logRegisteredPubkey",
      "outputs": [
        {
          "name": "",
          "type": "bool"
        }
      ],
      "payable": false,
      "stateMutability": "nonpayable",
      "type": "function"
    },
    {
      "constant": false,
      "inputs": [],
      "name": "logFunded",
      "outputs": [
        {
          "name": "",
          "type": "bool"
        }
      ],
      "payable": false,
      "stateMutability": "nonpayable",
      "type": "function"
    },
    {
      "constant": true,
      "inputs": [],
      "name": "owner",
      "outputs": [
        {
          "name": "",
          "type": "address"
        }
      ],
      "payable": false,
      "stateMutability": "view",
      "type": "function"
    },
    {
      "constant": true,
      "inputs": [],
      "name": "isOwner",
      "outputs": [
        {
          "name": "",
          "type": "bool"
        }
      ],
      "payable": false,
      "stateMutability": "view",
      "type": "function"
    },
    {
      "constant": true,
      "inputs": [
        {
          "name": "_caller",
          "type": "address"
        }
      ],
      "name": "approvedToLog",
      "outputs": [
        {
          "name": "",
          "type": "bool"
        }
      ],
      "payable": false,
      "stateMutability": "view",
      "type": "function"
    },
    {
      "constant": false,
      "inputs": [],
      "name": "logSetupFailed",
      "outputs": [
        {
          "name": "",
          "type": "bool"
        }
      ],
      "payable": false,
      "stateMutability": "nonpayable",
      "type": "function"
    },
    {
      "constant": false,
      "inputs": [],
      "name": "logLiquidated",
      "outputs": [
        {
          "name": "",
          "type": "bool"
        }
      ],
      "payable": false,
      "stateMutability": "nonpayable",
      "type": "function"
    },
    {
      "constant": true,
      "inputs": [],
      "name": "keepRegistry",
      "outputs": [
        {
          "name": "",
          "type": "address"
        }
      ],
      "payable": false,
      "stateMutability": "view",
      "type": "function"
    },
    {
      "constant": false,
      "inputs": [],
      "name": "logFraudDuringSetup",
      "outputs": [
        {
          "name": "",
          "type": "bool"
        }
      ],
      "payable": false,
      "stateMutability": "nonpayable",
      "type": "function"
    },
    {
      "constant": false,
      "inputs": [
        {
          "name": "newOwner",
          "type": "address"
        }
      ],
      "name": "transferOwnership",
      "outputs": [],
      "payable": false,
      "stateMutability": "nonpayable",
      "type": "function"
    },
    {
      "constant": false,
      "inputs": [
        {
          "name": "_digest",
          "type": "bytes32"
        },
        {
          "name": "_r",
          "type": "bytes32"
        },
        {
          "name": "_s",
          "type": "bytes32"
        }
      ],
      "name": "logGotRedemptionSignature",
      "outputs": [
        {
          "name": "",
          "type": "bool"
        }
      ],
      "payable": false,
      "stateMutability": "nonpayable",
      "type": "function"
    },
    {
      "inputs": [
        {
          "name": "_priceFeed",
          "type": "address"
        }
      ],
      "payable": false,
      "stateMutability": "nonpayable",
      "type": "constructor"
    },
    {
      "anonymous": false,
      "inputs": [
        {
          "indexed": false,
          "name": "_lotSizes",
          "type": "uint256[]"
        }
      ],
      "name": "LotSizesUpdated",
      "type": "event"
    },
    {
      "anonymous": false,
      "inputs": [
        {
          "indexed": false,
          "name": "_allowNewDeposits",
          "type": "bool"
        }
      ],
      "name": "AllowNewDepositsUpdated",
      "type": "event"
    },
    {
      "anonymous": false,
      "inputs": [
        {
          "indexed": false,
          "name": "_signerFeeDivisor",
          "type": "uint256"
        }
      ],
      "name": "SignerFeeDivisorUpdated",
      "type": "event"
    },
    {
      "anonymous": false,
      "inputs": [
        {
          "indexed": false,
          "name": "_undercollateralizedThresholdPercent",
          "type": "uint256"
        },
        {
          "indexed": false,
          "name": "_severelyUndercollateralizedThresholdPercent",
          "type": "uint256"
        }
      ],
      "name": "CollateralizationThresholdsUpdated",
      "type": "event"
    },
    {
      "anonymous": false,
      "inputs": [
        {
          "indexed": true,
          "name": "_depositContractAddress",
          "type": "address"
        },
        {
          "indexed": true,
          "name": "_keepAddress",
          "type": "address"
        },
        {
          "indexed": false,
          "name": "_timestamp",
          "type": "uint256"
        }
      ],
      "name": "Created",
      "type": "event"
    },
    {
      "anonymous": false,
      "inputs": [
        {
          "indexed": true,
          "name": "_depositContractAddress",
          "type": "address"
        },
        {
          "indexed": true,
          "name": "_requester",
          "type": "address"
        },
        {
          "indexed": true,
          "name": "_digest",
          "type": "bytes32"
        },
        {
          "indexed": false,
          "name": "_utxoSize",
          "type": "uint256"
        },
        {
          "indexed": false,
          "name": "_requesterPKH",
          "type": "bytes20"
        },
        {
          "indexed": false,
          "name": "_requestedFee",
          "type": "uint256"
        },
        {
          "indexed": false,
          "name": "_outpoint",
          "type": "bytes"
        }
      ],
      "name": "RedemptionRequested",
      "type": "event"
    },
    {
      "anonymous": false,
      "inputs": [
        {
          "indexed": true,
          "name": "_depositContractAddress",
          "type": "address"
        },
        {
          "indexed": true,
          "name": "_digest",
          "type": "bytes32"
        },
        {
          "indexed": false,
          "name": "_r",
          "type": "bytes32"
        },
        {
          "indexed": false,
          "name": "_s",
          "type": "bytes32"
        },
        {
          "indexed": false,
          "name": "_timestamp",
          "type": "uint256"
        }
      ],
      "name": "GotRedemptionSignature",
      "type": "event"
    },
    {
      "anonymous": false,
      "inputs": [
        {
          "indexed": true,
          "name": "_depositContractAddress",
          "type": "address"
        },
        {
          "indexed": false,
          "name": "_signingGroupPubkeyX",
          "type": "bytes32"
        },
        {
          "indexed": false,
          "name": "_signingGroupPubkeyY",
          "type": "bytes32"
        },
        {
          "indexed": false,
          "name": "_timestamp",
          "type": "uint256"
        }
      ],
      "name": "RegisteredPubkey",
      "type": "event"
    },
    {
      "anonymous": false,
      "inputs": [
        {
          "indexed": true,
          "name": "_depositContractAddress",
          "type": "address"
        },
        {
          "indexed": false,
          "name": "_timestamp",
          "type": "uint256"
        }
      ],
      "name": "SetupFailed",
      "type": "event"
    },
    {
      "anonymous": false,
      "inputs": [
        {
          "indexed": true,
          "name": "_depositContractAddress",
          "type": "address"
        },
        {
          "indexed": false,
          "name": "_timestamp",
          "type": "uint256"
        }
      ],
      "name": "FraudDuringSetup",
      "type": "event"
    },
    {
      "anonymous": false,
      "inputs": [
        {
          "indexed": true,
          "name": "_depositContractAddress",
          "type": "address"
        },
        {
          "indexed": false,
          "name": "_timestamp",
          "type": "uint256"
        }
      ],
      "name": "Funded",
      "type": "event"
    },
    {
      "anonymous": false,
      "inputs": [
        {
          "indexed": true,
          "name": "_depositContractAddress",
          "type": "address"
        },
        {
          "indexed": false,
          "name": "_timestamp",
          "type": "uint256"
        }
      ],
      "name": "CourtesyCalled",
      "type": "event"
    },
    {
      "anonymous": false,
      "inputs": [
        {
          "indexed": true,
          "name": "_depositContractAddress",
          "type": "address"
        },
        {
          "indexed": false,
          "name": "_timestamp",
          "type": "uint256"
        }
      ],
      "name": "ExitedCourtesyCall",
      "type": "event"
    },
    {
      "anonymous": false,
      "inputs": [
        {
          "indexed": true,
          "name": "_depositContractAddress",
          "type": "address"
        },
        {
          "indexed": false,
          "name": "_wasFraud",
          "type": "bool"
        },
        {
          "indexed": false,
          "name": "_timestamp",
          "type": "uint256"
        }
      ],
      "name": "StartedLiquidation",
      "type": "event"
    },
    {
      "anonymous": false,
      "inputs": [
        {
          "indexed": true,
          "name": "_depositContractAddress",
          "type": "address"
        },
        {
          "indexed": true,
          "name": "_txid",
          "type": "bytes32"
        },
        {
          "indexed": false,
          "name": "_timestamp",
          "type": "uint256"
        }
      ],
      "name": "Redeemed",
      "type": "event"
    },
    {
      "anonymous": false,
      "inputs": [
        {
          "indexed": true,
          "name": "_depositContractAddress",
          "type": "address"
        },
        {
          "indexed": false,
          "name": "_timestamp",
          "type": "uint256"
        }
      ],
      "name": "Liquidated",
      "type": "event"
    },
    {
      "anonymous": false,
      "inputs": [
        {
          "indexed": true,
          "name": "previousOwner",
          "type": "address"
        },
        {
          "indexed": true,
          "name": "newOwner",
          "type": "address"
        }
      ],
      "name": "OwnershipTransferred",
      "type": "event"
    },
    {
      "constant": false,
      "inputs": [
        {
          "name": "_keepRegistry",
          "type": "address"
        }
      ],
      "name": "initialize",
      "outputs": [],
      "payable": false,
      "stateMutability": "nonpayable",
      "type": "function"
    },
    {
      "constant": true,
      "inputs": [],
      "name": "getAllowNewDeposits",
      "outputs": [
        {
          "name": "",
          "type": "bool"
        }
      ],
      "payable": false,
      "stateMutability": "view",
      "type": "function"
    },
    {
      "constant": false,
      "inputs": [],
      "name": "emergencyPauseNewDeposits",
      "outputs": [
        {
          "name": "",
          "type": "bool"
        }
      ],
      "payable": false,
      "stateMutability": "nonpayable",
      "type": "function"
    },
    {
      "constant": false,
      "inputs": [],
      "name": "resumeNewDeposits",
      "outputs": [],
      "payable": false,
      "stateMutability": "nonpayable",
      "type": "function"
    },
    {
      "constant": true,
      "inputs": [],
      "name": "getRemainingPauseTerm",
      "outputs": [
        {
          "name": "",
          "type": "uint256"
        }
      ],
      "payable": false,
      "stateMutability": "view",
      "type": "function"
    },
    {
      "constant": false,
      "inputs": [
        {
          "name": "_signerFeeDivisor",
          "type": "uint256"
        }
      ],
      "name": "setSignerFeeDivisor",
      "outputs": [],
      "payable": false,
      "stateMutability": "nonpayable",
      "type": "function"
    },
    {
      "constant": true,
      "inputs": [],
      "name": "getSignerFeeDivisor",
      "outputs": [
        {
          "name": "",
          "type": "uint256"
        }
      ],
      "payable": false,
      "stateMutability": "view",
      "type": "function"
    },
    {
      "constant": false,
      "inputs": [
        {
          "name": "_lotSizes",
          "type": "uint256[]"
        }
      ],
      "name": "setLotSizes",
      "outputs": [],
      "payable": false,
      "stateMutability": "nonpayable",
      "type": "function"
    },
    {
      "constant": true,
      "inputs": [],
      "name": "getAllowedLotSizes",
      "outputs": [
        {
          "name": "",
          "type": "uint256[]"
        }
      ],
      "payable": false,
      "stateMutability": "view",
      "type": "function"
    },
    {
      "constant": true,
      "inputs": [
        {
          "name": "_lotSize",
          "type": "uint256"
        }
      ],
      "name": "isAllowedLotSize",
      "outputs": [
        {
          "name": "",
          "type": "bool"
        }
      ],
      "payable": false,
      "stateMutability": "view",
      "type": "function"
    },
    {
      "constant": false,
      "inputs": [
        {
          "name": "_undercollateralizedThresholdPercent",
          "type": "uint128"
        },
        {
          "name": "_severelyUndercollateralizedThresholdPercent",
          "type": "uint128"
        }
      ],
      "name": "setCollateralizationThresholds",
      "outputs": [],
      "payable": false,
      "stateMutability": "nonpayable",
      "type": "function"
    },
    {
      "constant": true,
      "inputs": [],
      "name": "getUndercollateralizedThresholdPercent",
      "outputs": [
        {
          "name": "",
          "type": "uint128"
        }
      ],
      "payable": false,
      "stateMutability": "view",
      "type": "function"
    },
    {
      "constant": true,
      "inputs": [],
      "name": "getSeverelyUndercollateralizedThresholdPercent",
      "outputs": [
        {
          "name": "",
          "type": "uint128"
        }
      ],
      "payable": false,
      "stateMutability": "view",
      "type": "function"
    },
    {
      "constant": true,
      "inputs": [],
      "name": "fetchBitcoinPrice",
      "outputs": [
        {
          "name": "",
          "type": "uint256"
        }
      ],
      "payable": false,
      "stateMutability": "view",
      "type": "function"
    },
    {
      "constant": true,
      "inputs": [],
      "name": "fetchRelayCurrentDifficulty",
      "outputs": [
        {
          "name": "",
          "type": "uint256"
        }
      ],
      "payable": false,
      "stateMutability": "view",
      "type": "function"
    },
    {
      "constant": true,
      "inputs": [],
      "name": "fetchRelayPreviousDifficulty",
      "outputs": [
        {
          "name": "",
          "type": "uint256"
        }
      ],
      "payable": false,
      "stateMutability": "view",
      "type": "function"
    },
    {
      "constant": false,
      "inputs": [
        {
          "name": "_currentDifficulty",
          "type": "uint256"
        }
      ],
      "name": "submitCurrentDifficulty",
      "outputs": [],
      "payable": false,
      "stateMutability": "nonpayable",
      "type": "function"
    },
    {
      "constant": false,
      "inputs": [
        {
          "name": "_m",
          "type": "uint256"
        },
        {
          "name": "_n",
          "type": "uint256"
        }
      ],
      "name": "requestNewKeep",
      "outputs": [
        {
          "name": "_keepAddress",
          "type": "address"
        }
      ],
      "payable": true,
      "stateMutability": "payable",
      "type": "function"
    }
  ],
  "bytecode": "0x6000805460ff60a01b19908116909155620d2f006002556001600381905560045560068054909116815560c8600755600880547078000000000000000000000000000000006001600160801b0319909116608c176001600160801b0316179055610140604052620186a06080908152620f424060a0526298968060c052634c4b400060e05264b5e620f480610100526305f5e10061012052620000a691600991906200014b565b50348015620000b457600080fd5b5060405162001bd138038062001bd183398181016040526020811015620000da57600080fd5b5051600080546001600160a01b03191633178082556040516001600160a01b039190911691907f8be0079c531659141344cd1fd0a4f28419497f9722a3daafe3b4186f6b6457e0908290a3600680546001600160a01b0319166001600160a01b0392909216919091179055620001c4565b82805482825590600052602060002090810192821562000192579160200282015b8281111562000192578251829064ffffffffff169055916020019190600101906200016c565b50620001a0929150620001a4565b5090565b620001c191905b80821115620001a05760008155600101620001ab565b90565b6119fd80620001d46000396000f3fe60806040526004361061021a5760003560e01c806380f04b8c11610123578063a831c816116100ab578063dab70cb11161006f578063dab70cb1146107b2578063dafd59b2146107c7578063e2c50ad8146107ea578063f2fde38b146107ff578063f760621e146108325761021a565b8063a831c816146106c3578063c15d0328146106d8578063c4d66de814610755578063c8fba24314610788578063d895738d1461079d5761021a565b80638f32d59b116100f25780638f32d59b146106165780639a2ad7491461062b5780639ffb386214610666578063a2cd75da14610699578063a6c1691c146106ae5761021a565b806380f04b8c146105a7578063869f9469146105bc5780638c736503146105ec5780638da5cb5b146106015761021a565b80633cd6fd8b116101a65780636f4fef62116101755780636f4fef62146104f1578063715018a614610522578063741bef1a146105375780637c33fc05146105685780637c9ebf751461057d5761021a565b80633cd6fd8b14610473578063402b783d1461049d57806360e98d59146104b25780636e1ba283146104c75761021a565b806322a147e6116101ed57806322a147e61461030057806322e5724c14610315578063282bfd381461032a5780632b8af6611461035d5780633aac3467146104475761021a565b8063013b0f301461021f578063086c9edd146102465780630bcfd609146102ab5780630d7eb1c4146102d7575b600080fd5b34801561022b57600080fd5b50610234610868565b60408051918252519081900360200190f35b34801561025257600080fd5b5061025b610906565b60408051602080825283518183015283519192839290830191858101910280838360005b8381101561029757818101518382015260200161027f565b505050509050019250505060405180910390f35b3480156102b757600080fd5b506102d5600480360360208110156102ce57600080fd5b503561095e565b005b3480156102e357600080fd5b506102ec610975565b604080519115158252519081900360200190f35b34801561030c57600080fd5b506102ec610985565b34801561032157600080fd5b506102ec6109d8565b34801561033657600080fd5b506102ec6004803603602081101561034d57600080fd5b50356001600160a01b0316610a2b565b34801561036957600080fd5b506102ec600480360360c081101561038057600080fd5b6001600160a01b03823516916020810135916040820135916bffffffffffffffffffffffff19606082013516916080820135919081019060c0810160a08201356401000000008111156103d257600080fd5b8201836020820111156103e457600080fd5b8035906020019184600183028401116401000000008311171561040657600080fd5b91908080601f016020809104026020016040519081016040528093929190818152602001838380828437600092019190915250929550610a8b945050505050565b34801561045357600080fd5b506102ec6004803603602081101561046a57600080fd5b50351515610b94565b34801561047f57600080fd5b506102ec6004803603602081101561049657600080fd5b5035610bee565b3480156104a957600080fd5b50610234610c36565b3480156104be57600080fd5b50610234610c3c565b3480156104d357600080fd5b506102ec600480360360208110156104ea57600080fd5b5035610c42565b3480156104fd57600080fd5b50610506610c98565b604080516001600160801b039092168252519081900360200190f35b34801561052e57600080fd5b506102d5610cae565b34801561054357600080fd5b5061054c610d3f565b604080516001600160a01b039092168252519081900360200190f35b34801561057457600080fd5b506102d5610d4e565b34801561058957600080fd5b506102d5600480360360208110156105a057600080fd5b5035610e4a565b3480156105b357600080fd5b506102ec610f0b565b3480156105c857600080fd5b506102ec600480360360408110156105df57600080fd5b5080359060200135610fdb565b3480156105f857600080fd5b506102ec61103e565b34801561060d57600080fd5b5061054c611091565b34801561062257600080fd5b506102ec6110a0565b34801561063757600080fd5b506102d56004803603604081101561064e57600080fd5b506001600160801b03813581169160200135166110b1565b34801561067257600080fd5b506102ec6004803603602081101561068957600080fd5b50356001600160a01b03166111be565b3480156106a557600080fd5b506105066111c4565b3480156106ba57600080fd5b506102346111d3565b3480156106cf57600080fd5b506102ec611249565b3480156106e457600080fd5b506102d5600480360360208110156106fb57600080fd5b81019060208101813564010000000081111561071657600080fd5b82018360208201111561072857600080fd5b8035906020019184602083028401116401000000008311171561074a57600080fd5b50909250905061129c565b34801561076157600080fd5b506102d56004803603602081101561077857600080fd5b50356001600160a01b03166113c6565b34801561079457600080fd5b506102ec6114a7565b3480156107a957600080fd5b5061054c6114fa565b3480156107be57600080fd5b50610234611509565b61054c600480360360408110156107dd57600080fd5b508035906020013561150f565b3480156107f657600080fd5b506102ec611630565b34801561080b57600080fd5b506102d56004803603602081101561082257600080fd5b50356001600160a01b0316611683565b34801561083e57600080fd5b506102ec6004803603606081101561085557600080fd5b50803590602081013590604001356116d3565b600654600090600160a01b900460ff16156108b45760405162461bcd60e51b81526004018080602001828103825260228152602001806119a76022913960400191505060405180910390fd5b6002546001546108cb90429063ffffffff61173816565b10156108fd576108f86108e96001544261173890919063ffffffff16565b6002549063ffffffff61173816565b610900565b60005b90505b90565b6060600980548060200260200160405190810160405280929190818152602001828054801561095457602002820191906000526020600020905b815481526020019060010190808311610940575b5050505050905090565b806003541461097257600380546004558190555b50565b600654600160a01b900460ff1690565b6000610990336111be565b61099c57506000610903565b60408051428152905133917f6e7b45210b79c12cd1332babd8d86c0bbb9ca898a89ce0404f17064dbfba18c0919081900360200190a250600190565b60006109e3336111be565b6109ef57506000610903565b60408051428152905133917f07f0eaafadb9abb1d28da85d4b4c74f1939fd61b535c7f5ab501f618f07e76ee919081900360200190a250600190565b6000610a36336111be565b610a4257506000610a86565b6040805142815290516001600160a01b0384169133917f822b3073be62c5c7f143c2dcd71ee266434ee935d90a1eec3be34710ac8ec1a29181900360200190a35060015b919050565b6000610a96336111be565b610aa257506000610b8a565b85876001600160a01b0316336001600160a01b03167fc878d7c38ac02179fd80904f0f6c8126ea8659612f4cbb389af37ddf671eb7618888888860405180858152602001846bffffffffffffffffffffffff19166bffffffffffffffffffffffff1916815260200183815260200180602001828103825283818151815260200191508051906020019080838360005b83811015610b49578181015183820152602001610b31565b50505050905090810190601f168015610b765780820380516001836020036101000a031916815260200191505b509550505050505060405180910390a45060015b9695505050505050565b6000610b9f336111be565b610bab57506000610a86565b604080518315158152426020820152815133927fbef11c059eefba82a15aea8a3a89c86fd08d7711c88fa7daea2632a55488510c928290030190a2506001919050565b6000805b600954811015610c2d578260098281548110610c0a57fe5b90600052602060002001541415610c25576001915050610a86565b600101610bf2565b50600092915050565b60045490565b60075490565b6000610c4d336111be565b610c5957506000610a86565b604080514281529051839133917f44b7f176bcc739b54bd0800fe491cbdea19df7d4d6b19c281462e6b4fc5043449181900360200190a3506001919050565b600854600160801b90046001600160801b031690565b610cb66110a0565b610cf5576040805162461bcd60e51b81526020600482018190526024820152600080516020611965833981519152604482015290519081900360640190fd5b600080546040516001600160a01b03909116907f8be0079c531659141344cd1fd0a4f28419497f9722a3daafe3b4186f6b6457e0908390a3600080546001600160a01b0319169055565b6006546001600160a01b031681565b600654600160a01b900460ff1615610d975760405162461bcd60e51b81526004018080602001828103825260228152602001806119a76022913960400191505060405180910390fd5b600254600154610dae90429063ffffffff61173816565b1015610e01576040805162461bcd60e51b815260206004820152601960248201527f4465706f7369747320617265207374696c6c2070617573656400000000000000604482015290519081900360640190fd5b6006805460ff60a01b1916600160a01b179055604080516001815290517f3a854be74be62dd3ba5f0fdb7aa5b535683f999e90cda09ba75a2d99b27225239181900360200190a1565b610e526110a0565b610e91576040805162461bcd60e51b81526020600482018190526024820152600080516020611965833981519152604482015290519081900360640190fd5b60018111610ed05760405162461bcd60e51b81526004018080602001828103825260228152602001806119856022913960400191505060405180910390fd5b60078190556040805182815290517fce91b13d9f5f8867358e76afe3cf3990e98380f7664a37502707f0c49a0b66919181900360200190a150565b6000610f156110a0565b610f54576040805162461bcd60e51b81526020600482018190526024820152600080516020611965833981519152604482015290519081900360640190fd5b60015415610f935760405162461bcd60e51b815260040180806020018281038252603181526020018061189b6031913960400191505060405180910390fd5b426001556006805460ff60a01b19169055604080516000815290517f3a854be74be62dd3ba5f0fdb7aa5b535683f999e90cda09ba75a2d99b27225239181900360200190a190565b6000610fe6336111be565b610ff257506000611038565b60408051848152602081018490524281830152905133917f8ee737ab16909c4e9d1b750814a4393c9f84ab5d3a29c08c313b783fc846ae33919081900360600190a25060015b92915050565b6000611049336111be565b61105557506000610903565b60408051428152905133917f5af8184bef8e4b45eb9f6ed7734d04da38ced226495548f46e0c8ff8d7d9a524919081900360200190a250600190565b6000546001600160a01b031690565b6000546001600160a01b0316331490565b6110b96110a0565b6110f8576040805162461bcd60e51b81526020600482018190526024820152600080516020611965833981519152604482015290519081900360640190fd5b806001600160801b0316826001600160801b0316116111485760405162461bcd60e51b815260040180806020018281038252604c815260200180611919604c913960600191505060405180910390fd5b600880546fffffffffffffffffffffffffffffffff19166001600160801b038481169182178116600160801b9185169182021790925560408051918252602082019290925281517f9b4c978e6a007e6e4bbcb7a4554063b18febe809108978ab4bd73daedf921671929181900390910190a15050565b50600190565b6008546001600160801b031690565b60065460408051634c6afee560e11b815290516000926001600160a01b0316916398d5fdca916004808301926020929190829003018186803b15801561121857600080fd5b505afa15801561122c573d6000803e3d6000fd5b505050506040513d602081101561124257600080fd5b5051905090565b6000611254336111be565b61126057506000610903565b60408051428152905133917f8fd2cfb62a35fccc1ecef829f83a6c2f840b73dad49d3eaaa402909752086d4b919081900360200190a250600190565b6112a46110a0565b6112e3576040805162461bcd60e51b81526020600482018190526024820152600080516020611965833981519152604482015290519081900360640190fd5b60005b8181101561138a578282828181106112fa57fe5b905060200201356305f5e10014156113825761131860098484611835565b507f983da5b984657df012432e537b496120862528ac420d12b4fa10277013999462838360405180806020018281038252848482818152602001925060200280828437600083820152604051601f909101601f19169092018290039550909350505050a1506113c2565b6001016112e6565b5060405162461bcd60e51b81526004018080602001828103825260278152602001806118f26027913960400191505060405180910390fd5b5050565b6113ce6110a0565b61140d576040805162461bcd60e51b81526020600482018190526024820152600080516020611965833981519152604482015290519081900360640190fd5b600054600160a01b900460ff1615611462576040805162461bcd60e51b8152602060048201526013602482015272185b1c9958591e481a5b9a5d1a585b1a5e9959606a1b604482015290519081900360640190fd5b600580546001600160a01b0319166001600160a01b039290921691909117905560008054600160a01b60ff60a01b199182168117909255600680549091169091179055565b60006114b2336111be565b6114be57506000610903565b60408051428152905133917fa5ee7a2b0254fce91deed604506790ed7fa072d0b14cba4859c3bc8955b9caac919081900360200190a250600190565b6005546001600160a01b031681565b60035490565b6005546040805163b2bd5b6d60e01b81526020600482018190526009602483015268045434453414b6565760bc1b6044830152915160009384936001600160a01b039091169263b2bd5b6d9260648083019392829003018186803b15801561157657600080fd5b505afa15801561158a573d6000803e3d6000fd5b505050506040513d60208110156115a057600080fd5b50516040805163d485782760e01b8152600481018690526024810187905233604482015290519192506001600160a01b0383169163d4857827916064808201926020929091908290030181600087803b1580156115fc57600080fd5b505af1158015611610573d6000803e3d6000fd5b505050506040513d602081101561162657600080fd5b5051949350505050565b600061163b336111be565b61164757506000610903565b60408051428152905133917f1e61af503f1d7de21d5300094c18bf8700f82b2951a4d54dd2adda13f6b3da30919081900360200190a250600190565b61168b6110a0565b6116ca576040805162461bcd60e51b81526020600482018190526024820152600080516020611965833981519152604482015290519081900360640190fd5b61097281611795565b60006116de336111be565b6116ea57506000611731565b604080518481526020810184905242818301529051859133917f7f7d7327762d01d2c4a552ea0be2bc5a76264574a80aa78083e691a840e509f29181900360600190a35060015b9392505050565b60008282111561178f576040805162461bcd60e51b815260206004820152601e60248201527f536166654d6174683a207375627472616374696f6e206f766572666c6f770000604482015290519081900360640190fd5b50900390565b6001600160a01b0381166117da5760405162461bcd60e51b81526004018080602001828103825260268152602001806118cc6026913960400191505060405180910390fd5b600080546040516001600160a01b03808516939216917f8be0079c531659141344cd1fd0a4f28419497f9722a3daafe3b4186f6b6457e091a3600080546001600160a01b0319166001600160a01b0392909216919091179055565b828054828255906000526020600020908101928215611870579160200282015b82811115611870578235825591602001919060010190611855565b5061187c929150611880565b5090565b61090391905b8082111561187c576000815560010161188656fe656d657267656e637950617573654e65774465706f736974732063616e206f6e6c792062652063616c6c6564206f6e63654f776e61626c653a206e6577206f776e657220697320746865207a65726f20616464726573734c6f742073697a65206172726179206d75737420616c7761797320636f6e7461696e203142544353657665726520756e646572636f6c6c61746572616c697a6564207468726573686f6c64206d757374206265203e20756e646572636f6c6c61746572616c697a6564207468726573686f6c644f776e61626c653a2063616c6c6572206973206e6f7420746865206f776e65725369676e657220666565206d757374206265206c6f776572207468616e20313030254e6577206465706f73697473206172652063757272656e746c7920616c6c6f776564a265627a7a72305820f86c28b676d70c799d5f3cd04bccdb6590614cc0069527d564d67662acaf3a5064736f6c634300050a0032",
  "source": "/* solium-disable function-order */\npragma solidity ^0.5.10;\n\nimport {IKeepRegistry} from \"@keep-network/keep-ecdsa/contracts/api/IKeepRegistry.sol\";\nimport {IECDSAKeepVendor} from \"@keep-network/keep-ecdsa/contracts/api/IECDSAKeepVendor.sol\";\n\nimport {ITBTCSystem} from \"../interfaces/ITBTCSystem.sol\";\nimport {IBTCETHPriceFeed} from \"../interfaces/IBTCETHPriceFeed.sol\";\nimport {DepositLog} from \"../DepositLog.sol\";\n\nimport \"openzeppelin-solidity/contracts/ownership/Ownable.sol\";\nimport \"openzeppelin-solidity/contracts/math/SafeMath.sol\";\n\ncontract TBTCSystem is Ownable, ITBTCSystem, DepositLog {\n\n    using SafeMath for uint256;\n\n    event LotSizesUpdated(uint256[] _lotSizes);\n    event AllowNewDepositsUpdated(bool _allowNewDeposits);\n    event SignerFeeDivisorUpdated(uint256 _signerFeeDivisor);\n    event CollateralizationThresholdsUpdated(\n        uint256 _undercollateralizedThresholdPercent,\n        uint256 _severelyUndercollateralizedThresholdPercent\n    );\n\n    bool _initialized = false;\n    uint256 pausedTimestamp;\n    uint256 pausedDuration = 10 days;\n\n    uint256 currentDifficulty = 1;\n    uint256 previousDifficulty = 1;\n\n    address public keepRegistry;\n    address public priceFeed;\n\n    // Parameters governed by the TBTCSystem owner\n    bool private allowNewDeposits = false;\n    uint256 private signerFeeDivisor = 200; // 1/200 == 50bps == 0.5% == 0.005\n    uint128 private undercollateralizedThresholdPercent = 140;  // percent\n    uint128 private severelyUndercollateralizedThresholdPercent = 120; // percent\n    uint256[] lotSizesSatoshis = [10**5, 10**6, 10**7, 20**7, 50**7, 10**8]; // [0.001, 0.01, 0.1, 0.2, 0.5, 1.0] BTC\n\n    constructor(address _priceFeed) public {\n        priceFeed = _priceFeed;\n    }\n\n    function initialize(\n        address _keepRegistry\n    ) external onlyOwner {\n        require(!_initialized, \"already initialized\");\n\n        keepRegistry = _keepRegistry;\n        _initialized = true;\n        allowNewDeposits = true;\n    }\n\n    /// @notice gets whether new deposits are allowed\n    function getAllowNewDeposits() external view returns (bool) { return allowNewDeposits; }\n\n    /// @notice One-time-use emergency function to disallow future deposit creation for 10 days. \n    function emergencyPauseNewDeposits() external onlyOwner returns (bool) { \n        require(pausedTimestamp == 0, \"emergencyPauseNewDeposits can only be called once\");\n        pausedTimestamp = block.timestamp;\n        allowNewDeposits = false;\n        emit AllowNewDepositsUpdated(false);\n    }\n\n    /// @notice Anyone can reactivate deposit creations after the pause duration is over.\n    function resumeNewDeposits() public {\n        require(allowNewDeposits == false, \"New deposits are currently allowed\");\n        require(block.timestamp.sub(pausedTimestamp) >= pausedDuration, \"Deposits are still paused\");\n        allowNewDeposits = true;\n        emit AllowNewDepositsUpdated(true);\n    }\n\n    function getRemainingPauseTerm() public view returns (uint256) {\n        require(allowNewDeposits == false, \"New deposits are currently allowed\");\n        return (block.timestamp.sub(pausedTimestamp) >= pausedDuration)?\n            0:\n            pausedDuration.sub(block.timestamp.sub(pausedTimestamp));\n    }\n\n    /// @notice Set the system signer fee divisor.\n    /// @param _signerFeeDivisor The signer fee divisor.\n    function setSignerFeeDivisor(uint256 _signerFeeDivisor)\n        external onlyOwner\n    {\n        require(_signerFeeDivisor > 1, \"Signer fee must be lower than 100%\");\n        signerFeeDivisor = _signerFeeDivisor;\n        emit SignerFeeDivisorUpdated(_signerFeeDivisor);\n    }\n\n    /// @notice Gets the system signer fee divisor.\n    /// @return The signer fee divisor.\n    function getSignerFeeDivisor() external view returns (uint256) { return signerFeeDivisor; }\n\n    /// @notice Set the allowed deposit lot sizes.\n    /// @dev    Lot sizes should be \n    /// @param _lotSizes Array of allowed lot sizes.\n    function setLotSizes(uint256[] calldata _lotSizes) external onlyOwner {\n        for( uint i = 0; i < _lotSizes.length; i++){\n            if (_lotSizes[i] == 10**8){\n                lotSizesSatoshis = _lotSizes;\n                emit LotSizesUpdated(_lotSizes);\n                return;\n            }\n        }\n        revert(\"Lot size array must always contain 1BTC\");\n    }\n\n    /// @notice Gets the allowed lot sizes\n    /// @return Uint256 array of allowed lot sizes \n    function getAllowedLotSizes() external view returns (uint256[] memory){\n        return lotSizesSatoshis;\n    }\n\n    /// @notice Check if a lot size is allowed.\n    /// @param _lotSize Lot size to check.\n    /// @return True if lot size is allowed, false otherwise. \n    function isAllowedLotSize(uint256 _lotSize) external view returns (bool){\n        for( uint i = 0; i < lotSizesSatoshis.length; i++){\n            if (lotSizesSatoshis[i] == _lotSize){\n                return true;\n            }\n        }\n        return false;\n    }\n\n    /// @notice Set the system collateralization levels\n    /// @param _undercollateralizedThresholdPercent first undercollateralization trigger\n    /// @param _severelyUndercollateralizedThresholdPercent second undercollateralization trigger\n    function setCollateralizationThresholds(\n        uint128 _undercollateralizedThresholdPercent,\n        uint128 _severelyUndercollateralizedThresholdPercent\n    ) external onlyOwner {\n        require(\n            _undercollateralizedThresholdPercent > _severelyUndercollateralizedThresholdPercent,\n            \"Severe undercollateralized threshold must be > undercollateralized threshold\"\n        );\n        undercollateralizedThresholdPercent = _undercollateralizedThresholdPercent;\n        severelyUndercollateralizedThresholdPercent = _severelyUndercollateralizedThresholdPercent;\n        emit CollateralizationThresholdsUpdated(\n            _undercollateralizedThresholdPercent,\n            _severelyUndercollateralizedThresholdPercent\n        );\n    }\n\n    /// @notice Get the system undercollateralization level for new deposits\n    function getUndercollateralizedThresholdPercent() external view returns (uint128) {\n        return undercollateralizedThresholdPercent;\n    }\n\n    /// @notice Get the system severe undercollateralization level for new deposits\n    function getSeverelyUndercollateralizedThresholdPercent() external view returns (uint128) {\n        return severelyUndercollateralizedThresholdPercent;\n    }\n\n    // Price Feed\n    function fetchBitcoinPrice() external view returns (uint256) {\n        return IBTCETHPriceFeed(priceFeed).getPrice();\n    }\n\n    // Difficulty Oracle\n    // TODO: This is a workaround. It will be replaced by tbtc-difficulty-oracle.\n    function fetchRelayCurrentDifficulty() external view returns (uint256) {\n        return currentDifficulty;\n    }\n\n    function fetchRelayPreviousDifficulty() external view returns (uint256) {\n        return previousDifficulty;\n    }\n\n    function submitCurrentDifficulty(uint256 _currentDifficulty) public {\n        if (currentDifficulty != _currentDifficulty) {\n            previousDifficulty = currentDifficulty;\n            currentDifficulty = _currentDifficulty;\n        }\n    }\n\n    /// @notice Request a new keep opening.\n    /// @param _m Minimum number of honest keep members required to sign.\n    /// @param _n Number of members in the keep.\n    /// @return Address of a new keep.\n    function requestNewKeep(uint256 _m, uint256 _n)\n        external\n        payable\n        returns (address _keepAddress)\n    {\n        address keepVendorAddress = IKeepRegistry(keepRegistry)\n            .getVendor(\"ECDSAKeep\");\n\n        _keepAddress = IECDSAKeepVendor(keepVendorAddress)\n            .openKeep(_n,_m, msg.sender);\n    }\n}\n",
  "sourcePath": "/tmp/4dc3a1f35eb2ac0746a4afda14417a7b0cb64f6d/implementation/contracts/system/TBTCSystem.sol",
  "compiler": {
    "name": "solc",
    "version": "0.5.10+commit.5a6ea5b1.Emscripten.clang"
  },
  "schemaVersion": "3.0.19",
  "updatedAt": "2020-02-06T21:47:08.791Z",
  "networkType": "ethereum",
  "devdoc": {
    "methods": {
      "approvedToLog(address)": {
        "details": "Calls the system to check if the caller is a Deposit                     We don't require this, so deposits are not bricked if the system borks",
        "params": {
          "_caller": "The address of the calling contract"
        },
        "return": "True if approved, otherwise false"
      },
      "getAllowedLotSizes()": {
        "return": "Uint256 array of allowed lot sizes "
      },
      "getSignerFeeDivisor()": {
        "return": "The signer fee divisor."
      },
      "isAllowedLotSize(uint256)": {
        "params": {
          "_lotSize": "Lot size to check."
        },
        "return": "True if lot size is allowed, false otherwise. "
      },
      "isOwner()": {
        "details": "Returns true if the caller is the current owner."
      },
      "logCourtesyCalled()": {
        "details": "We append the sender, which is the deposit contract that called             returns false if not approved, to prevent accidentally halting Deposit",
        "return": "True if successful, else false"
      },
      "logCreated(address)": {
        "details": "We append the sender, which is the deposit contract that called",
        "params": {
          "_keepAddress": "The address of the associated keep"
        },
        "return": "True if successful, else revert"
      },
      "logExitedCourtesyCall()": {
        "details": "We append the sender, which is the deposit contract that called             returns false if not approved, to prevent accidentally halting Deposit",
        "return": "True if successful, else false"
      },
      "logFraudDuringSetup()": {
        "details": "We append the sender, which is the deposit contract that called             returns false if not approved, to prevent accidentally halting Deposit",
        "return": "True if successful, else false"
      },
      "logFunded()": {
        "details": "We append the sender, which is the deposit contract that called             returns false if not approved, to prevent accidentally halting Deposit",
        "return": "True if successful, else false"
      },
      "logGotRedemptionSignature(bytes32,bytes32,bytes32)": {
        "details": "We append the sender, which is the deposit contract that called",
        "params": {
          "_digest": "signed digest",
          "_r": "signature r value",
          "_s": "signature s value"
        },
        "return": "True if successful, else revert"
      },
      "logLiquidated()": {
        "details": "We append the sender, which is the deposit contract that called             returns false if not approved, to prevent accidentally halting Deposit",
        "return": "True if successful, else false"
      },
      "logRedeemed(bytes32)": {
        "details": "We append the sender, which is the deposit contract that called             returns false if not approved, to prevent accidentally halting Deposit",
        "return": "True if successful, else false"
      },
      "logRedemptionRequested(address,bytes32,uint256,bytes20,uint256,bytes)": {
        "details": "This is the only event without an explicit timestamp",
        "params": {
          "_digest": "The calculated sighash digest",
          "_outpoint": "The 36 byte outpoint",
          "_requestedFee": "The requester or bump-system specified fee",
          "_requester": "The ethereum address of the requester",
          "_requesterPKH": "The requester's 20-byte bitcoin pkh",
          "_utxoSize": "The size of the utxo in sat"
        },
        "return": "True if successful, else revert"
      },
      "logRegisteredPubkey(bytes32,bytes32)": {
        "details": "We append the sender, which is the deposit contract that called             returns false if not approved, to prevent accidentally halting Deposit",
        "return": "True if successful, else false"
      },
      "logSetupFailed()": {
        "details": "We append the sender, which is the deposit contract that called             returns false if not approved, to prevent accidentally halting Deposit",
        "return": "True if successful, else false"
      },
      "logStartedLiquidation(bool)": {
        "details": "We append the sender, which is the deposit contract that called",
        "params": {
          "_wasFraud": "True if liquidating for fraud"
        },
        "return": "True if successful, else revert"
      },
      "owner()": {
        "details": "Returns the address of the current owner."
      },
      "renounceOwnership()": {
        "details": "Leaves the contract without owner. It will not be possible to call `onlyOwner` functions anymore. Can only be called by the current owner.     * > Note: Renouncing ownership will leave the contract without an owner, thereby removing any functionality that is only available to the owner."
      },
      "requestNewKeep(uint256,uint256)": {
        "params": {
          "_m": "Minimum number of honest keep members required to sign.",
          "_n": "Number of members in the keep."
        },
        "return": "Address of a new keep."
      },
      "setCollateralizationThresholds(uint128,uint128)": {
        "params": {
          "_severelyUndercollateralizedThresholdPercent": "second undercollateralization trigger",
          "_undercollateralizedThresholdPercent": "first undercollateralization trigger"
        }
      },
      "setLotSizes(uint256[])": {
        "details": "Lot sizes should be ",
        "params": {
          "_lotSizes": "Array of allowed lot sizes."
        }
      },
      "setSignerFeeDivisor(uint256)": {
        "params": {
          "_signerFeeDivisor": "The signer fee divisor."
        }
      },
      "transferOwnership(address)": {
        "details": "Transfers ownership of the contract to a new account (`newOwner`). Can only be called by the current owner."
      }
    }
  },
  "userdoc": {
    "methods": {
      "approvedToLog(address)": {
        "notice": "Checks if an address is an allowed logger"
      },
      "emergencyPauseNewDeposits()": {
        "notice": "One-time-use emergency function to disallow future deposit creation for 10 days. "
      },
      "getAllowNewDeposits()": {
        "notice": "gets whether new deposits are allowed"
      },
      "getAllowedLotSizes()": {
        "notice": "Gets the allowed lot sizes"
      },
      "getSeverelyUndercollateralizedThresholdPercent()": {
        "notice": "Get the system severe undercollateralization level for new deposits"
      },
      "getSignerFeeDivisor()": {
        "notice": "Gets the system signer fee divisor."
      },
      "getUndercollateralizedThresholdPercent()": {
        "notice": "Get the system undercollateralization level for new deposits"
      },
      "isAllowedLotSize(uint256)": {
        "notice": "Check if a lot size is allowed."
      },
      "logCourtesyCalled()": {
        "notice": "Fires a CourtesyCalled event"
      },
      "logCreated(address)": {
        "notice": "Fires a Created event"
      },
      "logExitedCourtesyCall()": {
        "notice": "Fires a ExitedCourtesyCall event"
      },
      "logFraudDuringSetup()": {
        "notice": "Fires a FraudDuringSetup event"
      },
      "logFunded()": {
        "notice": "Fires a Funded event"
      },
      "logGotRedemptionSignature(bytes32,bytes32,bytes32)": {
        "notice": "Fires a GotRedemptionSignature event"
      },
      "logLiquidated()": {
        "notice": "Fires a Liquidated event"
      },
      "logRedeemed(bytes32)": {
        "notice": "Fires a Redeemed event"
      },
      "logRedemptionRequested(address,bytes32,uint256,bytes20,uint256,bytes)": {
        "notice": "Fires a RedemptionRequested event"
      },
      "logRegisteredPubkey(bytes32,bytes32)": {
        "notice": "Fires a RegisteredPubkey event"
      },
      "logSetupFailed()": {
        "notice": "Fires a SetupFailed event"
      },
      "logStartedLiquidation(bool)": {
        "notice": "Fires a StartedLiquidation event"
      },
      "requestNewKeep(uint256,uint256)": {
        "notice": "Request a new keep opening."
      },
      "resumeNewDeposits()": {
        "notice": "Anyone can reactivate deposit creations after the pause duration is over."
      },
      "setCollateralizationThresholds(uint128,uint128)": {
        "notice": "Set the system collateralization levels"
      },
      "setLotSizes(uint256[])": {
        "notice": "Set the allowed deposit lot sizes."
      },
      "setSignerFeeDivisor(uint256)": {
        "notice": "Set the system signer fee divisor."
      }
    }
  }
}