{
  "contractName": "TBTCConstants",
  "abi": [
    {
      "constant": true,
      "inputs": [],
      "name": "TX_PROOF_DIFFICULTY_FACTOR",
      "outputs": [
        {
          "name": "",
          "type": "uint256"
        }
      ],
      "payable": false,
      "stateMutability": "view",
      "type": "function"
    },
    {
      "constant": true,
      "inputs": [],
      "name": "DEPOSIT_TERM_LENGTH",
      "outputs": [
        {
          "name": "",
          "type": "uint256"
        }
      ],
      "payable": false,
      "stateMutability": "view",
      "type": "function"
    },
    {
      "constant": true,
      "inputs": [],
      "name": "FUNDING_PROOF_TIMEOUT",
      "outputs": [
        {
          "name": "",
          "type": "uint256"
        }
      ],
      "payable": false,
      "stateMutability": "view",
      "type": "function"
    },
    {
      "constant": true,
      "inputs": [],
      "name": "INCREASE_FEE_TIMER",
      "outputs": [
        {
          "name": "",
          "type": "uint256"
        }
      ],
      "payable": false,
      "stateMutability": "view",
      "type": "function"
    },
    {
      "constant": true,
      "inputs": [],
      "name": "AUCTION_BASE_PERCENTAGE",
      "outputs": [
        {
          "name": "",
          "type": "uint256"
        }
      ],
      "payable": false,
      "stateMutability": "view",
      "type": "function"
    },
    {
      "constant": true,
      "inputs": [],
      "name": "FUNDING_FRAUD_PARTIAL_SLASH_DIVISOR",
      "outputs": [
        {
          "name": "",
          "type": "uint256"
        }
      ],
      "payable": false,
      "stateMutability": "view",
      "type": "function"
    },
    {
      "constant": true,
      "inputs": [],
      "name": "REDEMPTION_SIGNATURE_TIMEOUT",
      "outputs": [
        {
          "name": "",
          "type": "uint256"
        }
      ],
      "payable": false,
      "stateMutability": "view",
      "type": "function"
    },
    {
      "constant": true,
      "inputs": [],
      "name": "BENEFICIARY_FEE_DIVISOR",
      "outputs": [
        {
          "name": "",
          "type": "uint256"
        }
      ],
      "payable": false,
      "stateMutability": "view",
      "type": "function"
    },
    {
      "constant": true,
      "inputs": [],
      "name": "FUNDER_BOND_AMOUNT_WEI",
      "outputs": [
        {
          "name": "",
          "type": "uint256"
        }
      ],
      "payable": false,
      "stateMutability": "view",
      "type": "function"
    },
    {
      "constant": true,
      "inputs": [],
      "name": "MINIMUM_REDEMPTION_FEE",
      "outputs": [
        {
          "name": "",
          "type": "uint256"
        }
      ],
      "payable": false,
      "stateMutability": "view",
      "type": "function"
    },
    {
      "constant": true,
      "inputs": [],
      "name": "PERMITTED_FEE_BUMPS",
      "outputs": [
        {
          "name": "",
          "type": "uint256"
        }
      ],
      "payable": false,
      "stateMutability": "view",
      "type": "function"
    },
    {
      "constant": true,
      "inputs": [],
      "name": "FRAUD_FUNDING_PROOF_TIMEOUT",
      "outputs": [
        {
          "name": "",
          "type": "uint256"
        }
      ],
      "payable": false,
      "stateMutability": "view",
      "type": "function"
    },
    {
      "constant": true,
      "inputs": [],
      "name": "AUCTION_DURATION",
      "outputs": [
        {
          "name": "",
          "type": "uint256"
        }
      ],
      "payable": false,
      "stateMutability": "view",
      "type": "function"
    },
    {
      "constant": true,
      "inputs": [],
      "name": "FORMATION_TIMEOUT",
      "outputs": [
        {
          "name": "",
          "type": "uint256"
        }
      ],
      "payable": false,
      "stateMutability": "view",
      "type": "function"
    },
    {
      "constant": true,
      "inputs": [],
      "name": "REDEMPTION_PROOF_TIMEOUT",
      "outputs": [
        {
          "name": "",
          "type": "uint256"
        }
      ],
      "payable": false,
      "stateMutability": "view",
      "type": "function"
    },
    {
      "constant": true,
      "inputs": [],
      "name": "SATOSHI_MULTIPLIER",
      "outputs": [
        {
          "name": "",
          "type": "uint256"
        }
      ],
      "payable": false,
      "stateMutability": "view",
      "type": "function"
    },
    {
      "constant": true,
      "inputs": [],
      "name": "COURTESY_CALL_DURATION",
      "outputs": [
        {
          "name": "",
          "type": "uint256"
        }
      ],
      "payable": false,
      "stateMutability": "view",
      "type": "function"
    },
    {
      "constant": true,
      "inputs": [],
      "name": "getBeneficiaryRewardDivisor",
      "outputs": [
        {
          "name": "",
          "type": "uint256"
        }
      ],
      "payable": false,
      "stateMutability": "pure",
      "type": "function"
    },
    {
      "constant": true,
      "inputs": [],
      "name": "getSatoshiMultiplier",
      "outputs": [
        {
          "name": "",
          "type": "uint256"
        }
      ],
      "payable": false,
      "stateMutability": "pure",
      "type": "function"
    },
    {
      "constant": true,
      "inputs": [],
      "name": "getFundingFraudPartialSlashDivisor",
      "outputs": [
        {
          "name": "",
          "type": "uint256"
        }
      ],
      "payable": false,
      "stateMutability": "pure",
      "type": "function"
    },
    {
      "constant": true,
      "inputs": [],
      "name": "getDepositTerm",
      "outputs": [
        {
          "name": "",
          "type": "uint256"
        }
      ],
      "payable": false,
      "stateMutability": "pure",
      "type": "function"
    },
    {
      "constant": true,
      "inputs": [],
      "name": "getTxProofDifficultyFactor",
      "outputs": [
        {
          "name": "",
          "type": "uint256"
        }
      ],
      "payable": false,
      "stateMutability": "pure",
      "type": "function"
    },
    {
      "constant": true,
      "inputs": [],
      "name": "getSignatureTimeout",
      "outputs": [
        {
          "name": "",
          "type": "uint256"
        }
      ],
      "payable": false,
      "stateMutability": "pure",
      "type": "function"
    },
    {
      "constant": true,
      "inputs": [],
      "name": "getIncreaseFeeTimer",
      "outputs": [
        {
          "name": "",
          "type": "uint256"
        }
      ],
      "payable": false,
      "stateMutability": "pure",
      "type": "function"
    },
    {
      "constant": true,
      "inputs": [],
      "name": "getRedemptionProofTimeout",
      "outputs": [
        {
          "name": "",
          "type": "uint256"
        }
      ],
      "payable": false,
      "stateMutability": "pure",
      "type": "function"
    },
    {
      "constant": true,
      "inputs": [],
      "name": "getMinimumRedemptionFee",
      "outputs": [
        {
          "name": "",
          "type": "uint256"
        }
      ],
      "payable": false,
      "stateMutability": "pure",
      "type": "function"
    },
    {
      "constant": true,
      "inputs": [],
      "name": "getFundingTimeout",
      "outputs": [
        {
          "name": "",
          "type": "uint256"
        }
      ],
      "payable": false,
      "stateMutability": "pure",
      "type": "function"
    },
    {
      "constant": true,
      "inputs": [],
      "name": "getSigningGroupFormationTimeout",
      "outputs": [
        {
          "name": "",
          "type": "uint256"
        }
      ],
      "payable": false,
      "stateMutability": "pure",
      "type": "function"
    },
    {
      "constant": true,
      "inputs": [],
      "name": "getFraudFundingTimeout",
      "outputs": [
        {
          "name": "",
          "type": "uint256"
        }
      ],
      "payable": false,
      "stateMutability": "pure",
      "type": "function"
    },
    {
      "constant": true,
      "inputs": [],
      "name": "getFunderBondAmount",
      "outputs": [
        {
          "name": "",
          "type": "uint256"
        }
      ],
      "payable": false,
      "stateMutability": "pure",
      "type": "function"
    },
    {
      "constant": true,
      "inputs": [],
      "name": "getCourtesyCallTimeout",
      "outputs": [
        {
          "name": "",
          "type": "uint256"
        }
      ],
      "payable": false,
      "stateMutability": "pure",
      "type": "function"
    },
    {
      "constant": true,
      "inputs": [],
      "name": "getAuctionDuration",
      "outputs": [
        {
          "name": "",
          "type": "uint256"
        }
      ],
      "payable": false,
      "stateMutability": "pure",
      "type": "function"
    },
    {
      "constant": true,
      "inputs": [],
      "name": "getAuctionBasePercentage",
      "outputs": [
        {
          "name": "",
          "type": "uint256"
        }
      ],
      "payable": false,
      "stateMutability": "pure",
      "type": "function"
    },
    {
      "constant": true,
      "inputs": [],
      "name": "getPermittedFeeBumps",
      "outputs": [
        {
          "name": "",
          "type": "uint256"
        }
      ],
      "payable": false,
      "stateMutability": "pure",
      "type": "function"
    }
  ],
  "bytecode": "0x6103e6610026600b82828239805160001a60731461001957fe5b30600052607381538281f3fe73000000000000000000000000000000000000000030146080604052600436106102105760003560e01c806386322af711610124578063ae9eb127116100b7578063cdf9505011610086578063cdf950501461024f578063d565d1f1146102ef578063d891dcdb146102f7578063f653c0b9146102ff578063fc94f1d6146102cf57610210565b8063ae9eb127146102d7578063c342b1f71461024f578063c4572eb9146102df578063c7ba0347146102e757610210565b8063a1f6c639116100f3578063a1f6c639146102bf578063a271e525146102c7578063a99b528314610237578063ac8bfdad146102cf57610210565b806386322af7146102af578063866a5400146102375780639887426d146102675780639b3fd99f146102b757610210565b80635480b4b2116101a75780636da1dda2116101765780636da1dda2146102875780637196e87b1461028f578063741b5e4c1461029757806378cb51af1461029f5780637b9adf7c146102a757610210565b80635480b4b214610267578063582d10711461026f5780635b6b452a14610277578063655649201461027f57610210565b806328f76894116101e357806328f768941461024757806338c860931461024f5780634136c1e7146102575780634145cf8e1461025f57610210565b806302b7044b146102155780630a913dea1461022f57806312aeac8314610237578063242c0ed01461023f575b600080fd5b61021d610307565b60408051918252519081900360200190f35b61021d61030c565b61021d610313565b61021d610319565b61021d61031f565b61021d610324565b61021d61032a565b61021d61032f565b61021d610336565b61021d61033c565b61021d610341565b61021d610347565b61021d61034c565b61021d610352565b61021d610359565b61021d61035e565b61021d610365565b61021d61036a565b61021d61036f565b61021d610374565b61021d61037a565b61021d610381565b61021d610387565b61021d610390565b61021d610395565b61021d61039e565b61021d6103a5565b61021d6103ab565b600181565b62ed4e0081565b612a3081565b61384081565b600590565b612a3090565b605a81565b620186a090565b61546090565b600281565b611c2081565b600290565b6103e881565b620186a081565b609681565b6201518090565b600581565b609690565b600190565b6103e890565b6201518081565b61546081565b6402540be40090565b605a90565b6402540be40081565b62ed4e0090565b611c2090565b6138409056fea265627a7a723058206aa8835d9905353d67ca27cab9e55bc173470f74f49f892a872d5623704ed6da64736f6c634300050a0032",
  "source": "pragma solidity ^0.5.10;\n\nlibrary TBTCConstants {\n\n    // This is intended to make it easy to update system params\n    // During testing swap this out with another constats contract\n\n    // System Parameters\n    uint256 public constant BENEFICIARY_FEE_DIVISOR = 1000;  // 1/1000 = 10 bps = 0.1% = 0.001\n    uint256 public constant SATOSHI_MULTIPLIER = 10 ** 10; // multiplier to convert satoshi to TBTC token units\n    uint256 public constant FUNDING_FRAUD_PARTIAL_SLASH_DIVISOR = 2;  // 1/2 = 5000bps = 50% = 0.5\n    uint256 public constant DEPOSIT_TERM_LENGTH = 180 * 24 * 60 * 60; // 180 days in seconds\n    uint256 public constant TX_PROOF_DIFFICULTY_FACTOR = 1; // TODO: decreased for testing, original value: `6`\n\n    // Redemption Flow\n    uint256 public constant REDEMPTION_SIGNATURE_TIMEOUT = 2 * 60 * 60;  // seconds\n    uint256 public constant INCREASE_FEE_TIMER = 4 * 60 * 60;  // seconds\n    uint256 public constant REDEMPTION_PROOF_TIMEOUT = 6 * 60 * 60;  // seconds\n    uint256 public constant MINIMUM_REDEMPTION_FEE = 150; // satoshi TODO: decreased for testing, set it back original value `2000`\n\n    // Funding Flow\n    uint256 public constant FUNDING_PROOF_TIMEOUT = 3 * 60 * 60; // seconds\n    uint256 public constant FORMATION_TIMEOUT = 3 * 60 * 60; // seconds\n    uint256 public constant FRAUD_FUNDING_PROOF_TIMEOUT = 3 * 60 * 60; // seconds\n    uint256 public constant FUNDER_BOND_AMOUNT_WEI = 10 ** 5; // wei\n\n    // Liquidation Flow\n    uint256 public constant COURTESY_CALL_DURATION = 6 * 60 * 60; // seconds\n    uint256 public constant AUCTION_DURATION = 24 * 60 * 60; // seconds\n    uint256 public constant AUCTION_BASE_PERCENTAGE = 90; // percents\n    uint256 public constant PERMITTED_FEE_BUMPS = 5; // number of times the fee can be increased\n\n    // Getters for easy access\n    function getBeneficiaryRewardDivisor() public pure returns (uint256) { return BENEFICIARY_FEE_DIVISOR; }\n    function getSatoshiMultiplier() public pure returns (uint256) { return SATOSHI_MULTIPLIER; }\n    function getFundingFraudPartialSlashDivisor() public pure returns (uint256) { return FUNDING_FRAUD_PARTIAL_SLASH_DIVISOR; }\n    function getDepositTerm() public pure returns (uint256) { return DEPOSIT_TERM_LENGTH; }\n    function getTxProofDifficultyFactor() public pure returns (uint256) { return TX_PROOF_DIFFICULTY_FACTOR; }\n\n    function getSignatureTimeout() public pure returns (uint256) { return REDEMPTION_SIGNATURE_TIMEOUT; }\n    function getIncreaseFeeTimer() public pure returns (uint256) { return INCREASE_FEE_TIMER; }\n    function getRedemptionProofTimeout() public pure returns (uint256) { return REDEMPTION_PROOF_TIMEOUT; }\n    function getMinimumRedemptionFee() public pure returns (uint256) { return MINIMUM_REDEMPTION_FEE; }\n\n    function getFundingTimeout() public pure returns (uint256) { return FUNDING_PROOF_TIMEOUT; }\n    function getSigningGroupFormationTimeout() public pure returns (uint256) { return FORMATION_TIMEOUT; }\n    function getFraudFundingTimeout() public pure returns (uint256) { return FRAUD_FUNDING_PROOF_TIMEOUT; }\n    function getFunderBondAmount() public pure returns (uint256) { return FUNDER_BOND_AMOUNT_WEI; }\n\n    function getCourtesyCallTimeout() public pure returns (uint256) { return COURTESY_CALL_DURATION; }\n    function getAuctionDuration() public pure returns (uint256) { return AUCTION_DURATION; }\n    function getAuctionBasePercentage() public pure returns (uint256) { return AUCTION_BASE_PERCENTAGE; }\n    function getPermittedFeeBumps() public pure returns (uint256) {return PERMITTED_FEE_BUMPS; }\n}\n",
  "sourcePath": "/tmp/4dc3a1f35eb2ac0746a4afda14417a7b0cb64f6d/implementation/contracts/deposit/TBTCConstants.sol",
  "compiler": {
    "name": "solc",
    "version": "0.5.10+commit.5a6ea5b1.Emscripten.clang"
  },
  "schemaVersion": "3.0.19",
  "updatedAt": "2020-02-06T21:45:08.153Z",
  "networkType": "ethereum",
  "devdoc": {
    "methods": {}
  },
  "userdoc": {
    "methods": {}
  }
}