{
  "contractName": "VendingMachine",
  "abi": [
    {
      "inputs": [
        {
          "name": "_tbtcToken",
          "type": "address"
        },
        {
          "name": "_tbtcDepositToken",
          "type": "address"
        },
        {
          "name": "_feeRebateToken",
          "type": "address"
        }
      ],
      "payable": false,
      "stateMutability": "nonpayable",
      "type": "constructor"
    },
    {
      "constant": false,
      "inputs": [
        {
          "name": "_depositAddress",
          "type": "address"
        }
      ],
      "name": "isQualified",
      "outputs": [
        {
          "name": "",
          "type": "bool"
        }
      ],
      "payable": false,
      "stateMutability": "nonpayable",
      "type": "function"
    },
    {
      "constant": false,
      "inputs": [
        {
          "name": "_tdtId",
          "type": "uint256"
        }
      ],
      "name": "tbtcToTdt",
      "outputs": [],
      "payable": false,
      "stateMutability": "nonpayable",
      "type": "function"
    },
    {
      "constant": false,
      "inputs": [
        {
          "name": "_tdtId",
          "type": "uint256"
        }
      ],
      "name": "tdtToTbtc",
      "outputs": [],
      "payable": false,
      "stateMutability": "nonpayable",
      "type": "function"
    },
    {
      "constant": false,
      "inputs": [
        {
          "name": "_depositAddress",
          "type": "address"
        },
        {
          "name": "_txVersion",
          "type": "bytes4"
        },
        {
          "name": "_txInputVector",
          "type": "bytes"
        },
        {
          "name": "_txOutputVector",
          "type": "bytes"
        },
        {
          "name": "_txLocktime",
          "type": "bytes4"
        },
        {
          "name": "_fundingOutputIndex",
          "type": "uint8"
        },
        {
          "name": "_merkleProof",
          "type": "bytes"
        },
        {
          "name": "_txIndexInBlock",
          "type": "uint256"
        },
        {
          "name": "_bitcoinHeaders",
          "type": "bytes"
        }
      ],
      "name": "unqualifiedDepositToTbtc",
      "outputs": [],
      "payable": false,
      "stateMutability": "nonpayable",
      "type": "function"
    },
    {
      "constant": false,
      "inputs": [
        {
          "name": "_depositAddress",
          "type": "address"
        },
        {
          "name": "_outputValueBytes",
          "type": "bytes8"
        },
        {
          "name": "_requesterPKH",
          "type": "bytes20"
        },
        {
          "name": "_finalRecipient",
          "type": "address"
        }
      ],
      "name": "tbtcToBtc",
      "outputs": [],
      "payable": false,
      "stateMutability": "nonpayable",
      "type": "function"
    }
  ],
  "bytecode": "0x608060405234801561001057600080fd5b506040516115983803806115988339818101604052606081101561003357600080fd5b5080516020820151604090920151600080546001600160a01b039384166001600160a01b03199182161790915560018054948416948216949094179093556002805492909116919092161790556115098061008f6000396000f3fe608060405234801561001057600080fd5b50600436106100575760003560e01c8063135b9f6a1461005c578063a421d668146100b1578063ac37d7ce146100eb578063ba2238d014610108578063efa4b19914610125575b600080fd5b6100af6004803603608081101561007257600080fd5b506001600160a01b0381358116916001600160c01b0319602082013516916bffffffffffffffffffffffff19604083013516916060013516610399565b005b6100d7600480360360208110156100c757600080fd5b50356001600160a01b03166107cd565b604080519115158252519081900360200190f35b6100af6004803603602081101561010157600080fd5b503561083a565b6100af6004803603602081101561011e57600080fd5b5035610c1c565b6100af600480360361012081101561013c57600080fd5b6001600160a01b03823516916001600160e01b031960208201351691810190606081016040820135600160201b81111561017557600080fd5b82018360208201111561018757600080fd5b803590602001918460018302840111600160201b831117156101a857600080fd5b91908080601f0160208091040260200160405190810160405280939291908181526020018383808284376000920191909152509295949360208101935035915050600160201b8111156101fa57600080fd5b82018360208201111561020c57600080fd5b803590602001918460018302840111600160201b8311171561022d57600080fd5b91908080601f01602080910402602001604051908101604052809392919081815260200183838082843760009201919091525092956001600160e01b03198535169560ff60208701351695919450925060608101915060400135600160201b81111561029857600080fd5b8201836020820111156102aa57600080fd5b803590602001918460018302840111600160201b831117156102cb57600080fd5b91908080601f01602080910402602001604051908101604052809392919081815260200183838082843760009201919091525092958435959094909350604081019250602001359050600160201b81111561032557600080fd5b82018360208201111561033757600080fd5b803590602001918460018302840111600160201b8311171561035857600080fd5b91908080601f01602080910402602001604051908101604052809392919081815260200183838082843760009201919091525092955061118b945050505050565b60015460408051634f558e7960e01b81526001600160a01b03878116600483015291519190921691634f558e79916024808301926020929190829003018186803b1580156103e657600080fd5b505afa1580156103fa573d6000803e3d6000fd5b505050506040513d602081101561041057600080fd5b505161044d5760405162461bcd60e51b81526004018080602001828103825260218152602001806114b46021913960400191505060405180910390fd5b6000546040805163251befd360e21b8152905186926001600160a01b03908116926379cc679092339286169163946fbf4c916004808301926020929190829003018186803b15801561049e57600080fd5b505afa1580156104b2573d6000803e3d6000fd5b505050506040513d60208110156104c857600080fd5b5051604080516001600160e01b031960e086901b1681526001600160a01b039093166004840152602483019190915251604480830192600092919082900301818387803b15801561051857600080fd5b505af115801561052c573d6000803e3d6000fd5b50506001546040805163095ea7b360e01b81526001600160a01b038a8116600483018190526024830152915191909216935063095ea7b39250604480830192600092919082900301818387803b15801561058557600080fd5b505af1158015610599573d6000803e3d6000fd5b505060408051630d8d023360e41b81523360048201529051600093506001600160a01b038516925063d8d0233091602480820192602092909190829003018186803b1580156105e757600080fd5b505afa1580156105fb573d6000803e3d6000fd5b505050506040513d602081101561061157600080fd5b5051905080156107285760008054604080516323b872dd60e01b81523360048201523060248201526044810185905290516001600160a01b03909216926323b872dd926064808401936020939083900390910190829087803b15801561067657600080fd5b505af115801561068a573d6000803e3d6000fd5b505050506040513d60208110156106a057600080fd5b5050600080546040805163095ea7b360e01b81526001600160a01b038a81166004830152602482018690529151919092169263095ea7b392604480820193602093909283900390910190829087803b1580156106fb57600080fd5b505af115801561070f573d6000803e3d6000fd5b505050506040513d602081101561072557600080fd5b50505b6040805163252f6a1360e21b81526001600160c01b0319871660048201526bffffffffffffffffffffffff19861660248201526001600160a01b0385811660448301529151918416916394bda84c916064808201926020929091908290030181600087803b15801561079957600080fd5b505af11580156107ad573d6000803e3d6000fd5b505050506040513d60208110156107c357600080fd5b5050505050505050565b6000816001600160a01b031663f97a02fa6040518163ffffffff1660e01b815260040160206040518083038186803b15801561080857600080fd5b505afa15801561081c573d6000803e3d6000fd5b505050506040513d602081101561083257600080fd5b505192915050565b60015460408051634f558e7960e01b81526004810184905290516001600160a01b0390921691634f558e7991602480820192602092909190829003018186803b15801561088657600080fd5b505afa15801561089a573d6000803e3d6000fd5b505050506040513d60208110156108b057600080fd5b50516108ed5760405162461bcd60e51b81526004018080602001828103825260218152602001806114b46021913960400191505060405180910390fd5b6108f6816107cd565b610943576040805162461bcd60e51b815260206004820152601960248201527811195c1bdcda5d081b5d5cdd081899481c5d585b1a599a5959603a1b604482015290519081900360640190fd5b6000816001600160a01b031663946fbf4c6040518163ffffffff1660e01b815260040160206040518083038186803b15801561097e57600080fd5b505afa158015610992573d6000803e3d6000fd5b505050506040513d60208110156109a857600080fd5b5051600054604080516370a0823160e01b8152336004820152905192935083926001600160a01b03909216916370a0823191602480820192602092909190829003018186803b1580156109fa57600080fd5b505afa158015610a0e573d6000803e3d6000fd5b505050506040513d6020811015610a2457600080fd5b50511015610a79576040805162461bcd60e51b815260206004820181905260248201527f4e6f7420656e6f756768205442544320666f72205444542065786368616e6765604482015290519081900360640190fd5b600080546040805163079cc67960e41b81523360048201526024810185905290516001600160a01b03909216926379cc67909260448084019382900301818387803b158015610ac757600080fd5b505af1158015610adb573d6000803e3d6000fd5b5050600154604080516331a9108f60e11b81526004810187905290513094506001600160a01b039092169250636352211e916024808301926020929190829003018186803b158015610b2c57600080fd5b505afa158015610b40573d6000803e3d6000fd5b505050506040513d6020811015610b5657600080fd5b50516001600160a01b031614610ba7576040805162461bcd60e51b815260206004820152601160248201527011195c1bdcda5d081a5cc81b1bd8dad959607a1b604482015290519081900360640190fd5b600154604080516323b872dd60e01b81523060048201523360248201526044810185905290516001600160a01b03909216916323b872dd9160648082019260009290919082900301818387803b158015610c0057600080fd5b505af1158015610c14573d6000803e3d6000fd5b505050505050565b60015460408051634f558e7960e01b81526004810184905290516001600160a01b0390921691634f558e7991602480820192602092909190829003018186803b158015610c6857600080fd5b505afa158015610c7c573d6000803e3d6000fd5b505050506040513d6020811015610c9257600080fd5b5051610ccf5760405162461bcd60e51b81526004018080602001828103825260218152602001806114b46021913960400191505060405180910390fd5b610cd8816107cd565b610d25576040805162461bcd60e51b815260206004820152601960248201527811195c1bdcda5d081b5d5cdd081899481c5d585b1a599a5959603a1b604482015290519081900360640190fd5b600154604080516323b872dd60e01b81523360048201523060248201526044810184905290516001600160a01b03909216916323b872dd9160648082019260009290919082900301818387803b158015610d7e57600080fd5b505af1158015610d92573d6000803e3d6000fd5b5050505060008190506000816001600160a01b03166375030f9c6040518163ffffffff1660e01b815260040160206040518083038186803b158015610dd657600080fd5b505afa158015610dea573d6000803e3d6000fd5b505050506040513d6020811015610e0057600080fd5b50516040805163251befd360e21b815290519192506000916001600160a01b0385169163946fbf4c916004808301926020929190829003018186803b158015610e4857600080fd5b505afa158015610e5c573d6000803e3d6000fd5b505050506040513d6020811015610e7257600080fd5b5051600054604080516370a0823160e01b81526001600160a01b0388811660048301529151939450859391909216916370a08231916024808301926020929190829003018186803b158015610ec657600080fd5b505afa158015610eda573d6000803e3d6000fd5b505050506040513d6020811015610ef057600080fd5b50511015611020576000546001600160a01b03166340c10f1933610f1a848663ffffffff61145616565b6040518363ffffffff1660e01b815260040180836001600160a01b03166001600160a01b0316815260200182815260200192505050602060405180830381600087803b158015610f6957600080fd5b505af1158015610f7d573d6000803e3d6000fd5b505050506040513d6020811015610f9357600080fd5b505060008054604080516340c10f1960e01b81526001600160a01b03888116600483015260248201879052915191909216926340c10f1992604480820193602093909283900390910190829087803b158015610fee57600080fd5b505af1158015611002573d6000803e3d6000fd5b505050506040513d602081101561101857600080fd5b506110a29050565b60008054604080516340c10f1960e01b81523360048201526024810185905290516001600160a01b03909216926340c10f19926044808401936020939083900390910190829087803b15801561107557600080fd5b505af1158015611089573d6000803e3d6000fd5b505050506040513d602081101561109f57600080fd5b50505b60025460408051634f558e7960e01b81526004810187905290516001600160a01b0390921691634f558e7991602480820192602092909190829003018186803b1580156110ee57600080fd5b505afa158015611102573d6000803e3d6000fd5b505050506040513d602081101561111857600080fd5b505161118557600254604080516340c10f1960e01b81523360048201526024810187905290516001600160a01b03909216916340c10f199160448082019260009290919082900301818387803b15801561117157600080fd5b505af11580156107c3573d6000803e3d6000fd5b50505050565b6000899050806001600160a01b031663d9f74b0e8a8a8a8a8a8a8a8a6040518963ffffffff1660e01b815260040180896001600160e01b0319166001600160e01b03191681526020018060200180602001886001600160e01b0319166001600160e01b03191681526020018760ff1660ff168152602001806020018681526020018060200185810385528c818151815260200191508051906020019080838360005b8381101561124557818101518382015260200161122d565b50505050905090810190601f1680156112725780820380516001836020036101000a031916815260200191505b5085810384528b5181528b516020918201918d019080838360005b838110156112a557818101518382015260200161128d565b50505050905090810190601f1680156112d25780820380516001836020036101000a031916815260200191505b5085810383528851815288516020918201918a019080838360005b838110156113055781810151838201526020016112ed565b50505050905090810190601f1680156113325780820380516001836020036101000a031916815260200191505b50858103825286518152865160209182019188019080838360005b8381101561136557818101518382015260200161134d565b50505050905090810190601f1680156113925780820380516001836020036101000a031916815260200191505b509c50505050505050505050505050602060405180830381600087803b1580156113bb57600080fd5b505af11580156113cf573d6000803e3d6000fd5b505050506040513d60208110156113e557600080fd5b5051611438576040805162461bcd60e51b815260206004820152601f60248201527f6661696c656420746f2070726f766964652066756e64696e672070726f6f6600604482015290519081900360640190fd5b61144a8a6001600160a01b0316610c1c565b50505050505050505050565b6000828211156114ad576040805162461bcd60e51b815260206004820152601d60248201527f556e646572666c6f7720647572696e67207375627472616374696f6e2e000000604482015290519081900360640190fd5b5090039056fe74425443204465706f73697420546f6b656e20646f6573206e6f74206578697374a265627a7a7230582098141cd61157efe602c687fbc24bf001edab6ccb6e47a33694ce8ac5f594e0fe64736f6c634300050a0032",
  "source": "pragma solidity ^0.5.10;\n\nimport {SafeMath} from \"@summa-tx/bitcoin-spv-sol/contracts/SafeMath.sol\";\nimport {TBTCDepositToken} from \"./TBTCDepositToken.sol\";\nimport {FeeRebateToken} from \"./FeeRebateToken.sol\";\nimport {TBTCToken} from \"./TBTCToken.sol\";\nimport {TBTCConstants} from \"../deposit/TBTCConstants.sol\";\nimport {DepositUtils} from \"../deposit/DepositUtils.sol\";\nimport \"../deposit/Deposit.sol\";\n\ncontract VendingMachine {\n    using SafeMath for uint256;\n\n    TBTCToken tbtcToken;\n    TBTCDepositToken tbtcDepositToken;\n    FeeRebateToken feeRebateToken;\n\n    constructor(\n        address _tbtcToken,\n        address _tbtcDepositToken,\n        address _feeRebateToken\n    ) public {\n        tbtcToken = TBTCToken(_tbtcToken);\n        tbtcDepositToken = TBTCDepositToken(_tbtcDepositToken);\n        feeRebateToken = FeeRebateToken(_feeRebateToken);\n    }\n\n    /// @notice Determines whether a deposit is qualified for minting TBTC.\n    /// @param _depositAddress the address of the deposit\n    function isQualified(address payable _depositAddress) public returns (bool) {\n        return Deposit(_depositAddress).inActive();\n    }\n\n    /// @notice Pay back the deposit's TBTC and receive the tBTC Deposit Token\n    ///         as long as it is qualified.\n    /// @dev    Burns TBTC, transfers TDT from vending machine to caller\n    /// @param _tdtId ID of tBTC Deposit Token to buy\n    function tbtcToTdt(uint256 _tdtId) public {\n        require(tbtcDepositToken.exists(_tdtId), \"tBTC Deposit Token does not exist\");\n        require(isQualified(address(_tdtId)), \"Deposit must be qualified\");\n\n        uint256 depositValue = Deposit(address(uint160(_tdtId))).lotSizeTbtc();\n        require(tbtcToken.balanceOf(msg.sender) >= depositValue, \"Not enough TBTC for TDT exchange\");\n        tbtcToken.burnFrom(msg.sender, depositValue);\n\n        // TODO do we need the owner check below? transferFrom can be approved for a user, which might be an interesting use case.\n        require(tbtcDepositToken.ownerOf(_tdtId) == address(this), \"Deposit is locked\");\n        tbtcDepositToken.transferFrom(address(this), msg.sender, _tdtId);\n    }\n\n    /// @notice Trade in the tBTC Deposit Token and mint TBTC.\n    /// @dev    Transfers TDT from caller to vending machine, and mints TBTC to caller\n    /// @param _tdtId ID of tBTC Deposit Token to sell\n    function tdtToTbtc(uint256 _tdtId) public {\n        require(tbtcDepositToken.exists(_tdtId), \"tBTC Deposit Token does not exist\");\n        require(isQualified(address(_tdtId)), \"Deposit must be qualified\");\n\n        tbtcDepositToken.transferFrom(msg.sender, address(this), _tdtId);\n\n        // If the backing Deposit does not have a signer fee in escrow, mint it.\n        Deposit deposit = Deposit(address(uint160(_tdtId)));\n        uint256 signerFee = deposit.signerFee();\n        uint256 depositValue = deposit.lotSizeTbtc();\n\n        if(tbtcToken.balanceOf(address(_tdtId)) < signerFee) {\n            tbtcToken.mint(msg.sender, depositValue.sub(signerFee));\n            tbtcToken.mint(address(_tdtId), signerFee);\n        }\n        else{\n            tbtcToken.mint(msg.sender, depositValue);\n        }\n\n        // owner of the TDT during first TBTC mint receives the FRT\n        if(!feeRebateToken.exists(_tdtId)){\n            feeRebateToken.mint(msg.sender, _tdtId);\n        }\n    }\n\n    // WRAPPERS\n\n    /// @notice Qualifies a deposit and mints TBTC.\n    /// @dev User must allow VendingManchine to transfer TDT\n    function unqualifiedDepositToTbtc(\n        address payable _depositAddress,\n        bytes4 _txVersion,\n        bytes memory _txInputVector,\n        bytes memory _txOutputVector,\n        bytes4 _txLocktime,\n        uint8 _fundingOutputIndex,\n        bytes memory _merkleProof,\n        uint256 _txIndexInBlock,\n        bytes memory _bitcoinHeaders\n    ) public {\n        Deposit _d = Deposit(_depositAddress);\n        require(\n            _d.provideBTCFundingProof(\n                _txVersion,\n                _txInputVector,\n                _txOutputVector,\n                _txLocktime,\n                _fundingOutputIndex,\n                _merkleProof,\n                _txIndexInBlock,\n                _bitcoinHeaders\n            ),\n            \"failed to provide funding proof\");\n\n        tdtToTbtc(uint256(_depositAddress));\n    }\n\n    /// @notice Redeems a Deposit by purchasing a TDT with TBTC for _finalRecipient,\n    ///         and using the TDT to redeem corresponding Deposit as _finalRecipient.\n    ///         This function will revert if the Deposit is not in ACTIVE state.\n    /// @dev Vending Machine transfers TBTC allowance to Deposit.\n    /// @param  _depositAddress     The address of the Deposit to redeem.\n    /// @param  _outputValueBytes   The 8-byte Bitcoin transaction output size in Little Endian.\n    /// @param  _requesterPKH       The 20-byte Bitcoin pubkeyhash to which to send funds.\n    /// @param  _finalRecipient     The deposit redeemer. This address will receive the TDT.\n    function tbtcToBtc(\n        address payable _depositAddress,\n        bytes8 _outputValueBytes,\n        bytes20 _requesterPKH,\n        address payable _finalRecipient\n    ) public {\n        require(tbtcDepositToken.exists(uint256(_depositAddress)), \"tBTC Deposit Token does not exist\");\n        Deposit _d = Deposit(_depositAddress);\n\n        tbtcToken.burnFrom(msg.sender, _d.lotSizeTbtc());\n        tbtcDepositToken.approve(_depositAddress, uint256(_depositAddress));\n\n        uint256 tbtcOwed = _d.getOwnerRedemptionTbtcRequirement(msg.sender);\n\n        if(tbtcOwed != 0){\n            tbtcToken.transferFrom(msg.sender, address(this), tbtcOwed);\n            tbtcToken.approve(_depositAddress, tbtcOwed);\n        }\n\n        _d.transferAndRequestRedemption(_outputValueBytes, _requesterPKH, _finalRecipient);\n    }\n}\n",
  "sourcePath": "/tmp/4dc3a1f35eb2ac0746a4afda14417a7b0cb64f6d/implementation/contracts/system/VendingMachine.sol",
  "compiler": {
    "name": "solc",
    "version": "0.5.10+commit.5a6ea5b1.Emscripten.clang"
  },
  "schemaVersion": "3.0.19",
  "updatedAt": "2020-02-06T21:45:08.125Z",
  "networkType": "ethereum",
  "devdoc": {
    "methods": {
      "isQualified(address)": {
        "params": {
          "_depositAddress": "the address of the deposit"
        }
      },
      "tbtcToBtc(address,bytes8,bytes20,address)": {
        "details": "Vending Machine transfers TBTC allowance to Deposit.",
        "params": {
          "_depositAddress": "The address of the Deposit to redeem.",
          "_finalRecipient": "The deposit redeemer. This address will receive the TDT.",
          "_outputValueBytes": "The 8-byte Bitcoin transaction output size in Little Endian.",
          "_requesterPKH": "The 20-byte Bitcoin pubkeyhash to which to send funds."
        }
      },
      "tbtcToTdt(uint256)": {
        "details": "Burns TBTC, transfers TDT from vending machine to caller",
        "params": {
          "_tdtId": "ID of tBTC Deposit Token to buy"
        }
      },
      "tdtToTbtc(uint256)": {
        "details": "Transfers TDT from caller to vending machine, and mints TBTC to caller",
        "params": {
          "_tdtId": "ID of tBTC Deposit Token to sell"
        }
      },
      "unqualifiedDepositToTbtc(address,bytes4,bytes,bytes,bytes4,uint8,bytes,uint256,bytes)": {
        "details": "User must allow VendingManchine to transfer TDT"
      }
    }
  },
  "userdoc": {
    "methods": {
      "isQualified(address)": {
        "notice": "Determines whether a deposit is qualified for minting TBTC."
      },
      "tbtcToBtc(address,bytes8,bytes20,address)": {
        "notice": "Redeems a Deposit by purchasing a TDT with TBTC for _finalRecipient,         and using the TDT to redeem corresponding Deposit as _finalRecipient.         This function will revert if the Deposit is not in ACTIVE state."
      },
      "tbtcToTdt(uint256)": {
        "notice": "Pay back the deposit's TBTC and receive the tBTC Deposit Token         as long as it is qualified."
      },
      "tdtToTbtc(uint256)": {
        "notice": "Trade in the tBTC Deposit Token and mint TBTC."
      },
      "unqualifiedDepositToTbtc(address,bytes4,bytes,bytes,bytes4,uint8,bytes,uint256,bytes)": {
        "notice": "Qualifies a deposit and mints TBTC."
      }
    }
  }
}